:100000000C9436040C9453040C9453040C94530431
:100010000C9453040C9453040C9453040C94530404
:100020000C9453040C9453040C94C82B0C949A2CE9
:100030000C9416220C9453040C9453040C94530403
:100040000C9453040C9453040C9453040C945304D4
:100050000C9453040C947E220C9453040C9453047B
:100060000C9453040C9453040C9453040C945304B4
:100070000C9453040C9453040C9453040C945304A4
:100080000C9453040C9453040C9453040C94530494
:100090000C9453040C9453040C9453040C94530484
:1000A0000C9453040C9453040C945304E504E80496
:1000B000EB04EE04F104F304F604D307D507E007DC
:1000C000D707D907DB07DD07DF07E207E407E60705
:1000D000F107E807EA07EC07EE07F007F307A117B7
:1000E000A117D317D317061824188319E119661816
:1000F000E119091909197A19E119E119DB19161918
:100100001619161916191619161916191619161977
:100110001619161916191619161916191619271956
:1001200034193B1942194C19721A721A841A841A1A
:100130007B1A841A841A841A721A721A801A841A00
:10014000841A801A072D2E2D262E2E2D262E7A2D3E
:100150009D2D262EF42D032E07634236B79BD8A77C
:100160001A39685618AEBAAB558C1D3CB7CC5763DC
:10017000BD6DEDFD753EF6177231BF000000803F8A
:1001800005A84CCDB2D44EB93836A9020C50B9915D
:100190008688083CA6AAAA2ABE000000803F02E684
:1001A0003703E6006572676F646F785F657A2F6763
:1001B0006C6163616D627265204020302E362E3096
:1001C0002D31352D67353634316231006572676FF8
:1001D000646F785F657A2F676C6163616D627265C9
:1001E000204020302E362E302D31352D67353634D7
:1001F000316231000000F0A10000F0A32F004C009C
:100200002900E100015100001E00140004001D003F
:100210006400E6001F001A0016001B00E2002B001D
:100220002000080007000600E0002C002100150057
:1002300009001900E3004D00220017000A00050024
:1002400000005000500002530000015300004F0016
:100250004F000253000001530000510023001C0016
:100260000B00110000005200240018000D001000C7
:10027000E700460025000C000E003600E4002800D0
:10028000260012000F003700E2002A0027001300AA
:10029000330038003000E6002D002E003400E50069
:1002A00001510000D45C01000100010001000000C8
:1002B0003A00380020143402010001003B002714EA
:1002C00030002614010001003C00211422002214F9
:1002D000010001003D002E142D002D14010001002D
:1002E0003E002314D65C1F14000001000100010031
:1002F00000000100000001000100010000000100F9
:10030000000001003F002E0027023602000001001D
:100310004000240221021E020100010041002502CA
:1003200022021F02010001004200260223022002D5
:1003300001000100430032002E02251401000100DB
:100340004400450001000100010000002E004C00A7
:100350002900E100C30000001E00040014001A0080
:100360006400E60020021D0016001B00E2002B00C6
:100370003400080007000600E0002C0034021500DD
:1003800009001900E3004D00260217000A000500CD
:1003900000006500500002530000035300004A00B3
:1003A0004F0002530000035300004B002D001C00BF
:1003B0000B00110000004600350018000D0036004B
:1003C000E7004E002D020C000E003300E400280070
:1003D000230212000F003302E2002A001F02130062
:1003E00010001E022102E60027022E002202E50074
:1003F000C3000000D45C0100010001000100000006
:100400003A001E02200222024F0001003B001F02A0
:10041000210223025200C15C3C002F0226022F0061
:100420005100C25C3D003002270230005000010044
:100430003E003102350035020000BB5C01000100C6
:1004400000000100000001000100010000000100A7
:100450000000BA5C3F002E00270037000000D55C8A
:100460004000240021001E00500001004100250032
:1004700022001F005100BD5C420026002300200026
:100480005200BE5C430025022E0231004F000100E5
:1004900044004500010001000100000000000000D0
:1004A000000000002A2B28000000000000000000CF
:1004B0000000000000000029000000002C1E342075
:1004C000212224342627252E362D3738271E1F209B
:1004D0002122232425263333362E37381F040506E0
:1004E0000708090A0B0C0D0E0F1011121314151624
:1004F0001718191A1B1C1D2F3130232D3504050622
:100500000708090A0B0C0D0E0F1011121314151603
:100510001718191A1B1C1D2F3130354C0000000014
:1005200000000000000000000000000000000000CB
:1005300000000000000000000000000000010101B8
:1005400001010100010101010000000000000000A4
:100550000000000000000100010001010101010193
:10056000010101010101010101010101010101017B
:100570000101010101010100000001010000000072
:10058000000000000000000000000000000000006B
:100590000000000000000001010101006801F000FE
:1005A000B40078005A007F3F1F643214643214781C
:1005B0003C1E1E140A05000000000001010101019B
:1005C000010101010202020202020202020303030C
:1005D00003030303030404040404040505050505DB
:1005E0000606060606070707070808080809090996
:1005F0000A0A0A0A0B0B0B0C0C0C0D0D0D0E0E0F3C
:100600000F0F1010111111121213131414151516C7
:10061000161717181819191A1A1B1C1C1D1D1E1F36
:100620001F20202122222324252526272728292A86
:100630002B2B2C2D2E2F2F303132333435363637AD
:1006400038393A3B3C3D3E3F4041424344464748AF
:10065000494A4B4C4D4F50515253555657585A5B7F
:100660005C5E5F606263646667696A6C6D6E707120
:1006700073747678797B7C7E8081838486888A8B8C
:100680008D8F91929496989A9B9D9FA1A3A5A7A9BF
:10069000ABADAFB1B3B5B7B9BBBDBFC1C4C6C8CAB6
:1006A000CCCFD1D3D6D8DADCDFE1E4E6E8EBEDF06D
:1006B000F2F5F7FAFCFF04033000000016034500D2
:1006C000720067006F0044006F0078002000450052
:1006D0005A00000016034500720067006F004400D6
:1006E0006F007800200045005A0000000403090450
:1006F00009026D00040100A0FA09040000010301D1
:1007000001000921110100012240000705810308B1
:10071000000A09040100010301020009211101007E
:1007200001224D000705820308000A0904020001A6
:100730000300000009211101000122360007058392
:100740000308000A09040300010300000009211145
:100750000100012239000705840320000112011065
:100760000100000008EDFE0713010001020301056E
:10077000010906A101050719E029E71500250195E2
:100780000875018102050819012905950575019172
:10079000029501750391010507190029F715002538
:1007A0000195F875018102C005010980A10185024A
:1007B0001601002603001A81002A83007510950196
:1007C0008100C0050C0901A1018503160100269CCA
:1007D000021A01002A9C02751095018100C00501D2
:1007E0000902A1010901A100050919012905150046
:1007F00025019505750181029501750381010501AA
:10080000093009311581257F95027508810609385F
:100810001581257F950175088106050C0A3802159A
:1008200081257F950175088106C0C005010906A1D3
:1008300001050719E029E7150025019508750181D3
:1008400002950175088101050819012905950575AD
:100850000191029501750391010507190029FF1502
:100860000026FF00950675088100C00011241FBEF8
:10087000CFEFDAE0DEBFCDBF11E0A0E0B1E0E6E30C
:10088000F4E602C005900D92AC3DB107D9F723E024
:10089000ACEDB1E001C01D92AB3BB207E1F70E94A5
:1008A000F3280C9419320C9400001092B9008AE0DD
:1008B0008093B800089594EA9093BC009091BC0096
:1008C00097FFFCCF9091B900987F983021F090313C
:1008D00011F081E008958093BB0084E88093BC0010
:1008E0008091BC0087FFFCCF8091B900887F883160
:1008F00011F0803471F780E0089584E98093BC00A2
:100900008091BC0084FDFCCF08958093BB0084E8F7
:100910008093BC008091BC0087FFFCCF9091B90010
:10092000987F81E0983209F480E0089584E880930C
:10093000BC008091BC0087FFFCCF8091BB00089574
:1009400080B38C7080BB81B3836F81BB089584B109
:10095000807F84B985B1807F85B98AB1837F8AB968
:100960008BB1837F8BB93E9846980895CF93E82F3B
:10097000873008F58091000181113AC0CE2F80E4C4
:100980000E945B0480930001811112C082E10E94E9
:1009900085048093000181110BC081E090E001C0CB
:1009A000880FCA95EAF780950E948504809300011C
:1009B000CF910C947D0490E0FC013797E730F1056E
:1009C000B8F4EA5AFF4F0C94CB31209A289810C003
:1009D000219A29980DC0229A2A980AC0239A2B9806
:1009E00007C0529A01C0539A5B9802C03E9A46983B
:1009F000CF910895CF93873018F580910001811130
:100A000028C080E40E945B0480930001882311F0D9
:100A1000C0E012C083E10E9485048093000181112F
:100A2000F7CF81E40E945B04809300018111F0CF35
:100A30000E949604C82FC0950E947D048C2F0AC086
:100A40009FB18FB1807F869586959370892B809515
:100A500001C080E0CF9108950C94FD060E946906C4
:100A6000809300010E94A7040E94A004E1E3F2E049
:100A70008DED91E01192DC0126E01D922150E9F705
:100A8000069622E081339207A9F70C94440A0E944B
:100A90006906809300010E94A7040E94A004E1E37C
:100AA000F2E0119282E0EF33F807D9F7089526E0DB
:100AB000829FC0011124FC01E352FE4F20E030E090
:100AC00080E041E050E09081992319F091509083AB
:100AD00007C0BA01022E01C0660F0A94EAF7862BFE
:100AE0002F5F3F4F31962630310569F7089596E024
:100AF000699FB001112420E030E090E04FE0FC015C
:100B0000022E02C0F595E7950A94E2F7E0FF06C0D1
:100B1000FB01E20FF31FE352FE4F40832F5F3F4F75
:100B20002630310561F70895EF92FF920F931F93DE
:100B3000CF93DF9380910001882379F08091DC01CD
:100B40008F5F8093DC01811108C00E946906809349
:100B50000001811102C00E94FB0581E3E82E82E0C2
:100B6000F82EC0E08C2F0E94B60407E00C0F802FF7
:100B70000E94B6048C2F0E945705182F8C2F0E94BC
:100B8000FA04F7019081D12FD095D9238123D82B56
:100B90006C2F892F8D270E947705F701D1937F0154
:100BA000802F0E945705182F802F0E94FA04F7010A
:100BB0009681D12FD095D9238123D82B602F892FCF
:100BC0008D270E947705F701D6830E94A704CF5F87
:100BD000C73041F60E94460A81E0DF91CF911F9114
:100BE0000F91FF90EF900895E82FF0E0EF5CFD4F3C
:100BF00080810895089556985E9825982D98269896
:100C00002E9827982F988FEF90E0909389008093EB
:100C1000880090938B0080938A0090938D0080933E
:100C20008C00259A2D9A2FEF80E792E0215080408A
:100C30009040E1F700C00000269A2E9A2FEF80E73F
:100C400092E0215080409040E1F700C00000279AD8
:100C50002F9A2FEF80E792E0215080409040E1F7FB
:100C600000C0000025982D982FEF80E792E02150DA
:100C700080409040E1F700C0000026982E982FEFAA
:100C800080E792E0215080409040E1F700C00000F2
:100C900027982F9856985E9825982D9826982E98E4
:100CA00027982F98089589EA8093800089E080939F
:100CB000810024982C983F988AB18F7C8AB96E98CD
:100CC000479A8BB180638BB9769A0E94FB050C948E
:100CD000FC0680E28093000180913F0281110EC0EA
:100CE0000E94550481E080933F022FEF83ED90E353
:100CF000215080409040E1F700C0000080E40E9455
:100D00005B048093000181112EC00E9485048093B2
:100D10000001811128C00E94850480930001811187
:100D200022C08FE30E9485048093000181111BC0C3
:100D30000E947D0480E40E945B0480930001811185
:100D400012C08CE00E9485048093000181110BC0C9
:100D50000E94850480930001811105C08FE30E94E9
:100D60008504809300010E947D0480910001089514
:100D7000662319F0613051F00EC0FC018281882396
:100D800051F08CEC91E00E94410A05C0FC01828187
:100D900081110E94172180E090E00895FB01843DBD
:100DA0002CE59207B9F020F4833D9C4569F022C000
:100DB000853D2CE59207B1F0863D9C45D9F48EE93E
:100DC00091E00E94410A16C082818823A1F00E940E
:100DD00017210EC08281882371F084EA91E00E947D
:100DE000410A06C08281882331F081E00E947C1094
:100DF00080E0089581E00895089560910303709163
:100E0000040380910503909106030E94C720569821
:100E10005E9825982D9826982E9827982F9882309E
:100E200039F0833041F0813041F4259A2D9A0895AC
:100E3000269A2E9A0895279A2F9A089581E0089568
:100E40000C94CE060E945E1A2FEF84E39CE02150A2
:100E500080409040E1F700C000000C94A422FF9273
:100E60000F931F93CF93DF938C01FC01C081D1813D
:100E700080919102811113C08281882349F0CE01B3
:100E80000E94BD1FF82E682FCE010E94641F04C06F
:100E9000CE010E94901FF82EBE018F2D04C0CE01FE
:100EA0000E94BD1FBE010E945C0AEC01B8010E94B5
:100EB0002007882309F486C2B801CE010E94C90C1C
:100EC000882309F47FC2B801CE010E94180D88233F
:100ED00009F478C2C23CFCE5DF0741F4F8018281E5
:100EE000882309F46FC20E9462106CC2C33C8CE577
:100EF000D80708F015C1CB3B9CE5D90761F4F80190
:100F00008281882309F45EC20E948E208272E1F001
:100F10000E94011157C2CC3BECE5DE07C0F0CE3B8E
:100F20009CE5D90709F4CDC008F0DFC0CC3BFCE557
:100F3000DF0709F0CEC0F8018281882309F442C29C
:100F40000E948E20827221F30E94F7103BC2C531AD
:100F5000FCE5DF0708F07EC0C2308CE5D80708F456
:100F600052C0F8018281882309F459C00E943821B7
:100F7000811102C00E9417210E944B2190E09093A2
:100F8000AD038093AC03FE01E350FC45E231F10573
:100F900030F4E35AFF4F8091AC030C94CB31809135
:100FA000AC03816027C0826025C0846023C080615B
:100FB00021C080621FC080641DC080681BC0846027
:100FC000886018C08E7F16C08D7F14C08B7F12C0C2
:100FD0008F7E10C08F7D0EC08F7B0CC08F770AC0B4
:100FE0008B7F877F07C087FB222720F991E092271C
:100FF00090FB87F98093AC038091AC030E944F2152
:101000000E945E1ADFC1C1159CE5D90781F0C1308D
:10101000DC45A9F081E08093450280934602C80137
:10102000DF91CF911F910F91FF900C941E07F80153
:101030008281882309F4C6C10E942207C3C1F80136
:101040008281882309F4BEC180913003816080933E
:101050003003B8C1C531FCE5DF0739F50E948E20A9
:10106000982FF80182812091030130910401882397
:1010700079F09A7A81E009F480E08093400291113E
:1010800002C069E201C065E3C9010E94B1210AC042
:1010900080914002811102C069E201C065E3C9018B
:1010A0000E94BC210E945B208DC1CA3BDC4509F037
:1010B000B1CFF8018281882309F484C10E943E11D6
:1010C00081C1F8018281882309F47CC10E94041047
:1010D00079C1CD3BDC4509F09DCFF80182818823A1
:1010E00009F470C10E94EC0F6DC1F8018281C03C0F
:1010F000FCE5DF0731F4882309F464C10E94351050
:1011000061C1C13CDC4530F4882309F45BC10E9415
:10111000231058C1882309F455C10E94471052C1B9
:10112000C93CECE5DE0749F4F8018281882309F423
:1011300049C188E10E947C1045C1CA3CFCE5DF073B
:1011400008F088C0C53C8CE5D807B1F4F80182816D
:10115000882309F437C10E94C20E663071058105EB
:10116000910540F00E94C20E68307105810591051D
:1011700008F4EACE86E0DECFC63C9CE5D90728F528
:10118000C33CECE5DE0739F4F8018281882309F4D9
:1011900019C181E0CFCFC43CDC4509F03BCFF80159
:1011A0008281882309F40EC10E94C20E623071054B
:1011B0008105910540F00E94C20E653071058105E0
:1011C000910508F4C1CE82E0B5CFF8018281C73C19
:1011D000FCE5DF07A1F4882309F4F4C00E94C20EE5
:1011E0006F3071058105910540F00E94C20E643197
:1011F00071058105910508F4A7CE8FE09BCFC83C0F
:10120000DC45A0F4882309F4DDC00E94C20E6930D9
:1012100071058105910540F00E94C20E6E30710586
:101220008105910508F490CE89E084CF882309F4E4
:10123000C9C00E94C20E653171058105910540F05B
:101240000E94C20E673171058105910508F47CCEBC
:1012500085E170CFCC3CECE5DE0781F5F8018281B9
:10126000882361F0109246020E9448229093440223
:101270008093430280E20E945E17A4C00E948E20E9
:1012800081FF05C081E080934502809346028091F2
:10129000460281110FC080914302909144020E9446
:1012A0005422883C910530F487E20E94FD1587E2C4
:1012B0000E94FF1680E20E94651784C0CD3CFCE5C9
:1012C000DF0708F04AC0CA3C8CE5D807B1F4F80142
:1012D0008281882309F476C00E94C20E69317105AB
:1012E0008105910540F00E94C20E623271058105B0
:1012F000910508F429CE89E11DCFCB3CDC4509F0EE
:1013000089CEF8018281882351F0109245020E9413
:101310004822909342028093410282E0ACCF0E9427
:101320008E2085FF05C081E08093450280934602B0
:101330008091450281110FC080914102909142023B
:101340000E945422883C910530F486E20E94FD15EB
:1013500086E20E94FF1682E0AECFC03DECE5DE07DC
:1013600031F4F8018281882369F180E009C0C13D30
:10137000FCE5DF0741F4F8018281882319F182E05E
:101380000E948F291FC0CD3CDC4509F043CEF801F7
:101390008281811167CF8091460281118BCF80912C
:1013A0004302909144020E945422883C910508F027
:1013B00081CF80E20E94651788E20E94FD1588E2D5
:1013C0000E94FF1680E0DF91CF911F910F91FF9057
:1013D0000895CF9390E0FC01E456FB4FC491FC01CB
:1013E000E45EFA4F8491882359F081EE0E94FD1546
:1013F0008C2F0E94FD158C2F0E94FF1681EE04C0D9
:101400008C2F0E94FD158C2FCF910C94FF160F93FB
:101410001F93CF93DF93EC01062FFE018491882365
:1014200059F19E012F5F3F4F813041F4E901F901ED
:101430001491812F0E94FD15812F0DC0823031F44F
:10144000E901F90184910E94FD150AC0833031F44D
:10145000E901F90184910E94FF1602C00E94E90986
:101460002196802F8823C9F2EFE9FFE03197F1F749
:1014700000C000008150F6CFDF91CF911F910F91F6
:10148000089560E00C94070A0C9453060C942C0504
:10149000282F2F7041F0822F90E02A3010F44D96C3
:1014A00008950697089587E290E0089508950C94B2
:1014B000560A0C94570A089524E5829FC00111240E
:1014C000FC0126E0729FE00DF11D1124E60FF11DD5
:1014D000EE0FFF1FE450FE4F859194910895880F01
:1014E000991FFC01EC50FE4F859194910895CF9384
:1014F000DF930E945C0A0E94290CEC018115904543
:1015000008F041C0C11580E4D80708F025C1C83EE5
:10151000D10510F5C03ED10508F097C1C83AD105F4
:1015200078F4C53AD10508F0A7C0C130D10509F457
:101530008CC108F443C1C430D10508F086C13EC156
:10154000CD3BD10508F4A3C0C03CD10508F436C199
:10155000CE01805C9109F2C0C11590E2D90758F420
:10156000C11521E0D20708F070C1C03FD10508F4D1
:1015700025C1D0656AC1C11580E3D80708F0E2C073
:10158000CE019F70DBC0C11595E5D90708F044C0B6
:10159000C11524E5D20708F0F6C0C11582E5D807C9
:1015A00010F5C11591E5D90708F0D9C0CE0174E056
:1015B000969587957A95E1F7282F23703C2F337005
:1015C00081E090E002C0880F991F3A95E2F79C688D
:1015D000922BCF70C695C69520E2C29FE0011124E0
:1015E000C82BD92B32C19E01237033278C2F8695AF
:1015F0008695C115D34508F0B7C0C1E0D0E002C060
:10160000CC0FDD1F2A95E2F720E2829FC001112452
:10161000C82BD92BDC6819C1C1152AE5D207A0F463
:10162000C11589E5D80708F0B9C0C11596E5D907F5
:1016300008F4AEC0C11528E5D20708F4BFC0DC2FFE
:10164000CC27C06FD06A01C1C1158BE5D80708F45B
:10165000B5C0C1159CE5D90708F4ADC0CE019056C0
:101660008115904208F0AAC08D2F8F710E94A50CA1
:10167000DD27D0628F719DC0C53AD10509F4A1C0A4
:10168000C63AD10509F0A0C0C2E8D0E4DEC0C83A2D
:10169000D10509F49CC0C93AD10509F49BC0CA3AE6
:1016A000D10509F49AC0CB3AD10509F499C0CC3AD6
:1016B000D10509F498C0CB3BD10509F497C0CC3BC8
:1016C000D10509F496C0CD3AD10509F495C0C03BC7
:1016D000D10509F494C0CE3AD10509F493C0CF3AAC
:1016E000D10509F492C0C13BD10509F491C0C23BB8
:1016F000D10509F490C0C33BD10509F48FC0C43BA8
:10170000D10509F48EC0C53BD10509F48DC0C63B97
:10171000D10509F48CC0C73BD10509F48BC0C83B87
:10172000D10509F48AC0C93BD10509F489C0CA3B77
:10173000D10509F488C0C0E0D4E487C00E946F0AD4
:10174000EC0183C0CE019927D3FF03C0EC01D86C14
:101750007CC0EC01D06C79C0DF70D06A76C0DC2F21
:10176000CC27C16FD06A71C0C1E0D0E002C0CC0FFD
:10177000DD1F2A95E2F720E2829FC0011124C82BC9
:10178000D92BDA6862C0DC2FCC27C46FD06A5DC069
:10179000CF71DD27DC2FCC27D06257C0CE0124E0EB
:1017A000969587952A95E1F78F70CF70C06ED0E03F
:1017B000D06AD82B4AC0DD27D06647C0C0E0D0E051
:1017C00044C0C1E8D0E441C0C3E8D0E43EC0C2EEAA
:1017D000D4E43BC0C9EED4E438C0CAEED4E435C08A
:1017E000C5EBD4E432C0C6EBD4E42FC0C3EBD4E4E1
:1017F0002CC0C4EBD4E429C0C7EBD4E426C0CCECA5
:10180000D4E423C0CDECD4E420C0C3E8D5E41DC0AB
:10181000CAE8D5E41AC0C2E9D5E417C0C4E9D5E4E2
:1018200014C0C1E2D6E411C0C3E2D6E40EC0C4E2E3
:10183000D6E40BC0C5E2D6E408C0C6E2D6E405C0D3
:10184000C7E2D6E402C0CAE2D6E4CE01DF91CF916E
:1018500008958238910549F1B0F48133910509F476
:1018600059C048F48932910509F44FC08A32910574
:1018700009F455C008958533910509F441C08933B1
:10188000910599F00895833E910531F138F4803E39
:10189000910591F0823E9105A9F00895863E91054B
:1018A00001F1873E910539F108952091AC0320FDA7
:1018B0003BC021FD39C008958091AC0380FF34C046
:1018C00089E341C08091AC0382FF30C08091AC03BA
:1018D00084FD2EC083EE37C08091AC0382FD26C00C
:1018E000F5CF8091AC0383FF25C08091AC0384FDCC
:1018F0001FC087EE28C08091AC0383FD1BC0F5CFCD
:101900008091AC0385FD18C019C08091AC0385FDA2
:1019100015C012C08091AC0386FD12C013C0809127
:10192000AC0386FD0FC00CC080EE0DC082EE0BC074
:1019300080E009C086EE07C089E205C085E303C0E8
:101940008AE201C081E390E008959091AC0392FF98
:101950000DC0282F2871283019F4877F846006C0B5
:10196000282F2471243011F48B7F886093FF0DC0E1
:10197000282F2871283119F4877E846106C0282F0A
:101980002471243111F48B7E886194FD877E089543
:1019900008950F931F93CF93FB012281211102C061
:1019A000C1E041C08C01C0915402C11125C08631F3
:1019B0009C45B1F70E94C80C81E0809354020E94BC
:1019C0004822909353028093520210924702109241
:1019D00049021092480210924B0210924A02109251
:1019E0004D0210924C0210924F0210924E02109231
:1019F00051021092500217C08091520290915302EE
:101A00000E945422883C910558F690914702E92F94
:101A1000F0E0EE0FFF1FE85BFD4F118300839F5F37
:101A200090934702C0E08C2FCF911F910F910895A2
:101A3000CF93DF93813020E89207D0F0FB01228121
:101A40002223B1F0EC0180915502811109C08CE094
:101A500090E00E94D1310E943C0D81E080935502BC
:101A60000E94430DCE019F770E940B0E0E94BF0D76
:101A700081E0DF91CF91089580935602682F8CE02A
:101A800090E00C94E531E0910301F0910401808134
:101A90008093610381FF03C081EE0E94FF16809155
:101AA000610385FF03C085EE0E94FF1680916103EC
:101AB00080FF03C080EE0E94FF168091610384FFC7
:101AC00003C084EE0E94FF168091610382FF03C071
:101AD00082EE0E94FF168091610386FF03C086EEAE
:101AE0000E94FF168091610383FF03C083EE0E9472
:101AF000FF168091610387FF03C087EE0E94FF16E7
:101B000080915602823001F1A8F48823C9F0813017
:101B100079F580EE0E94FD1581EE0E94FD1588E1A9
:101B20000E94FD1588E10E94FF1681EE0E94FF16BB
:101B300080EE1CC0843081F08530D1F486EE01C087
:101B400082EE0E94FD1514C082EE0E94FD1587E50D
:101B50000E94FD1587E50AC086EE0E94FD1586EEFF
:101B60000E94FF1688E10E94FD1588E10E94FF1681
:101B70008FE39CE90197F1F700C000000895809180
:101B80005602813049F030F0823021F0853051F436
:101B900086EE06C082EE04C08CE20E94FD158CE247
:101BA0000E94FF168091610381FF03C081EE0E94B5
:101BB000FD158091610385FF03C085EE0E94FD1530
:101BC0008091610380FF03C080EE0E94FD1580912B
:101BD000610384FF03C084EE0E94FD1580916103C0
:101BE00082FF03C082EE0E94FD158091610386FF93
:101BF00003C086EE0E94FD158091610383FF03C040
:101C000083EE0E94FD158091610387FF03C087EE7C
:101C10000C94FD150895EF92FF921F93CF93DF93DD
:101C20007C01CCE0D0E0C7010C2E02C096958795D0
:101C30000A94E2F7182F1F70812F0E94480A0E9411
:101C4000FD15812F0E94480A0E94FF162497CC3F61
:101C50008FEFD80741F7DF91CF911F91FF90EF9061
:101C60000895EF92FF920F931F93CF93DF93E901B3
:101C7000662309F44BC0242F30E0EFEFF0E0E61BC1
:101C8000F109B901E69F9001E79F300DF69F300DF5
:101C90001124232F8B01031B11095CE3E52EF12C8A
:101CA000B7010E94A331FB01BC01069FC001079F41
:101CB000900D169F900D1124B7010E94A331E230C0
:101CC000F105B1F040F4309779F0319711F5832F99
:101CD000242F461B21C0E430F105A1F068F03597B0
:101CE000C1F4842F861B18C0832F262F230F14C006
:101CF000862F830FE42F03C0E42FE61B842F432F8E
:101D00002E2F0AC0842F462F430F06C0842F242F66
:101D100003C080E020E040E0E42FF0E0EA54FA4F16
:101D20004491E22FF0E0EA54FA4F9491E82FF0E06A
:101D3000EA54FA4FE49149839883EA83DF91CF9183
:101D40001F910F91FF90EF90089588E090E00C9420
:101D5000D931AB01BC0188E090E00C94F731E2E6A8
:101D6000F3E083E08083109263038FEF82838383A9
:101D700060916203709163038091640390916503A5
:101D80000C94A90E6091620360FF06C066956F73A4
:101D900070E080E090E0089560E070E0CB0108958D
:101DA0008091620380FF06C06FE070E08AE693E0F6
:101DB0000C942114EAE6F3E0118210821282349628
:101DC00083E0E63AF807C1F7EFCF9091620390FF06
:101DD0000CC0EAE6F3E0818360834283349693E0AB
:101DE000E63AF907C1F70C94D00E0895EF92FF92EE
:101DF0000F931F93CF93DF9300D000D0CDB7DEB702
:101E00000091620310916303209164033091650394
:101E1000009366031093670320936803309369036C
:101E20002091620320FF21C0042FF62EE92E182FE7
:101E30009E012F5F3F4F0E94310E8091660310FB81
:101E400087F9809366031695809167038078182B35
:101E5000E0FA17F910936703F0926803009369039F
:101E60004B8169818A810E94E50E0F900F900F903F
:101E70000F90DF91CF911F910F91FF90EF900895F8
:101E80008F929F92AF92BF92CF92DF92EF92FF928A
:101E90000F931F93CF93DF93EC01062F142F8091A4
:101EA000620380FF8CC0982F9E77923021F4CE0180
:101EB0000E94F60E5AC0E82FE695EF739EE39E0F40
:101EC0009F73943018F4109165034FC09AE39E0FEE
:101ED0009F73993070F4881F8827881F909163033F
:101EE000292F220FC22FC82B97FB992790F9D92FA2
:101EF0003CC087E28E0F8F738A30B8F5F0E0799797
:101F0000E0FD02C021E001C02FEFEE7FE456FA4F62
:101F1000859194916FE070E00E94A33126036001E7
:101F2000279FD00C11244E0188E9881A8EEF980A59
:101F30008AE6E82E83E0F82E98E6A92EBB24B39417
:101F4000C401B5010E94A3319701412F602F0E9467
:101F5000310E8C0C9D1C94E0E90EF11C86EAE8160B
:101F600083E0F80669F70E94D00E809162039C2FEF
:101F7000C0FB87F980936203969580916303807814
:101F8000892BD0FB87F9809363030093640310933C
:101F90006503609162037091630380916403909183
:101FA0006503DF91CF911F910F91FF90EF90DF902C
:101FB000CF90BF90AF909F908F900C94A90EDF911F
:101FC000CF911F910F91FF90EF90DF90CF90BF9036
:101FD000AF909F908F900895E2E6F3E02081221F5A
:101FE0002227221F30916303432F440F842F822B1B
:101FF00037FB992790F90C9668E671E00E94B7319B
:10200000438162810C94400F20916203221F22279A
:10201000221F30916303432F440F842F822B37FB01
:10202000992790F98C3091051CF4845A9E4F05C075
:102030000C9768E671E00E94B731409165036091AA
:1020400064030C94400FE2E6F3E08081881F882748
:10205000881F90916303292F220F97FB992790F9EE
:1020600043816FEF822B0C94400FE2E6F3E0808116
:10207000881F8827881F90916303292F220F97FBC1
:10208000992790F9438160E0822B0C94400F409196
:102090006503842F90E0843F910514F4445F01C0F0
:1020A0004FEF80916203881F8827881F90916303F8
:1020B000292F220F97FB992790F960916403822BB7
:1020C0000C94400F40916503842F90E00C9714F01E
:1020D0004C5001C040E080916203881F8827881F10
:1020E00090916303292F220F97FB992790F9609114
:1020F0006403822B0C94400F9091620390FF42C0C6
:102100009178811102C0926007C0833210F094640C
:1021100003C08F73880F982B9093620360916203C2
:102120007091630380916403909165030E94A90EEE
:1021300080916203982F9E77923019F410926C026E
:1021400010C0982F96959F732EE3290F2F73273178
:1021500020F491E090936C0204C0995D9F739A30D3
:1021600068F3881F8827881F90916303292F220F07
:1021700097FB992790F94091650360916403822B46
:102180000C94400F08958091300381608093300358
:1021900081E080936D020E943821811104C00E9469
:1021A00017210E94AF0E0E94A50E609362037093E8
:1021B000630380936403909365036E7761F40E94D8
:1021C000AF0E0E94A50E6093620370936303809329
:1021D00064039093650381E080936C0280916203B5
:1021E00080FF04C086958F730C947C1008958091B5
:1021F000620386958F738F5F833208F081E00C94C1
:102200007C108091620386958F73815009F482E27D
:102210000C947C10CF93DF93C2E6D3E08881816079
:10222000888360916203709163038091640390914D
:1022300065030E94A90E888186958F73DF91CF91E7
:102240000C947C10E2E6F3E080818E7F80836091C5
:1022500062037091630380916403909165030E940F
:10226000A90E10926C022FEF80E792E0215080407F
:102270009040E1F700C000000C94D00E8091620302
:1022800080FD0C9422110C940A11CF93C82F8091D9
:102290006A0290916B020E945422EC2FF0E0EE54FF
:1022A000FA4FE491F0E08E179F0708F443C00E94B4
:1022B000482290936B0280936A026091690270E0F9
:1022C00080E090E00E94A42F20E030E04FE753E44C
:1022D0000E94C72E2BED3FE049E450E40E94CD3030
:1022E0000E943A310E94412F2BE43AE34EE25FE331
:1022F0000E945A2E20EF3BEF48ED52E40E94CD3071
:102300000E94732F462F80916203881F8827881FA1
:1023100090916303292F220F97FB992790F96091E1
:102320006403822B0E94F60E8091690290E0019670
:1023300080936902CF910895CF93C82F809167024F
:10234000909168020E945422EC2FF0E0E155FA4F80
:10235000E491F0E08E179F07E8F00E9448229093E6
:1023600068028093670240916503609164038091E5
:102370006502909166020E94F60E8091650290912E
:102380006602019668E671E00E94A33190936602AE
:1023900080936502CF910895CF92DF92FF920F93C1
:1023A0001F93CF93DF93F82E809163029091640284
:1023B0000E945422EF2DE695F0E0E455FA4FE491A7
:1023C000F0E08E179F07B8F10E94482290936402B4
:1023D000809363020AE613E0C0E0D0E088E6C82EEE
:1023E000DD24D39480916102909162028C0F9D1F35
:1023F000B6010E94A3319801409165036091640386
:102400000E94310E68960C5F1F4FC83681E0D807D6
:1024100049F70E94D00E8091610290916202F0FE15
:1024200005C00196BE010E94A33101C0019790939F
:10243000620280936102DF91CF911F910F91FF9013
:10244000DF90CF900895CF92DF92EF92FF920F939B
:102450001F93CF93DF93C82F80FF02C01FEF01C0EF
:1024600011E080915F02909160020E945422C69513
:10247000EC2FF0E0E755FA4FE491F0E08E179F075C
:1024800008F45BC00E9448229093600280935F0230
:102490002AE6E22E23E0F22EC0E0D0E0F70111821E
:1024A0001082128294E0C92ED12C00E080915E024D
:1024B000800F87FD815F082E000C990BC817D90784
:1024C000E9F4809165038C9DA0018D9D500D112430
:1024D000559547955595479580916203881F8827A4
:1024E000881F90916303592F550F97FB992790F9F7
:1024F000970160916403852B0E94310E010FF1E07A
:10250000CF1AD10899F6219684E0E80EF11CCF305D
:10251000D10521F60E94D00E80915E02113031F477
:10252000811102C08EE007C0815005C090E0019685
:10253000BE010E94B73180935E02DF91CF911F915F
:102540000F91FF90EF90DF90CF9008950F931F931E
:10255000CF93DF93C82F80915C0290915D020E941F
:102560005422EC2FF0E0EA55FA4FE491F0E08E1798
:102570009F0708F456C00E94482290935D02809302
:102580005C02CAE6D3E0FE01118210821282349608
:1025900083E0E63AF807C1F700E010E080915B02C3
:1025A000082E000C990B08171907ECF08091020116
:1025B000082E000C990B80179107ACF080916203F4
:1025C000881F8827881F90916303592F550F97FB09
:1025D000992790F99E014091650360916403852BD2
:1025E0000E94310E03C0198218821A820F5F1F4F9A
:1025F00024960F30110591F60E94D00E80910101B2
:1026000090915B02980F90935B0220910201280F3A
:1026100020930201121614F49E301CF081958093D1
:102620000101DF91CF911F910F910895EF92FF92D9
:102630000F931F93CF93DF938091590290915A0289
:102640000E945422883E9340D0F10E9448229093E9
:102650005A0280935902C0915702D0915802219694
:10266000C170DD27D0935802C09357028AE6E82E46
:1026700083E0F82E10E008E7812F8695FE01E80F31
:10268000F11DCF01817099279701409165036091F9
:102690006403FC010E9FC0010F9F900D11240E9446
:1026A000310E1F5FF4E0EF0EF11C1F3029F7DF91B0
:1026B000CF911F910F91FF90EF900C94D00EDF916E
:1026C000CF911F910F91FF90EF90089580916C0230
:1026D000882391F190916203892F86958F732EE361
:1026E000280F2F73243018F482500C9445112AE3DC
:1026F000280F2F73233018F486500C949C1127E375
:10270000280F2F73263018F489500C94CC1121E334
:10271000280F2F73263018F48F500C9423122BE2BD
:10272000280F2F73233018F485510C94A6129E772E
:10273000903311F40C9416130895882319F05198CE
:10274000599A02C0519A59985098589A95E09A957A
:10275000F1F70000509A589895E09A95F1F700002B
:10276000882311F0519A599885E08A95F1F7000075
:1027700008958BB18C7F8BB95098589A5198599A7B
:1027800085E08A95F1F7000008958AB18C7F8AB9B7
:1027900085E08A95F1F70000519A599885E08A956D
:1027A000F1F70000509A589885E08A95F1F70000FB
:1027B00008955098589A85E08A95F1F7000051984D
:1027C000599A85E08A95F1F700000895CF93DF9339
:1027D000D82FC8E08D2F80780E949D13DD0FC15047
:1027E000C9F780E00E949D1385E08A95F1F700000B
:1027F00085E08A95F1F7000080E0DF91CF910895A0
:102800002BB1342F309523233BB1432B3FB7F894A2
:10281000FC01680F791FE617F70789F0819198E0AE
:102820004BB9000000C087FF2BB9880F000000C023
:1028300000C000C02BB900C09A9591F7ECCF3FBF04
:102840000895AF92BF92CF92DF92EF92FF920F93D3
:102850001F93CF93DF938C01EB01CFB6D090BC00D8
:10286000F8948091BC008B7F8093BC000E94B913C8
:102870000E94C51384E80E94E613CC0FDD1FCC0F25
:10288000DD1F78015801AC0EBD1EEA14FB0431F0C7
:10289000F70181917F010E94E613F7CF0E94D913BF
:1028A000CFBED092BC00579A40E8BE01C801DF916C
:1028B000CF911F910F91FF90EF90DF90CF90BF903D
:1028C000AF900C9400149093730280937202089559
:1028D000E0917202F0917302309721F00190F08143
:1028E000E02D099480E00895E0917202F091730266
:1028F000309721F00280F381E02D09940895E09152
:102900007202F0917302309721F00480F581E02D7E
:1029100009940895209170023091710228173907A7
:1029200071F09093710280937002E0917202F091C5
:102930007302309721F00680F781E02D0994089505
:1029400020916E0230916F022817390771F0909331
:102950006F0280936E02E0917202F09173023097E1
:1029600021F00084F185E02D0994089508950C94D8
:10297000B61481E008950E943F220E942E050E9415
:10298000D6220C94C310BF92CF92DF92EF92FF92A7
:102990000F931F93CF93DF93CDB7DEB72A970FB670
:1029A000F894DEBF0FBECDBF0E9494050E94B914FB
:1029B000811111C08FEF89838A831B820E94482274
:1029C0008160782F9D838C8349815A816B818D81B1
:1029D0000E94A81554C085E7C82E82E0D82E00E0DA
:1029E00010E0B02E802F0E94F405E82EF601219110
:1029F0006F01F82EF22631F40F5F1F4F0E301105D4
:102A000081F7D8CF8091300381FD0E94FA0580E0E4
:102A100090E02F2D30E0482FB901082E02C07595A7
:102A200067950A94E2F760FF25C08E83BF8281E03C
:102A300090E06C0102C0CC0CDD1C4A95E2F72E2D13
:102A400030E02C213D21232B09F480E088870E946F
:102A500048228160782F9A8789874E815F816885B7
:102A60008A850E94A815F801EB58FD4F80818C25BE
:102A7000808305C001968630910569F6BDCF0E941E
:102A800069240E946814909174028917A9F00E9429
:102A90006814809374022A960FB6F894DEBF0FBEB6
:102AA000CDBFDF91CF911F910F91FF90EF90DF90FD
:102AB000CF90BF900C94590A2A960FB6F894DEBFB7
:102AC0000FBECDBFDF91CF911F910F91FF90EF907F
:102AD000DF90CF90BF900895DC0111962C91119753
:102AE0008C91682F70E041E050E001C0440F8A955E
:102AF000EAF712968C91129730E0882329F08091A2
:102B000093028823E9F006C0F901ED57FD4F90814B
:102B10009423B1F086E0829FF001839FF00D112491
:102B2000E60FF71FEE0FFF1FEB5EFE4F80819181D6
:102B30008D939C93F901ED57FD4F8081482B06C082
:102B4000F901ED57FD4F409580814823408308955A
:102B5000CF93DF93CDB7DEB72B970FB6F894DEBFD8
:102B60000FBECDBF942F4F83252F588769877A8753
:102B70008B874A855B85452B31F02F3F31F481E00F
:102B80009F3F19F403C081E001C080E080FD04C0D4
:102B9000CE0107960E946C15DE01119686E0FD01BC
:102BA00011928A95E9F785E0FE01379601900D9222
:102BB0008A95E1F749815A816B817C818D819E8163
:102BC0000E942B1D2B960FB6F894DEBF0FBECDBF13
:102BD000DF91CF910895FC01808191810E94FC1FBB
:102BE00092959F70963041F48091930291E08927ED
:102BF00080939302909392020895CF93882309F4CF
:102C0000FCC0C82F8238C1F40E94681481FDF5C051
:102C100069E380910301909104010E94B1210E9417
:102C20005B202FEF81EE94E0215080409040E1F74F
:102C300000C0000069E319C0833801F50E946814E0
:102C400080FDDBC063E580910301909104010E9447
:102C5000B1210E945B202FEF81EE94E02150804053
:102C60009040E1F700C0000063E58091030190917E
:102C700004010E94BC21CF910C945B208438C1F4E4
:102C80000E94681482FDB9C067E4809103019091AD
:102C900004010E94B1210E945B202FEF81EE94E09D
:102CA000215080409040E1F700C0000067E4DDCF94
:102CB0008CEF8C0F813A68F48C2F0E948D26811145
:102CC0009CC06C2F80910301909104010E94B1215E
:102CD000D2CF80E28C0F883048F4C77081E001C009
:102CE000880FCA95EAF70E949120C5CF8BE58C0F1B
:102CF000833078F4C53A29F0C63A31F083E890E0A1
:102D000005C081E890E002C082E890E0CF910C9489
:102D10008A1488E58C0F853108F06FC0C83A61F1DC
:102D2000C93A69F1CA3A71F1CB3A79F1CC3A81F1F9
:102D3000CB3B89F1CC3B91F1CD3A99F1C03BA1F16C
:102D4000CE3AA9F1CF3AB1F1C13BB9F1C23BC1F1E1
:102D5000C33BC9F1C43BD1F1C53BD9F1C63BE1F15D
:102D6000C73BE9F1C83BF1F1C93BF9F1CA3B09F4B2
:102D70003FC080E090E03EC082EE90E03BC089EE34
:102D800090E038C08AEE90E035C085EB90E032C02C
:102D900086EB90E02FC083EB90E02CC084EB90E0BA
:102DA00029C087EB90E026C08CEC90E023C08DEC2E
:102DB00090E020C083E891E01DC08AE891E01AC04D
:102DC00082E991E017C084E991E014C081E292E0C9
:102DD00011C083E292E00EC084E292E00BC085E273
:102DE00092E008C086E292E005C087E292E002C06D
:102DF0008AE292E0CF910C94A014CF910895882399
:102E000009F45BC0682F823879F40E94681481FF4E
:102E100054C069E380910301909104010E94B121A3
:102E20000E945B2069E310C08338B1F40E946814EB
:102E300080FF43C063E580910301909104010E94EB
:102E4000B1210E945B2063E5809103019091040110
:102E50000E94BC210C945B20843879F40E94681491
:102E600082FF2BC067E480910301909104010E94CE
:102E7000B1210E945B2067E4E7CF8CEF860F813A97
:102E800018F380E2860F883048F4677081E001C053
:102E9000880F6A95EAF70E949720DCCF8BE5860FB2
:102EA000833020F480E090E00C948A14685A6531F5
:102EB00020F480E090E00C94A0140895882321F081
:102EC0000E9491200C945B200895882321F00E9499
:102ED00097200C945B2008958F929F92AF92BF929F
:102EE000DF92EF92FF920F931F93CF93DF937C01BA
:102EF000D62FC72FFC01058102950F701281111189
:102F00000E94AE200E945420882379F0112369F09A
:102F100080E28D0F883048F082E00E943D200E94C0
:102F2000542091E0D82ED92601C0D12CBC2EB294C9
:102F30008FE0B8228B2D90E0FC01E159FF4F0C94FB
:102F4000CB318C2F807FCF70882311F0C295C07F4A
:102F5000112399F0CC2309F4B8C180E28D0F883099
:102F600010F0D11104C08C2F0E94912003C08C2F2F
:102F70000E94A1200E945B20A8C18D2F0E94FF16F5
:102F8000CC2309F41EC280E28D0F883010F0D111DD
:102F900004C08C2F0E94972003C08C2F0E94A72072
:102FA0000E945B200EC28C2F807FCF70803211F088
:102FB000C295C07FDD2319F0D130A9F01DC01123C7
:102FC00051F08C2F002309F439C1013009F036C1CA
:102FD0000E94C120F6C1002319F0013009F4F1C1AB
:102FE0000E94C42011C0112321F0023008F0E9C171
:102FF00007C00111E6C108C0112321F0011165C10C
:103000008C2F1CC1011172C18C2F1EC18C2F869573
:103010008695837019F0813061F0D3C1112321F0BE
:103020008D2F9C2F937002C080E090E00E948A1444
:10303000D5C1112321F08D2F9C2F937002C080E009
:1030400090E00E94A014CAC11123F9F0D53F51F0BD
:10305000D63F71F0D43FA9F48091A6039091A703C5
:1030600081600BC08091A6039091A703826005C088
:103070008091A6039091A70384609093A703809307
:10308000A6038D2F0E9471231EC0D53F51F0D63F5D
:1030900071F0D43FA9F48091A6039091A7038E7F8D
:1030A0000BC08091A6039091A7038D7F05C08091EE
:1030B000A6039091A7038B7F9093A7038093A60309
:1030C0008D2F0E94D9230E945E2488C18C2F83708B
:1030D00009F04CC011117EC12D2F22952695277025
:1030E000220F220F6D2F6F70862F90E0A0E0B0E0CE
:1030F0004C015D01022E04C0880C991CAA1CBB1C4B
:103100000A94D2F7D4FF12C08FE090E0A0E0B0E0C4
:1031100004C0880F991FAA1FBB1F2A95D2F7BC01B4
:10312000CD01609570958095909503C060E070E04A
:10313000CB01C695C695C370C23051F080F46829A2
:1031400079298A299B29C13071F00E947A1E42C1D7
:10315000682979298A299B290E948C1E3BC10E94DB
:103160007A1EC501B4010E94681E34C1112319F0F2
:103170008C2F817001C08695882309F42BC12D2FD7
:10318000229526952770220F220F6D2F6F70862FA4
:1031900090E0A0E0B0E04C015D01022E04C0880C7C
:1031A000991CAA1CBB1C0A94D2F7D4FF12C08FE052
:1031B00090E0A0E0B0E004C0880F991FAA1FBB1FD9
:1031C0002A95D2F7BC01CD016095709580959095B8
:1031D00003C060E070E0CB01C695C695C370C230F5
:1031E00051F080F4682979298A299B29C13071F02E
:1031F0000E943F1FEFC0682979298A299B290E94D4
:10320000511FE8C00E943F1FC501B4010E942D1F3D
:10321000E1C08D2F90E0FC01E05EF109E531F105A0
:1032200008F04FC0E158FF4F0C94CB31DF708C2F6A
:103230008F71112331F00E94C61E8D2F0E945E17E0
:10324000C0C00E94E71E8D2F0E946517BAC01123CF
:1032500039F00111B6C08C2F8F710E940C1FB1C0C4
:10326000023008F0AEC0F7CF112339F08C2F8F71E8
:103270000E94C61EA6C01123C9F38C2F8F710E9415
:10328000E71E9FC0112329F08C2F8F710E94B11E61
:1032900098C00E94AC1E95C0112349F0CF718C2FAD
:1032A0000E94C61E63E08C2F0E9434208AC081E0F9
:1032B0000E943D20023008F484C082E00E943D203C
:1032C00080C0112331F0002389F28D2F0E94FD155B
:1032D00078C0002391F2D93349F4FFEF27EE83E061
:1032E000F15020408040E1F700C000008D2F0E9487
:1032F000FF1667C04C2F4F706D2FC7010E94B80694
:103300000E94D91D6BC0D23FB1F028F4D03F49F0E4
:10331000D13FF9F028C0D43FB9F058F0D53F71F053
:1033200022C0112309F447C09091930281E08927BC
:1033300008C081E01827109393023DC011113BC0D3
:1033400081E08093930237C0111135C0109293022F
:1033500032C0112329F080919202882329F329C0D9
:10336000002311F328C0809192020023C1F088232A
:1033700041F09091930281E089278093930210920B
:1033800092028D2F112319F00E94FD1514C00E9486
:10339000FF1686E0F70111928A95E9F70CC08823A1
:1033A00051F0111108C09091930281E08927809318
:1033B0009302109292024C2F4F706D2FC7010E9402
:1033C0005B0AF8E0BF1631F0BF1640F086EF8B0DB8
:1033D000823020F40E9468140E94590ADD20E1F036
:1033E0000E94302080FD18C0F70112820E942A201E
:1033F0000E94C61EC7010E94181A0E942A20DF914F
:10340000CF911F910F91FF90EF90DF90BF90AF9001
:103410009F908F900C94E71EDF91CF911F910F9199
:10342000FF90EF90DF90BF90AF909F908F900895A6
:103430000F931F93CF93DF93EC01988189812B81A8
:103440003C81232B31F08F3F31F481E09F3F19F411
:1034500003C081E001C080E080FD13C0CE010E9466
:103460002F07882371F0688179818A810E94072063
:103470008C010E94631F0E94561EB801CE010E945B
:103480006C17DF91CF911F910F9108950E94AE208C
:103490000E94BE2080910301909104010E94C721E7
:1034A0000E945B200E94F7240E945E2480E090E04E
:1034B0000E948A1480E090E00C94A0140E949E2048
:1034C0000C94461A0E94FC1FE92FE295EF704E2FD4
:1034D00050E0FA013297EE30F105B0F4EC56FF4FB0
:1034E0000C94CB31803F91F018F4803E68F40EC00C
:1034F000843F51F40BC0803E48F0813F29F406C060
:1035000093FB882780F9089580E0089581E008956D
:10351000CF93DF9300D000D01F92CDB7DEB70F90CE
:103520000F900F900F900F90DF91CF910895CF9350
:10353000DF9300D000D000D0CDB7DEB726960FB60F
:10354000F894DEBF0FBECDBFDF91CF9108951F93DA
:10355000CF93DF93C091940216E080919502C81733
:1035600099F0D0E01C9FF0011D9FF00D1124EA5648
:10357000FD4F4081518162817381848195810E94D8
:10358000971A2196C770E9CFDF91CF911F910895C7
:103590004091C6025091C7026091C8027091C90261
:1035A0008091CA029091CB020C94971ACF9380918C
:1035B000CB0282958F7009F05FC08091C80288238A
:1035C00009F45AC080919402B09195027091C6029C
:1035D000A091C7024091C9025091CA0291E07F3F79
:1035E00009F090E0692FC6E08B1709F445C041153A
:1035F000510521F0AF3F21F020E003C021E001C0E0
:10360000262F90E020FD35C0C89FF001C99FF00D26
:103610001124EA56FD4F21812A132BC02081271344
:1036200028C02281211125C0238134812417350728
:1036300010F421503109241B350B283C3105C8F406
:103640002091CB022F7020612093CB0226E0289F8F
:10365000F001299FF00D1124E556FD4F80818F70F8
:103660008061808386EC92E00E94181ACF910C94BE
:10367000A71A01968770B8CFCF910895AF92BF92E5
:10368000CF92DF92EF92FF920F931F93CF93DF932E
:10369000CDB7DEB761970FB6F894DEBF0FBECDBFD2
:1036A0008C0185E0F801DE011D9601900D928A954E
:1036B000E1F7D8014C9111965C9111971296EC901C
:1036C0003091C6026091C7028091C9029091CA02EE
:1036D000009731F06F3F31F421E03F3F19F403C010
:1036E00021E001C020E0B22FB170BB2E20FD60C1EF
:1036F000F801C380D480A090C802AA2009F4EEC0CB
:103700002091CB02C816D90628F0D601A81BB90B08
:10371000CD0104C0809590958C0D9D1DFF24F394E0
:10372000883C910580F0F12C207F09F09CC07C2D15
:10373000D98AC88A6E2D89890E94881A86EC92E0FF
:103740000E94181A2DC1822F807F09F054C0561391
:1037500014C0431312C0FE2CE1100FC02F70206163
:103760002093CB020E94C81A86EC92E00E94181A9D
:103770008091CB02F80185835CC1CD2831F05F3F99
:1037800031F481E04F3F19F403C081E001C080E0D3
:1037900080FD03C081E08E2502C080E090E0F82F1C
:1037A000F170FF2E80FF1CC0809194022091950241
:1037B00036E0821709F41AC190E0389FF001399F72
:1037C000F00D1124EA56FD4F6181561306C0608149
:1037D000461303C06281E61203C001968770E9CFE9
:1037E000FE2CEE2009F425C18091CB0281608093EC
:1037F000CB02F12C1EC1561309C0431307C0E110C0
:1038000005C08091CB02F8018583A4C04D875E87F7
:103810008D859E850E94621A882379F1EE2069F1D8
:103820002091CB02822F82958F7090E0029774F0E6
:103830008091C6029091C70298878F831986DB8694
:10384000CA862C87CE0107960E94181A86E0F801D6
:10385000A6ECB2E001900D928A95E1F70E94D61A8B
:103860000E94C81A0DC0561771F04D875E878D856E
:103870009E850E94621A81111AC0C8010E94181AFE
:10388000FF24F394D6C04313F0CFE110EECF809124
:10389000CB02F8018583C8010E94181A86E0E6EC85
:1038A000F2E0DF011D928A95E9F7FA2CC2C0EE2002
:1038B00021F32091CB02822F82958F7090E00297A6
:1038C0002CF28091C6029091C7029A8389831B8251
:1038D000DD82CC822E83CE010196B6CFC816D906E2
:1038E00028F0F601E81BF90BCF0104C080959095F4
:1038F0008C0D9D1D883C910548F0F12C7C2DD98ABA
:10390000C88A6E2D89890E94881A4AC0FE2CEE2032
:1039100009F4B3CF561333C0431331C02091CB0207
:1039200020FD24C0822F82958F70482F50E04115D2
:103930005105E1F0D80115962C9315974F3051059C
:1039400049F08F5F982F9295907F822F8F70892BEF
:1039500015968C93C8010E94181A86E0F801A6EC0F
:10396000B2E001900D928A95E1F73DC086E0F80142
:10397000A6ECB2E001900D928A95E1F75AC04D870E
:103980005E878D859E850E94621A81115FCF80912E
:10399000CB0281608093CB02C8010E94181A49C0F3
:1039A000E6ECF2E086E0DF011D928A95E9F71BC0A4
:1039B000EE2009F462CF4D875E878D859E850E943B
:1039C000621AF82E882309F458CF86E0F801A6EC95
:1039D000B2E001900D928A95E1F786EC92E00E94A8
:1039E000EB150E94D61A0E94C81A23C04D875E8725
:1039F0008D859E850E94FC1F292F22952F702230D5
:103A000028F49F7039F0811105C00BC0243028F4D0
:103A10009F7049F4805E883020F0C8010E94181A17
:103A2000BF2CFB2C06C0D80115969C91907F91F776
:103A3000F8CF8F2D61960FB6F894DEBF0FBECDBFC5
:103A4000DF91CF911F910F91FF90EF90DF90CF907A
:103A5000BF90AF9008951F93CF93DF93CDB7DEB79C
:103A60002C970FB6F894DEBF0FBECDBF4F8358879B
:103A700069877A878B879C87CE0107960E943E1BB9
:103A80008823D1F09F8188852A853B85232B31F0BF
:103A90008F3F31F481E09F3F19F403C081E001C002
:103AA00080E080FD47C04F81588569857A858B8588
:103AB0009C850E94971A3EC086E0FE013796DE0183
:103AC000119601900D928A95E1F7FF81E8856A854C
:103AD0007B856115710531F0EF3F31F481E0FF3FE7
:103AE00019F403C081E001C080E080FD23C0209173
:103AF000950230E0C90101968770992740919402A0
:103B000050E084179507F1F1F983EA837D836C8394
:103B100096E0929FD001939FB00D1124AA56BD4FFD
:103B2000FE01319601900D929A95E1F780939502EE
:103B30000E94A71A16E0809194029091950289172D
:103B400071F1189FC00111248A569D4F0E943E1B9F
:103B5000882329F1E09194021E9FF0011124EA5676
:103B6000FD4F4081518162817381848195810E94E2
:103B7000971A8091940290E001968770992780931C
:103B80009402D9CF0E945E1A10929502109294026C
:103B9000E6ECF2E086E0DF011D928A95E9F72C96CB
:103BA0000FB6F894DEBF0FBECDBFDF91CF911F914E
:103BB0000895EF92FF920F931F93CF93DF938C01A1
:103BC000892B09F46CC0F12CEE24E394E8012196D2
:103BD000F8018491843740F4843008F051C081307A
:103BE00081F0823019F15BC0853709F444C0A8F137
:103BF0009CE7980F903708F052C08F770E94FF160D
:103C000041C00E5F1F4FFE01849190E2980F9830E3
:103C100050F48770FE2D01C0FF0F8A95EAF78F2FB1
:103C20000E94B12014C00E94FD152DC00E5F1F4FD1
:103C3000FE01849190E2980F983060F48770FE2D19
:103C400001C0FF0F8A95EAF78F2F0E94B7200E94CC
:103C50005B2019C00E94FF1616C00E5F1F4FFE01A9
:103C6000C491CC2381F08FE99FE00197F1F700C068
:103C70000000C150F6CF0E5F1F4FFE01F49003C04D
:103C80000E94FD158E018F2D882309F49FCFEFE947
:103C9000FFE03197F1F700C000008150F5CFDF91D0
:103CA000CF911F910F91FF90EF900895089508957F
:103CB0000C94571E0E94581E6093070370930803CC
:103CC0008093090390930A030C94461A0C945A1E8D
:103CD0000F931F930091070310910803209109038C
:103CE00030910A03602B712B822B932B1F910F9124
:103CF0000C945A1E0F931F93009107031091080311
:103D00002091090330910A036023712382239323B6
:103D10001F910F910C945A1E0F931F93009107034C
:103D2000109108032091090330910A03602771273D
:103D3000822793271F910F910C945A1E0C94571EA3
:103D40000E949E1E609303037093040380930503F7
:103D5000909306030C94461A60E070E0CB010C943B
:103D6000A01E0F931F9341E050E060E070E08A01D5
:103D70009B0104C0000F111F221F331F8A95D2F729
:103D8000C901B8011F910F910C94A01E0F931F93AE
:103D900041E050E060E070E004C0440F551F661F32
:103DA000771F8A95D2F78091030390910403A09125
:103DB0000503B09106038A019B01082B192B2A2BBE
:103DC0003B2BC901B8011F910F910C94A01E0F93BA
:103DD0001F9341E050E060E070E004C0440F551FC5
:103DE000661F771F8A95D2F740955095609570951C
:103DF0008091030390910403A0910503B091060301
:103E00008A019B01082319232A233B23C901B801F6
:103E10001F910F910C94A01E0F931F9341E050E04F
:103E200060E070E004C0440F551F661F771F8A953D
:103E3000D2F78091030390910403A0910503B09100
:103E400006038A019B01082719272A273B27C90156
:103E5000B8011F910F910C94A01E0F931F93009116
:103E60000303109104032091050330910603602B96
:103E7000712B822B932B1F910F910C94A01E0F93EB
:103E80001F930091030310910403209105033091C7
:103E9000060360237123822393231F910F910C94B7
:103EA000A01E0F931F930091030310910403209110
:103EB00005033091060360277127822793271F91FE
:103EC0000F910C94A01E0895292F220F920F990F85
:103ED000890FE82FE695E695E695877051E001C0D9
:103EE000550F8A95EAF785E0E89FF0011124E45325
:103EF000FD4F20E030E070E04081CB01022E02C097
:103F0000969587950A94E2F7817081958427852399
:103F1000842781932F5F3F4F2530310569F708953E
:103F2000292F220F920F990F890F682F669566959A
:103F30006695982F977085E0689FB001112440E046
:103F400050E080E0FB01E40FF51FE453FD4F2081BA
:103F500030E0092E02C0369527950A94E2F72170C9
:103F60003327042E01C0220F0A94EAF7822B4F5FF9
:103F70005F4F4530510531F70895CF92DF92EF92B0
:103F8000FF920F931F93CF93DF938C01C090030395
:103F9000D0900403E0900503F0900603809107039E
:103FA00090910803A0910903B0910A03C82AD92A65
:103FB000EA2AFB2ACFE1D0E0D701C6010C2E04C0CB
:103FC000B695A795979587950A94D2F780FD04C07A
:103FD000219790F780E007C0B8018C2F0E94770AE4
:103FE0000197B1F38C2FDF91CF911F910F91FF902B
:103FF000EF90DF90CF900895CF93DF93EC010E9474
:10400000BD1FBE010E94770ADF91CF9108951F93D3
:10401000CF93DF93EB0190919102992321F0CB0193
:104020000E94FC1F13C0882349F0CB010E94BD1FD2
:10403000182F682FCE010E94641F04C0CB010E947C
:10404000901F182FBE01812F0E94770ADF91CF9118
:104050001F91089580910B03859585958595089509
:1040600080910B038770089598E0899F9001112437
:10407000262B20930B030C94C61E20910B038095D6
:10408000822380930B03982F977069F430E0482FB8
:10409000082E000C550B2417350729F085958595BA
:1040A00085950C94E71E089590910B03977081E01D
:1040B00009F480E00895E0910301F09104018091FA
:1040C0002F038083E0910301F0910401908180919E
:1040D0002E03892B8083E0910301F09104019081EC
:1040E00080912D03892B808380910C03882381F09C
:1040F000E0910301F09104019081892B80838091EC
:104100000301909104010E945421811110920C032B
:1041100080910301909104010C94741480912F03F9
:10412000089590912F03892B80932F0308958095F4
:1041300090912F03892380932F03089510922F03CA
:10414000089590912E03892B80932E0308958095D6
:1041500090912E03892380932E03089510922E03AD
:10416000089590912D03892B80932D0308958095B8
:1041700090912D03892380932D03089510922D0390
:10418000089580930C03089510920C030895CF9224
:10419000DF92EF92FF926C01EE24FF24C114D10450
:1041A000E104F10421F0C701B60120E101C020E0E3
:1041B000C72ED82EE92EFF24C114D104E104F10446
:1041C00019F0285FC701B6016B017C0154E0F69439
:1041D000E794D794C7945A95D1F7C114D104E10458
:1041E000F10419F02C5FC701B6016B017C0142E0BC
:1041F000F694E794D794C7944A95D1F7C114D104A3
:10420000E104F10419F02E5FC701B601DC01CB0116
:10421000B695A79597958795892B8A2B8B2B09F0B7
:104220002F5F822FFF90EF90DF90CF9008956DEE7B
:104230007EEF80E090E00E94033260E082E090E058
:104240000E94E53160E083E090E00E94E53160E0AB
:1042500084E090E00E94E53160E085E090E00E941B
:10426000E53140E050E0BA0188E090E00C94F7318D
:1042700080E090E00E94DF3121E08D3E9E4F09F00A
:1042800020E0822F089582E090E00C94D13183E009
:1042900090E00C94D13184E090E00C94D131682FFF
:1042A00084E090E00C94E531FC0131969C01205EA5
:1042B0003F4F80E0919191118F5FE217F307D1F7A3
:1042C00008959C01FC0132969FEF80E041914617D2
:1042D00089F09F3F19F4411101C0982F8F5F8E31F3
:1042E000A9F79F3F39F0F901E90FF11D97FDFA9504
:1042F0006283089508959C01225E3F4FFC01428134
:10430000461301C01282019682179307B9F70895E8
:10431000262F2695269526952F3169F0FC01E20F70
:10432000F11D677021E030E001C0220F6A95EAF7C5
:104330008181282B21830895262F26952695269561
:104340002F3171F0FC01E20FF11D677021E030E0C8
:1043500001C0220F6A95EAF72095818128232183E5
:10436000089520911401222329F02091AC0327FD08
:104370000C9488210C94612120911401222329F0AE
:104380002091AC0327FD0C949C210C947B21FC0113
:10439000319680961192E817F907E1F70895809118
:1043A000B203843039F11092310320E488E190E0C7
:1043B0000FB6F894A895809360000FBE209360001C
:1043C00080E00E94590A83B7817F846083BF83B7EE
:1043D000816083BF7894889583B78E7F83BF0FB643
:1043E000F894A89580916000886180936000109295
:1043F00060000FBE08950895CF930E9447050E9464
:1044000094050E94FB21C0E08C2F0E94F4058111CD
:1044100004C0CF5FCE30C1F701C081E0CF910895D5
:104420000E945E1A0E9468140C94590A1F920F92FF
:104430000FB60F9211248F939F93AF93BF938091E8
:104440003103811113C08091A8039091A903A09119
:10445000AA03B091AB034196A11DB11D8093A8039F
:104460009093A903A093AA03B093AB03BF91AF911C
:104470009F918F910F900FBE0F901F90189582E023
:1044800084BD93E095BD9AEF97BD80936E0008952B
:104490002FB7F8948091A8039091A903A091AA0343
:1044A000B091AB032FBF0895CF92DF92EF92FF92AE
:1044B0000F931F932FB7F8944091A8035091A9032D
:1044C0006091AA037091AB032FBF6A017B01EE24B8
:1044D000FF248C0120E030E0C016D106E206F3068E
:1044E00010F4415051099A01281B390BC9011F9141
:1044F0000F91FF90EF90DF90CF90089578941F92E6
:104500000F920FB60F9211248F939F93AF93BF9387
:104510008091A8039091A903A091AA03B091AB0345
:104520000196A11DB11D8093A8039093A903A093A8
:10453000AA03B093AB03BF91AF919F918F910F905E
:104540000FBE0F901F901895F89481E08093E000C3
:1045500080E28093D800E9ECF0E010828FE19EE4E5
:104560000197F1F700C000001DBA109268001CBC52
:1045700010BE1FBA10927A0010926E0010926F0057
:1045800010927100109272001082ECEBF0E0108239
:1045900014B817B81AB81DB810BA108215B818B8E0
:1045A0001BB81EB811BA0C94003F08950E94382120
:1045B000811102C00E9417210E9443218093300381
:1045C0000E944B2190E09093AD038093AC030E9436
:1045D0004721682F70E080E090E00C94661E809187
:1045E000350380FF0BC06091080185E0689FB00132
:1045F000112475956795759567952BC081FF09C046
:104600006091080185E0689FB00111247595679558
:1046100020C082FF07C06091080185E0689FB0015B
:10462000112417C0909136039923D1F060910701AE
:10463000961788F72091080185E0289F90011124A2
:10464000929FA001939F500D112470E0CA010E9417
:10465000B7316038710540F46115710519F406C071
:1046600065E070E0862F08958FE7089581E0089552
:104670008091350380FF08C06091060170E0759558
:1046800067957595679521C081FF06C06091060109
:1046900070E07595679519C082FF04C060910601AE
:1046A00070E010C090913603992399F06091050154
:1046B0009617A0F780910601899FC001112470E030
:1046C0000E94B7316038710540F46115710519F425
:1046D00006C061E070E0862F08958FE7089581E0BD
:1046E0000895803F21F40E94EF22819504C0813F0C
:1046F00029F40E94EF22809339030895823F21F428
:104700000E94EF22819504C0833F29F40E94EF228A
:10471000809338030895893F19F40E94382305C017
:104720008A3F31F40E943823819580933A0308959B
:104730008B3F21F40E943823819504C08C3F29F4DB
:104740000E94382380933B030895843F21F4809195
:104750003703816017C0853F21F480913703826061
:1047600011C0863F21F48091370384600BC0873FDE
:1047700021F480913703886005C0883F31F480912F
:10478000370380618093370308958D3F21F4809132
:10479000350381600BC08E3F21F480913503826028
:1047A00005C08F3F29F480913503846080933503E1
:1047B0000895803F39F48091390387FF6CC01092CF
:1047C000390369C0813F29F4809139031816BCF37D
:1047D00062C090913803823F29F497FF5CC0109229
:1047E000380359C0833F19F41916CCF354C0893FDC
:1047F00041F480913A0318160CF04DC010923A0320
:104800004AC08A3F29F480913A0387FF44C0F6CF1B
:104810008B3F39F480913B0387FF3DC010923B03EF
:104820003AC08C3F29F480913B031816BCF333C087
:10483000843F21F4809137038E7F17C0853F21F498
:10484000809137038D7F11C0863F21F4809137031B
:104850008B7F0BC0873F21F480913703877F05C092
:10486000883F31F4809137038F7E8093370313C0E4
:104870008D3F21F4809135038E7F0BC08E3F21F454
:10488000809135038D7F05C08F3F29F480913503DA
:104890008B7F809335038091380381110EC0809106
:1048A000390381110AC080913A03811106C08091B9
:1048B0003B03811102C010923603089587E393E011
:1048C0000E947F140E944822909333038093320306
:1048D00008951F93CF93DF93809132039091330318
:1048E0000E945422AC0190913603992321F020912B
:1048F000090130E006C0209134038AE0289F90012E
:1049000011244217530708F46EC080913803C091F8
:104910003903D0913A0310913B03811107C0C111B3
:104920005EC0D1115CC011115AC05DC09F3F19F02B
:104930009F5F90933603181624F40E94EF22809311
:1049400038038091380387FF05C00E94EF228195CC
:10495000809338031C1624F40E94EF2280933903BD
:104960008091390387FF05C00E94EF2281958093D3
:10497000390340913803442379F0309139033323CC
:1049800059F025EB4203A001112450933803320360
:10499000C0011124909339031D1624F40E9438237A
:1049A00080933A0380913A0387FF05C00E94382321
:1049B000819580933A03111624F40E943823809342
:1049C0003B0380913B0387FF05C00E9438238195FC
:1049D00080933B03DF91CF911F910C945E249F3F06
:1049E00009F0A6CFB7CFDF91CF911F910895E7E3EC
:1049F000F3E085E0DF011D928A95E9F71092360316
:104A0000109235030895833081F128F4813059F0F4
:104A10008230D1F00895853009F449C0B8F186306C
:104A200009F456C0089580913403262F30E0280FF2
:104A3000311D2F3F310524F4680F6093340308952E
:104A40008FEF80933403089580910901262F30E081
:104A5000280F311D2F3F310524F4680F60930901A1
:104A600008958FEF80930901089580910801262F02
:104A700030E0280F311D2F3F310524F4680F60937B
:104A8000080108958FEF8093080108958091070130
:104A9000262F30E0280F311D2F3F310524F4680FF9
:104AA0006093070108958FEF809307010895809127
:104AB0000601262F30E0280F311D2F3F310524F449
:104AC000680F6093060108958FEF809306010895A3
:104AD00080910501262F30E0280F311D2F3F310531
:104AE00024F4680F6093050108958FEF809305010A
:104AF0000895833011F128F4813049F0823091F02B
:104B00000895853081F120F18630C1F108958091BA
:104B10003403681720F4861B8093340308951092A1
:104B20003403089580910901681720F4861B80934F
:104B300009010895109209010895809108016817EC
:104B400020F4861B809308010895109208010895AF
:104B500080910701681720F4861B80930701089550
:104B600010920701089580910601681720F4861BB2
:104B70008093060108951092060108958091050121
:104B8000681720F4861B8093050108951092050193
:104B900008950F931F9341E050E060E070E08A01B8
:104BA0009B0104C0000F111F221F331F8A95D2F7EB
:104BB000C901B8010E94661E1F910F910C945E1AE4
:104BC000873208F04DC08E3108F08FC0803109F473
:104BD00079C008F5873009F467C068F4863009F0B9
:104BE0008BC080913003817F8E7F8093300381E082
:104BF00080933D0308958B3009F47AC08E3009F01C
:104C00007BC08091300382FB222720F991E092271C
:104C100090FB82F960C0863109F46AC088F4813162
:104C200009F06AC00E945E1A8091AC0387FB2227BC
:104C300020F991E0922790FB87F98093AC0358C04C
:104C4000893109F455C08B3109F056C08091300389
:104C500081FB222720F991E0922790FB81F93BC04C
:104C6000883309F445C048F4893209F443C08533D8
:104C700009F440C08732F1F13FC08334D9F120F408
:104C80008A33D0F1895332C08834B1F50E945E1A5C
:104C90002FEF83ED90E3215080409040E1F700C07A
:104CA00000000E94A42224C080913003982F909588
:104CB000917090FB80F980933003911119C0897F26
:104CC000877F10C08091300383FB222720F991E079
:104CD000922790FB83F980933003992349F08091C8
:104CE000300381608093300303C08D510E94C92539
:104CF00081E0089580E0FACF80E0089580E0089593
:104D00000C947E268E518A3030F4E82FF0E0E35484
:104D1000FE4F8081089580E00895CF93C82F809141
:104D20003D03813079F018F08230E9F185C0E091DF
:104D30000301F09104018081813169F0823209F030
:104D40007DC009C0E0910301F091040180818131AF
:104D500011F0823261F48C2F0E948026811104C0F0
:104D60008C2F0E94E0251DC081E090E01AC08C2F9E
:104D70000E947E26811114C0C43179F048F4CB30F2
:104D800079F0C03109F05EC082E080933D0308C035
:104D9000C93219F0C83321F055C010923D0352C0FA
:104DA00081E0817051C0C93279F108F5C43161F1F7
:104DB000A0F4C73009F044C01092340384E180931A
:104DC0000901C09308018CE38093070188E0809378
:104DD000060188E28093050133C082EE8C0F863095
:104DE00078F58C2F0E94822680933C0329C0CE3414
:104DF000E9F020F4CB3421F56AE013C0C13579F035
:104E0000C235F1F461E00DC080913C03882319F0B4
:104E100010923C0315C081E080933D0315C061E012
:104E200006C080913C030E9403250AC06AE080917D
:104E30003C030E94792504C010923D0380E004C029
:104E400081E002C080E0ADCFCF91089580915E03F4
:104E500008950F931F93CF93DF9300D01F92CDB788
:104E6000DEB78C010E949F29823011F0843019F541
:104E700083E089831B830A838093E9008FEF9091FD
:104E8000E800815095FD06C095ED9A95F1F7000078
:104E90008111F5CF8091E80085FF0DC040E050E022
:104EA00063E070E0CE0101960E94BC298091E80089
:104EB0008E778093E8000F900F900F90DF91CF9145
:104EC0001F910F910895CF93DF9300D01F92CDB71C
:104ED000DEB72091B203243031F522E029838058D7
:104EE00091099B838A8383E08093E9008FEF9091FF
:104EF000E800815095FD06C095ED9A95F1F7000008
:104F00008111F5CF8091E80085FF0DC040E050E0B1
:104F100063E070E0CE0101960E94BC298091E80018
:104F20008E778093E8000F900F900F90DF91CF91D4
:104F30000895CF93DF93EC010E949F29823011F0F6
:104F40008430F9F482E08093E9008FEF9091E800DB
:104F5000815095FD06C095ED9A95F1F700008111FD
:104F6000F5CF8091E80085FF0CC040E050E065E09F
:104F700070E0CE010E94BC298091E8008E7780937A
:104F8000E800DF91CF910895CF93DF93EC010E9469
:104F90009F29823019F0843009F047C080911401B4
:104FA0008823E1F08091AC0387FF18C084E08093F0
:104FB000E9008FEF9091E800815095FD06C095E1E2
:104FC0009A95F1F700008111F5CF8091E80085FFF7
:104FD0002CC040E050E060E270E017C081E08093B8
:104FE000E9008FEF9091E800815095FD06C095EDA6
:104FF0009A95F1F700008111F5CF8091E80085FFC7
:1050000014C040E050E068E070E0CE010E94BC298E
:105010008091E8008E778093E80080E2FE01AEE3A5
:10502000B3E001900D928A95E1F7DF91CF91089559
:105030008091B103811109C00E944D2B0E94AA2BBF
:105040008091E20084608093E20008951092B103A1
:105050000895089508950C94102242E061EC81E0D7
:105060000E94C62A42E061EC82E00E94C62A42E029
:1050700061EC83E00E94C62A42E261EC84E00C9479
:10508000C62A8091B403833009F455C030F48130CE
:1050900071F0823009F48EC008958A3009F47AC024
:1050A0008B3009F460C0893009F09CC020C0809129
:1050B000B303813A09F096C08091E800877F80931E
:1050C000E8008091B7039091B803892B21F460E246
:1050D0008EE393E003C060E080E090E070E00E9427
:1050E000072A8091E8008B778093E80008958091EB
:1050F000B303813209F076C08091B7039091B80371
:10510000009719F0039709F06DC08091E800877F40
:105110008093E8008091E80082FD05C08091B20391
:105120008111F8CF5FC08091F10080935E03809180
:10513000E8008B7753C08091B303813A09F052C0E5
:105140008091B7039091B803892B09F04BC08091EF
:10515000E800877F8093E8008091E80080FFFCCF23
:105160008091140136C08091B3038132D9F58091CA
:10517000B7039091B803892BA9F58091E800877F48
:105180008093E8000E94FB2A8091B503809314016C
:105190000C945E1A8091B303813221F58091E8006E
:1051A000877F8093E8000E94FB2A8091B60380935A
:1051B0005F0308958091B303813AA1F48091E800E0
:1051C000877F8093E8008091E80080FFFCCF80918A
:1051D0005F038093F1008091E8008E778093E80070
:1051E0000C94FB2A089584B7877F84BF0FB6F89488
:1051F000A8958091600088618093600010926000A3
:105200000FBE80E880936100109261000E94B71485
:105210000E944D2B0E94AA2B8091E2008460809313
:10522000E20078940E943F2E0E94BB148AE091E035
:105230000E9463148091B203853069F40E94CF21EB
:105240008091B0038823B1F30E94FC21882391F35D
:105250000E94A629EFCF0E94C3140E946613EACFD2
:105260000C943229292F332723303105C9F060F4FB
:105270002130310581F02230310509F047C08DE63B
:1052800090E020EF36E046C02132310511F12232A4
:10529000310561F13BC082E190E02DE537E03AC095
:1052A00099278130910561F040F08230910559F0E5
:1052B000039761F5E6EBF6E008C0ECEEF6E005C01A
:1052C000E4EDF6E002C0ECEBF6E0849190E09F01A3
:1052D00021C064307105D0F4660F771FFB01ED52D9
:1052E000FE4F2081318189E090E014C06430710567
:1052F00068F4FB01EE0FFF1FE553FE4F2081318163
:10530000FB01E953FE4F808190E004C080E090E013
:1053100020E030E0FA013183208308950895CF938F
:10532000C82F0E948E29C0936003CF910895809169
:10533000B203843011F081E0089582E008958091F5
:105340006003811102C00C949729089580E189BD02
:1053500082E189BD09B400FEFDCF8091D8008F7D28
:105360008093D8008091E00082608093E00080917B
:10537000E00081FDFCCF0895CF92DF92EF92FF9283
:105380000F931F93CF93DF93EC018B017A010E945F
:105390001A2B811133C0E114F10439F0F701808137
:1053A0009181081B190BC80FD91FC12CD12C0115D5
:1053B000110519F18091E80085FD16C08091E80083
:1053C0008E778093E800E114F10449F0F7018081C1
:1053D0009181C80ED91ED182C08285E00FC00E9483
:1053E0001A2B882321F30AC089918093F100015080
:1053F0001109FFEFCF1ADF0ADACF80E0DF91CF91FA
:105400001F910F91FF90EF90DF90CF900895209122
:10541000B9033091BA032617370748F061157105B3
:1054200039F42091E8002E772093E80001C0B901FB
:10543000FC0120E06115710579F18091B2038823A8
:10544000F1F18530F1F18091E80083FD3CC080915D
:10545000E80082FD2EC08091E80080FFEBCF209114
:10546000F3008091F20090E0922B6115710551F0EC
:105470008830910538F421912093F1006150710931
:105480000196F3CF21E0089709F020E08091E80031
:105490008E778093E800CECF2111CFCF0AC08091C4
:1054A000B203882361F0853061F08091E80083FDCC
:1054B0000AC08091E80082FFF2CF80E0089582E088
:1054C000089583E0089581E008952091B903309113
:1054D000BA032617370748F06115710539F4209192
:1054E000E8002E772093E80001C0B901FC0120E01C
:1054F0006115710591F18091B203882309F440C0D0
:10550000853009F43FC08091E80083FD3DC0809163
:10551000E80082FD2FC08091E80080FFE9CF209154
:10552000F3008091F20090E0922B6115710559F023
:105530008830910540F424912093F1003196615018
:1055400071090196F2CF21E0089709F020E08091DF
:10555000E8008E778093E800CBCF2111CCCF0AC032
:105560008091B203882361F0853061F08091E8007A
:1055700083FD0AC08091E80082FFF2CF80E00895A9
:1055800082E0089583E0089581E00895982F973090
:1055900068F59093E900981739F07091EC0020912C
:1055A000ED005091F00003C0242F762F50E021FD34
:1055B00002C09F5FECCF3091EB003E7F3093EB0059
:1055C0003091ED003D7F3093ED003091EB00316084
:1055D0003093EB007093EC002093ED005093F000BB
:1055E0002091EE0027FDE5CF80E008958F70809335
:1055F000E90081E008958091B30387FF11C0809195
:10560000E80082FD05C08091B2038111F8CF11C07E
:105610008091E8008B770BC08091B203882349F01A
:105620008091E80080FFF8CF8091E8008E7780932A
:10563000E80008952091E4003091E50095E640915E
:10564000EC00842F817040FF23C08091E80080FD32
:105650001DC08091B203882399F0853099F0809124
:10566000EB0085FD11C04091E4005091E500241746
:10567000350729F3915011F09A01E1CF84E00895A4
:1056800082E0089583E0089581E0089580E0089520
:105690004091E80042FFDDCF08950E94BB2B0E949D
:1056A000C32BE0EEF0E0808181608083E8EDF0E0E4
:1056B00080818F77808319BCA7EDB0E08C918E7FBD
:1056C0008C9380818F7E80831092B10308950F9315
:1056D0001F93CF93DF930E94BB2B0E94C32BC8ED77
:1056E000D0E088818F7788838881806888838881EB
:1056F0008F7D888319BC1092B2031092AE03109272
:10570000B0031092AF0300EE10E0F80180818B7FB0
:10571000808388818160888342E060E080E00E942D
:10572000C62AE1EEF0E080818E7F8083E2EEF0E039
:10573000808181608083808188608083F80180819E
:105740008E7F8083888180618883DF91CF911F91D4
:105750000F910895E8EDF0E080818F7E8083E7ED82
:10576000F0E080818160808384E082BF81E080936B
:10577000B1030C94672BE8EDF0E080818E7F80838D
:105780001092E20008951092DA001092E10008955C
:105790001F920F920FB60F9211242F933F934F93A6
:1057A0005F936F937F938F939F93AF93BF93EF9389
:1057B000FF938091E10082FF0BC08091E20082FFA5
:1057C00007C08091E1008B7F8093E1000E943E2E14
:1057D0008091DA0080FF1FC08091D80080FF1BC03D
:1057E0008091DA008E7F8093DA008091D90080FF6B
:1057F0000DC080E189BD82E189BD09B400FEFDCF05
:1058000081E08093B2030E94182805C019BC109251
:10581000B2030E9426288091E10080FF19C0809188
:10582000E20080FF15C08091E2008E7F8093E2004D
:105830008091E20080618093E2008091D8008062D4
:105840008093D80019BC85E08093B2030E942A2877
:105850008091E10084FF30C08091E20084FF2CC081
:1058600080E189BD82E189BD09B400FEFDCF809150
:10587000D8008F7D8093D8008091E1008F7E809347
:10588000E1008091E2008F7E8093E2008091E2004F
:1058900081608093E2008091AE03882311F084E060
:1058A00007C08091E30087FD02C081E001C083E072
:1058B0008093B2030E942B288091E10083FF29C0CE
:1058C0008091E20083FF25C08091E100877F809373
:1058D000E10082E08093B2031092AE038091E10078
:1058E0008E7F8093E1008091E2008E7F8093E200C2
:1058F0008091E20080618093E20042E060E080E01D
:105900000E94C62A8091F00088608093F0000E9477
:105910002928FF91EF91BF91AF919F918F917F9136
:105920006F915F914F913F912F910F900FBE0F900C
:105930001F9018951F920F920FB60F9211242F935C
:105940003F934F935F936F937F938F939F93AF9307
:10595000BF93CF93DF93EF93FF93C091E900CF7094
:105960008091EC00D82FD17080FDD0E81092E90032
:105970008091F000877F8093F00078940E94DE2C65
:105980001092E9008091F00088608093F000CD2BA8
:10599000CF70C093E900FF91EF91DF91CF91BF915C
:1059A000AF919F918F917F916F915F914F913F91B7
:1059B0002F910F900FBE0F901F9018951F93CF93AC
:1059C000DF93CDB7DEB7AA970FB6F894DEBF0FBE50
:1059D000CDBFE3EBF3E08091F100819323E0EB3B5B
:1059E000F207C9F70E9441288091E80083FF2EC189
:1059F0008091B3039091B403492F50E04A30510590
:105A000008F024C1FA01EE55FF4F0C94CB318038D9
:105A100021F0823809F01AC108C08091AF0390913B
:105A2000B003992389F082600FC08091B7038F7013
:105A3000873008F00BC18093E9008091EB0085FB73
:105A4000882780F91092E9009091E800977F909361
:105A5000E8008093F1001092F100D1C0282F2D7F33
:105A600009F0F4C0882319F0823061F0EFC0809112
:105A7000B503813009F0EAC0933009F080E08093EB
:105A8000B0032EC08091B50381112AC08091B70365
:105A90008F702FEF280F263008F0D8C08093E900D0
:105AA0002091EB0020FF1CC0933021F48091EB008B
:105AB000806214C09091EB0090619093EB0021E024
:105AC00030E0A90102C0440F551F8A95E2F74093C8
:105AD000EA001092EA008091EB0088608093EB006E
