:100000000C9497040C94B4040C94B4040C94B404AD
:100010000C94B4040C94B4040C94B4040C94B40480
:100020000C94B4040C94B4040C948E2F0C94603093
:100030000C94FB270C94B4040C94B4040C94B404F6
:100040000C94B4040C94B4040C94B4040C94B40450
:100050000C94B4040C9463280C94B4040C94B4046D
:100060000C94B4040C94B4040C94B4040C94B40430
:100070000C94B4040C94B4040C94B4040C94B40420
:100080000C94B4040C94B4040C94B4040C94B40410
:100090000C94B4040C94B4040C94B4040C94B40400
:1000A0000C94B4040C94B4040C94B4040A050D0527
:1000B00010051305160519051C05B81CB81CEA1C0B
:1000C000EA1C301D4E1D9F1EFD1E901D251E361E56
:1000D000361E961EFD1EFD1EF71E831F831F951FD5
:1000E000951F8C1F951F951F951F831F831F911FA1
:1000F000951F951F911FCD30F430EC31F430EC3169
:1001000040316331EC31BA31C93102E63703E600E0
:100110006572676F646F785F657A2F676C61636182
:100120006D627265204020302E372E33302D3130F5
:100130002D67363062326139006572676F646F789F
:100140005F657A2F676C6163616D62726520402024
:10015000302E372E33302D31302D673630623261FC
:1001600039000000F0A10000F0A32F004C0029008E
:10017000E100015100001E00140004001D00640095
:10018000E6001F001A0016001B00E2002B002000F2
:10019000080007000600E0002C00210015000900FF
:1001A0001900E3004D00220017000A0005000000BE
:1001B0005000500002530000015300004F004F0058
:1001C0000253000001530000510023001C000B00EB
:1001D000110000005200240018000D001000E7007C
:1001E000460025000C000E003600E4002800260022
:1001F00012000F003700E2002A002700130033002E
:1002000038003000E6002D002E003400E5000151DA
:100210000000055D010001000100010000003A003E
:10022000380020143402010001003B002714300084
:100230002614010001003C002114220022140100B8
:1002400001003D002E142D002D14010001003E0080
:100250002314075D1F1400000100010001000000CD
:100260000100000001000100010000000100000089
:1002700001003F002E00270236020000010040006E
:10028000240221021E020100010041002502220277
:100290001F02010001004200260223022002010089
:1002A0000100430032002E02251401000100440029
:1002B000450001000100010000002E004C00290053
:1002C000E100C30000001E00040014001A006400D6
:1002D000E60020021D0016001B00E2002B00340087
:1002E000080007000600E0002C0034021500090099
:1002F0001900E3004D00260217000A000500000067
:100300006500500002530000035300004A004F00F4
:1003100002530000035300004B002D001C000B0093
:10032000110000004600350018000D003600E700FF
:100330004E002D020C000E003300E40028002302C2
:1003400012000F003302E2002A001F021300100007
:100350001E022102E60027022E002202E500C30051
:100360000000055D010001000100010000003A00ED
:100370001E02200222024F0001003B001F02210248
:1003800023025200C95C3C002F0226022F005100BC
:10039000CA5C3D00300227023000500001003E00E0
:1003A0003102350035020000C35C0100010000008D
:1003B0000100000001000100010000000100000038
:1003C000C25C3F002E00270037000000065D4000A1
:1003D000240021001E0050000100410025002200E1
:1003E0001F005100C55C420026002300200052007F
:1003F000C65C430025022E0231004F00010044007C
:1004000045000100010001000000E100E5000000DE
:1004100000000000000000002A2B2800000000005F
:1004200000000000000000000000002900000000A3
:100430002C1E3420212224342627252E362D373811
:10044000271E1F202122232425263333362E37381A
:100450001F0405060708090A0B0C0D0E0F101112D8
:10046000131415161718191A1B1C1D2F3130232DA4
:10047000350405060708090A0B0C0D0E0F101112A2
:10048000131415161718191A1B1C1D2F3130354C53
:10049000000000000000000000000000000000005C
:1004A000000000000000000000000000000000004C
:1004B000000000000000000000000000000000003C
:1004C000000000000000000000000000000000002C
:1004D000000000000000000000000000000000001C
:1004E000000000000000000000000000000000000C
:1004F00000000000000000000000000000000000FC
:1005000000000000000000000000000000000000EB
:1005100000000000000000000000000000000000DB
:1005200000000000000000000000000000000000CB
:1005300000010101010101000101010100000000B1
:1005400000000000000000000000010001000101A7
:10055000010101010101010101010101010101018B
:10056000010101010101010101010100000001017E
:10057000000000000000000000000000000000007B
:100580000000000000000000000000010101010067
:1005900000047F3F1F643214643214783C1E1E1422
:1005A0000A052223252628292A2C2D2F30323335DF
:1005B00036383A3B3D3E4042434547494A4C4E500F
:1005C00051535557595A5C5E6062646668696B6D39
:1005D0006F71737577797B7D7F81838587898A8C3D
:1005E0008E90929496989A9C9E9FA1A3A5A7A8AA44
:1005F000ACAEAFB1B3B4B6B8B9BBBCBEBFC1C2C379
:10060000C5C6C7C9CACBCCCDCED0D1D2D2D3D4D512
:10061000D6D7D7D8D9D9DADADBDBDBDCDCDCDCDC3B
:10062000DDDDDDDDDCDCDCDCDCDBDBDBDADAD9D913
:10063000D8D7D7D6D5D4D3D2D2D1D0CECDCCCBCAA1
:10064000C9C7C6C5C3C2C1BFBEBCBBB9B8B6B4B3C7
:10065000B1AFAEACAAA8A7A5A3A19F9E9C9A98965D
:100660009492908E8C8A89878583817F7D7B797730
:100670007573716F6D6B6968666462605E5C5A5910
:1006800057555351504E4C4A4947454342403E3DD1
:100690003B3A3836353332302F2D2C2A292826255F
:1006A0002322FFAA7F554000010101010101010140
:1006B0000102020202020202020203030303030315
:1006C00003030404040404040405050505050606E3
:1006D00006060607070707070808080809090909A1
:1006E0000A0A0A0B0B0B0C0C0C0D0D0D0E0E0E0F47
:1006F0000F0F1010111111121213131414151516D7
:10070000161717181819191A1A1B1B1C1D1D1E1E47
:100710001F20202122222324242526262728292998
:100720002A2B2C2D2D2E2F303132323334353637C3
:1007300038393A3B3C3D3E3F4041424344454647C1
:1007400048494A4C4D4E4F50515354555658595A9A
:100750005B5D5E5F616264656668696B6C6D6F703E
:1007600072737577787A7B7D7E8082838587888AAD
:100770008C8E8F91939596989A9C9EA0A2A3A5A7E4
:10078000A9ABADAFB1B3B5B7BABCBEC0C2C4C6C9E0
:10079000CBCDCFD1D4D6D8DBDDDFE2E4E7E9EBEE99
:1007A000F0F3F5F8FAFDFF040330000000160345EE
:1007B00000720067006F0044006F00780020004561
:1007C000005A00000016034500720067006F0044E5
:1007D000006F007800200045005A00000004030963
:1007E0000409023B00020100A0FA09040000010311
:1007F00001010009211101000122400007058103C8
:1008000008000A0904010001030000000921110188
:10081000000122C0000705820320000A1201100116
:1008200000000008EDFE07130100010203010501AD
:100830000902A10185020901A10005091901290583
:10084000150025019505750181029501750381014A
:100850000501093009311581257F9502750881064A
:1008600009381581257F950175088106050C0A3820
:10087000021581257F950175088106C0C005010913
:1008800080A10185031A81002A8300160100260336
:1008900000950175108100C0050C0901A1018504B6
:1008A0001A01002A9C02160100269C02950175106F
:1008B0008100C005010906A1018505050719E02988
:1008C000E715002501950875018102050719002922
:1008D000EF1500250195F075018102050819012920
:1008E00005950575019102950175039101C00501FA
:1008F0000906A101050719E029E71500250195085A
:10090000750181029501750881010507190029FF0C
:10091000150026FF009506750881000508190129B4
:1009200005950575019102950175039101C011248A
:100930001FBECFEFDAE0DEBFCDBF11E0A0E0B1E037
:10094000ECE8F7E602C005900D92AE3FB107D9F78B
:1009500023E0AEEFB1E001C01D92AF39B207E1F77D
:100960000E94B62C0C94C4330C94000080B38C709D
:1009700080BB81B3836F81BB089584B1807F84B9CC
:1009800085B1807F85B98AB1837F8AB98BB1837F36
:100990008BB93E9846980895CF93E82F873080F51D
:1009A0008091060190910701892B09F047C0CE2F55
:1009B00064E670E080E40E946E18909307018093D3
:1009C0000601892BD1F464E670E082E10E94C5182B
:1009D0009093070180930601892B79F481E090E0E0
:1009E00001C0880FCA95EAF764E670E080950E941E
:1009F000C5189093070180930601CF910C941A19A2
:100A000090E0FC013797E730F105C0F4EA5AFF4F58
:100A10000C944832209A289811C0219A29980EC027
:100A2000229A2A980BC0239A2B9808C0529A5A9857
:100A300005C0539A5B9802C03E9A4698CF9108959C
:100A4000CF93873008F03FC0809106019091070155
:100A5000892B09F041C064E670E080E40E946E18C2
:100A60009093070180930601892B11F0C0E027C005
:100A700064E670E083E10E94C518909307018093BB
:100A80000601892B99F764E670E081E40E946E18F4
:100A90009093070180930601892B41F784E690E04B
:100AA0000E94F51897FF05C09093070180930601F7
:100AB000DDCFC82FC09510920701109206010E9449
:100AC0001A198C2F0AC09FB18FB1807F86958695A9
:100AD0009370892B809501C080E0CF9108950C948C
:100AE00063070E948F0690E09093070180930601B0
:100AF0000E94BD040E94B604EFEFF1E0ADE0B2E069
:100B000011921D9282E0ED30F807D1F78EE00E943D
:100B10006E0E0C94B3080E948F0690E0909307012C
:100B2000809306010E94BD040E94B604EFEFF1E03D
:100B3000119282E0ED30F807D9F70895EF92FF9215
:100B40000F931F93CF93DF9380910601909107013C
:100B5000892B91F08091FE018F5F8093FE018111BE
:100B60000BC00E948F0690E09093070180930601CE
:100B7000892B11F40E9401060DE012E0C0E0F12C77
:100B800087E0E82EEC0E8C2F0E94CC048E2D0E9464
:100B9000CC048C2F0E942005F8019081891719F050
:100BA0008083D1E001C0D0E08E2D0E942005F801A5
:100BB0009781891719F0878381E001C080E0D82BE5
:100BC000FD2A0E94BD04CF5F0F5F1F4FC730C1F6E3
:100BD0002F2D4EE06FEF71E08DE092E00E94E00E6D
:100BE0000E94BD0881E0DF91CF911F910F91FF908E
:100BF000EF900895E82FF0E0E150FE4F80810895D6
:100C0000089556985E9825982D9826982E9827989E
:100C10002F988FEF90E090938900809388009093B5
:100C20008B0080938A0090938D0080938C00259A8E
:100C30002D9A2FEF80E792E0215080409040E1F71D
:100C400000C00000269A2E9A2FEF80E792E02150F4
:100C500080409040E1F700C00000279A2F9A2FEFC4
:100C600080E792E0215080409040E1F700C0000012
:100C700025982D982FEF80E792E0215080409040FA
:100C8000E1F700C0000026982E982FEF80E792E051
:100C9000215080409040E1F700C0000027982F9835
:100CA00056985E9825982D9826982E9827982F98D4
:100CB000089589EA8093800089E0809381002498D8
:100CC0002C983F988AB18F7C8AB96E98479A8BB1DD
:100CD00080638BB9769A0E948B2660933C03709355
:100CE0003D0380933E0390933F0367708FEF689FAF
:100CF000B001112475956795759567957727709361
:100D000089006093880070938B0060938A007093D1
:100D10008D0060938C000E9401060C94620780E2B3
:100D200090E0909307018093060180911B0281114E
:100D30000EC00E94681881E080931B022FEF83EDA4
:100D400090E3215080409040E1F700C0000064E64D
:100D500070E080E40E946E18909307018093060172
:100D6000892B09F04EC064E670E080E00E94C5184F
:100D70009093070180930601892B09F042C064E635
:100D800070E080E00E94C5189093070180930601EF
:100D9000892BB9F564E670E08FE30E94C518909343
:100DA000070180930601892B61F50E941A1964E6F8
:100DB00070E080E40E946E18909307018093060112
:100DC000892BF9F464E670E08CE00E94C5189093DA
:100DD000070180930601892BA1F464E670E080E0AE
:100DE0000E94C5189093070180930601892B49F44E
:100DF00064E670E08FE30E94C5189093070180932A
:100E000006010E941A1980910601089510923C0370
:100E100010923D0310923E0310923F0384E08061E4
:100E200080933C0360913C0370913D0380913E03AD
:100E300090913F030E948F260C949B26662319F005
:100E4000613051F00EC0FC018281882351F089E3AA
:100E500091E00E94B00805C0FC01828181110E94CE
:100E6000F72680E090E00895FB0185302DE592079C
:100E7000B9F020F484309D4569F022C086302DE51C
:100E80009207B1F087309D45D9F48AE091E00E9445
:100E9000B00816C082818823A1F00E94F7260EC0F8
:100EA0008281882371F080E191E00E94B00806C041
:100EB0008281882331F081E00E94FB1580E0089553
:100EC00081E0089508956091DD027091DE028091C5
:100ED000DF029091E0020E940A2656985E982598BB
:100EE0002D9826982E9827982F98823039F08330A5
:100EF00041F0813041F4259A2D9A0895269A2E9A30
:100F00000895279A2F9A08950F931F93CF93DF93F5
:100F10009C013A9521153F4148F5EB018C0190FF6A
:100F200003C080EEFB01099511FF03C081EEFE01B5
:100F3000099512FF03C082EEFE01099513FF03C05D
:100F400083EEFE0109950115104180F084EEFE014B
:100F5000099585EEFE01099586EEFE01099587EE5D
:100F6000FE01DF91CF911F910F910994DF91CF91F5
:100F70001F910F910895877091E001C0990F8A9594
:100F8000EAF7892F0E946C250C94A7250C94BB07C7
:100F9000877091E001C0990F8A95EAF7892F0E9426
:100FA00072250C94A7250C94C807CF93DF93EC010E
:100FB000805E9109089710F0209719F46BEB77E0A9
:100FC00002C066EC77E0CE010E9484078C2FDF918F
:100FD000CF910C94DF1ACF93DF93EC010E94FD1B9D
:100FE000CE01805E9109089710F0209719F468EC03
:100FF00077E002C063ED77E0CE01DF91CF910C94F2
:101000008407CF93DF93EC010E94D507CE01DF91D7
:10101000CF910C94EB0781E008950C9434071F9353
:10102000CF93DF9300D000D01F92CDB7DEB74983B6
:101030005A836B8320916B0289819A81211112C09E
:10104000662349F00E94D524182F682F89819A8140
:101050000E947C2403C00E94A824182F69817A81F1
:10106000812F04C00E94D52469817A810F900F904E
:101070000F900F900F90DF91CF911F910C94B50BB3
:10108000FC01408151816281738184810C940F083D
:101090001F93CF93DF9390E0FC01E05FFB4F14912F
:1010A000FC01E05FFA4FD491FC01E057FB4FC49183
:1010B000DD2319F081EE0E94DF1ACC2319F086EEB1
:1010C0000E94DF1A812F0E94651CCC2319F086EE46
:1010D0000E94FD1BDD2331F081EEDF91CF911F9146
:1010E0000C94FD1BDF91CF911F9108950F931F93D7
:1010F000CF93DF93EC01062FFE018491882359F1F1
:101100009E012F5F3F4F813041F4E901F9011491B5
:10111000812F0E94DF1A812F0DC0823031F4E90146
:10112000F90184910E94DF1A0AC0833031F4E90189
:10113000F90184910E94FD1B02C00E94480821967B
:10114000802F8823C9F2EFE9FFE03197F1F700C063
:1011500000008150F6CFDF91CF911F910F9108953C
:1011600060E00C9476080E945A26811102C00E9409
:10117000F7260E9491100C9459060E943D0F0C9482
:101180006F05282F2F7041F0822F90E02A3010F445
:101190004D9608950697089587E290E00895089582
:1011A0000C94CF080C94D00808950E94711F0E94DF
:1011B000D4082FEF84E39CE0215080409040E1F779
:1011C00000C000000C9489280F931F93CF93DF93E6
:1011D0008C010E944008EC01B8010E940D08882390
:1011E00009F4BCC2B801CE010E940511882309F49C
:1011F000B5C2B801CE010E946A0F882309F4AEC2BD
:10120000B801CE010E942718882309F4A7C2CB3C5D
:10121000FCE5DF0741F4F8018281882309F49EC2CE
:101220000E9414129BC2CC3C8CE5D80708F0D1C1B7
:10123000C33C9CE5D90761F4F8018281882309F455
:101240008DC20E9456258272F1F00E94F81586C266
:10125000C43CECE5DE07D0F0F8018281C73CFCE538
:10126000DF0709F48BC108F09BC1C53CECE5DE0744
:1012700009F48AC108F08EC1882309F46FC20E9464
:101280005625827211F30E94EB1568C2C631FCE547
:10129000DF0708F03CC1C2308CE5D80708F413C161
:1012A000F8018281882309F415C10E945A26811110
:1012B00002C00E94F7260E946D2690938D038093B2
:1012C0008C03C031FCE5DF0709F4BFC008F03FC064
:1012D000C8309CE5D90709F496C0F0F4C430FCE5A9
:1012E000DF0709F483C068F4C2309CE5D90709F42C
:1012F00073C0C330DC4509F0DDC080918C0382608F
:1013000072C0C630FCE5DF0709F46AC008F077C098
:1013100080918C03886067C0CC309CE5D90709F4C4
:1013200081C058F4CA30FCE5DF0709F470C008F04A
:1013300075C080918C03806856C0CE309CE5D9077B
:1013400009F474C008F07DC080918C0389C0CB3F44
:10135000FCE5DF0709F44DC008F5C3319CE5D9076A
:1013600009F47BC068F4C131FCE5DF0709F471C002
:10137000C231DC4509F09EC080918C038F7733C069
:10138000C5319CE5D90709F472C008F486C0CA3F8C
:10139000DC4509F08FC080918D033EC0CF3F8CE5C6
:1013A000D80709F45FC058F4CD3FECE5DE0709F437
:1013B00044C008F43FC080918D0382602DC0C130CD
:1013C0008DE5D80709F473C008F45DC0C230DD456F
:1013D00009F070C080E06CC080918C03816003C014
:1013E00080918C03806180938C0364C080918C0316
:1013F00011C080918D03826080938D035BC08091CA
:101400008C038062F0CF80918C038064ECCF80915C
:101410008C0388608460E7CF8160EECF80918C037D
:101420008E7FE1CF80918C038D7FDDCF80918C0307
:10143000877FD9CF80918D0318C080918D038D7FD8
:10144000DBCF80918C038F7ECECF80918C038F7DFC
:10145000CACF80918C038F7BC6CF80918C03877F0E
:101460008B7FC1CF80918D038D7F8E7FC5CF809183
:101470008C0382FB222720F991E0922790FB82F9CE
:1014800090FB83F9B0CF80918D03982F9095917048
:101490008E7F892B90FB81F9AFCF80918C0387FBE6
:1014A000222720F991E0922790FB87F99CCF81E0D9
:1014B0000E94F92680918C0390918D030E947E26D4
:1014C0000E94711F4BC1C1159CE5D90751F0C13075
:1014D000DC4579F0C801DF91CF911F910F910C94F9
:1014E0000B08F8018281882309F438C10E94D508CD
:1014F00035C1F8018281882309F430C180910A0343
:10150000982F909590FB80F980930A0327C1C631EC
:10151000FCE5DF0739F50E945625982FF8018281F6
:1015200020911E0130911F01882379F09A7A81E081
:1015300009F480E080931C02911102C069E201C0AD
:1015400065E3C9010E9464270AC080911C028111D1
:1015500002C069E201C065E3C9010E946F270E94D1
:10156000A725FCC0C23CDC4509F0B4CFF80182815C
:10157000882309F4F3C00E940616F0C0882309F4FA
:10158000EDC00E94A713EAC0882309F4E7C00E94B7
:101590008B13E4C0882309F4E1C00E949813DEC0D5
:1015A000C93C9CE5D90731F4882309F4D7C00E94CF
:1015B000C513D4C0CA3CDC4530F4882309F4CEC03E
:1015C0000E94B613CBC0882309F4C8C00E94D4136C
:1015D000C5C0C33DFCE5DF0749F4F80182818823DB
:1015E00009F4BCC088E10E94FB15B8C0C43D8CE57D
:1015F000D80708F069C0F8018281CF3CFCE5DF071D
:1016000071F4882309F4AAC00E940C12863028F0D5
:101610000E940C12883008F436CE86E0E4CFC03D3C
:101620009CE5D90700F5CD3CECE5DE0729F48823DD
:1016300009F494C081E0D7CFCE3CDC4530F4882358
:1016400009F48CC00E94251289C0882309F486C041
:101650000E940C12823028F00E940C12853008F48F
:1016600012CE82E0C0CFC13D9CE5D90771F488233A
:1016700009F474C00E940C128F3028F00E940C12E2
:10168000843108F400CE8FE0AECFC23DDC4570F46B
:10169000882309F463C00E940C12893028F00E944C
:1016A0000C128E3008F4EFCD89E09DCF882309F429
:1016B00055C00E940C12853128F00E940C1287310F
:1016C00008F4E1CD85E18FCFCD3DFCE5DF0749F49E
:1016D000F8018281882309F441C082E00E94552DDF
:1016E0003DC0CE3D8CE5D80738F5C53D9CE5D90712
:1016F00031F4F8018281882389F183E274CFC53DFA
:10170000ECE5DE0778F4F8018281882339F10E9444
:101710000C12893128F00E940C12823208F4B3CDE9
:1017200089E161CFCC3DDC4509F0D4CEF80182815E
:101730008823A1F080E0D2CFCE3D8CE5D80739F4E4
:10174000F8018281882351F00E94F72607C0CE015C
:101750008A5F9C45099708F4A3CDBCCE80E0DF9159
:10176000CF911F910F910895089524E5829FC001A4
:101770001124FC0126E0729FE00DF11D1124E60FFB
:10178000F11DEE0FFF1FE659FE4F859194910895CC
:10179000880F991FFC01EE59FE4F85919491089591
:1017A000CF93DF930E94B50B0E94970DEC0181153A
:1017B000904508F041C0C11580E4D80708F02DC15C
:1017C000C83ED10510F5C03ED10508F0ACC1C83AFD
:1017D000D10578F4C53AD10508F0A7C0C130D105CC
:1017E00009F4A1C108F452C1C430D10508F09BC16D
:1017F0004DC1CF3BD10508F4A3C0C03CD10508F4CE
:1018000045C1CE01805C9109FAC0C11590E2D907AB
:1018100058F4C11521E0D20708F085C1C03FD105B9
:1018200008F434C1D0657FC1C11580E3D80708F042
:10183000EAC0CE019F70E3C0C11595E5D90708F055
:1018400043C0C11524E5D20708F0FEC0C11582E5EA
:10185000D80708F5C11591E5D90708F0E1C0CE0118
:1018600074E0969587957A95E1F783709C2F937035
:1018700021E030E002C0220F331F9A95E2F73C6866
:10188000382BCF70C695C69580E2C89FE001112421
:10189000C22BD32B48C19E01237033278C2F8695F2
:1018A0008695C115D34508F0C0C0C1E0D0E002C0A4
:1018B000CC0FDD1F2A95E2F720E2829FC0011124A0
:1018C000C82BD92BDC682FC1C1152AE5D207A0F49B
:1018D000C11589E5D80708F0C6C0C11596E5D90736
:1018E00008F4B7C0C11528E5D20708F4CFC0DC2F33
:1018F000CC27C06FD06A17C1C1158BE5D80708F493
:10190000C5C0C1159CE5D90708F4BDC0CE019056ED
:101910008115904208F0BAC08D2F8F710E942B0E56
:10192000DD27D0628F71D82BFEC0C53AD10509F4EE
:10193000B0C0C63AD10509F0AFC0C2E8D0E4F3C0E8
:10194000C83AD10509F4ABC0C93AD10509F4AAC017
:10195000CA3AD10509F4A9C0CB3AD10509F4A8C007
:10196000CC3AD10509F4A7C0CB3BD10509F4A6C0F8
:10197000CC3BD10509F4A5C0CD3AD10509F4A4C0EA
:10198000C03BD10509F4A3C0CE3AD10509F4A2C0E9
:10199000CF3AD10509F4A1C0C13BD10509F4A0C0DB
:1019A000C23BD10509F49FC0C33BD10509F49EC0D9
:1019B000C43BD10509F49DC0C53BD10509F49CC0C9
:1019C000C63BD10509F49BC0C73BD10509F49AC0B9
:1019D000C83BD10509F499C0C93BD10509F498C0A9
:1019E000CD3BD10509F497C0CE3BD10509F496C093
:1019F000CA3BD10509F495C0C0E0D4E494C00E946C
:101A0000C80BEC0190C0CE019927D3FF03C0EC01B5
:101A1000D86C89C0EC01D06C86C0DF70D06A83C0FE
:101A2000DC2FCC27C16FD06A7EC0C1E0D0E002C0FD
:101A3000CC0FDD1F2A95E2F720E2829FC00111241E
:101A4000C82BD92BDA686FC0DC2FCC27C46FD06AC3
:101A50006AC08C2F0E942B0E8F71C82FD0E0DC2F14
:101A6000CC27D06260C08C2F8F700E942B0E94E028
:101A7000D695C7959A95E1F7CF70D0E0DC2FCC27AB
:101A8000D069C82B50C0DD27D0664DC0C0E0D0E083
:101A90004AC0C1E8D0E447C0C3E8D0E444C0C2EEC5
:101AA000D4E441C0C9EED4E43EC0CAEED4E43BC0A5
:101AB000C5EBD4E438C0C6EBD4E435C0C3EBD4E402
:101AC00032C0C4EBD4E42FC0C7EBD4E42CC0CCECC0
:101AD000D4E429C0CDECD4E426C0C3E8D5E423C0C7
:101AE000CAE8D5E420C0C2E9D5E41DC0C4E9D5E404
:101AF0001AC0C1E2D6E417C0C3E2D6E414C0C4E2FF
:101B0000D6E411C0C5E2D6E40EC0C6E2D6E40BC0EE
:101B1000C7E2D6E408C0CFE6D4E405C0C0E7D4E409
:101B200002C0CAE2D6E4CE01DF91CF910895823897
:101B3000910569F1B0F48133910509F46DC048F461
:101B40008932910509F463C08A32910509F469C0AC
:101B500008958533910509F455C089339105B9F08D
:101B60000895833E910569F138F4803E9105B1F006
:101B7000823E910509F10895863E9105A9F1873EBF
:101B80009105B9F1843E910509F064C023C020910C
:101B90008C0320FD4FC021FD4DC0089580918C0322
:101BA00080FD44C080918D0380FF44C080918C03F0
:101BB00084FD42C083EE4DC080918C0382FF38C00B
:101BC000F5CF80918C0382FD33C080918D0380FD21
:101BD00031C0ECCF80918D0381FF32C080918C03A6
:101BE00084FD2AC087EE35C080918C0383FF26C018
:101BF000F5CF80918C0383FD21C080918D0381FD01
:101C00001FC0ECCF80918C0385FD1CC01DC080914E
:101C10008C0385FD19C016C080918C0386FD16C00B
:101C200017C080918C0386FD13C010C089E311C0DA
:101C300082EE0FC080EE0DC080E00BC086EE09C0C2
:101C400084EE07C089E205C085E303C08AE201C0D3
:101C500081E390E0089590918C0392FF0DC0282FAE
:101C60002871283019F4877F846006C0282F2471DA
:101C7000243011F48B7F886093FF0DC0282F2871CA
:101C8000283119F4877E846106C0282F24712431FD
:101C900011F48B7E886120918D0320FF0DC0382FB9
:101CA0003871383019F4877F816006C0382F317160
:101CB000313011F48E7F886021FF0DC0282F2871EC
:101CC000283119F4877E816106C0282F21712131C6
:101CD00011F48E7E886194FD877E0895CF93C82F7E
:101CE00090E00E944E3280931E0290931F02282F94
:101CF000FC019BEF8E2F821B8C1710F49193FACF6F
:101D0000CF9108950F931F93CF93DF9310921D02ED
:101D100050911E02E52FF0911F0240E0A62FB0E087
:101D20007BEFCAEFD0E09E2F951B9817D0F49081DF
:101D30009B3FA9F0292F30E0691728F08D01021B85
:101D4000130B980106C08E01021B130B98012A0F7A
:101D50003B1F2530310514F0708301C041E03196FE
:101D6000E2CF40931D02DF91CF911F910F91089513
:101D7000CF93DF931092200250911E0230911D02EA
:101D8000DB01EC01E52FF0911F0290E08E2F851B07
:101D9000841778F489916C91681741F060816B3FEA
:101DA00021F420838C9331E001C091E031961196AB
:101DB000EDCF30931D0290932002DF91CF910895D3
:101DC000CF92DF92EF92FF921F93CF93DF937C012C
:101DD0006B01C42F122F0E942D286AEF70E00E9421
:101DE0002032D82F80911D02882319F16D2F8C2F5E
:101DF0000E94820E112369F02D2F4C2FB601C701CE
:101E0000DF91CF911F91FF90EF90DF90CF900C94D6
:101E1000B80E80911D02882379F3809120028111F0
:101E2000EBCFDF91CF911F91FF90EF90DF90CF909C
:101E300008951111E1CFF1CFCF9390913102992301
:101E4000C9F0882311F0C0E003C01092310212C023
:101E500080913102C817C8F7EC2FF0E0EE0FFF1F9A
:101E6000EF5DFD4F808191810E94D5070E94A725DB
:101E7000CF5FEECFCF910895089580910D01882313
:101E8000A1F080913202882381F0809135029091F7
:101E90003602009751F00E943928893C910528F0BC
:101EA0001092320281E00C941C0F089510923202BD
:101EB00010920D01109236021092350281E00C94BE
:101EC0001C0F80910D0181110C94560F81E08093BD
:101ED0000D0108958F929F92AF92BF92CF92DF92A1
:101EE000EF92FF920F931F93CF93DF938C017B01AF
:101EF00010923302073F8CE5180741F4FB01C281C1
:101F0000CC23D1F081E080930D01E8C0083FFCE5CF
:101F10001F0739F4FB01C281CC2371F00E94560FD8
:101F2000DDC0093FFCE51F0739F4FB01C281CC236A
:101F300019F00E94610FD2C080910D01882309F42D
:101F4000CCC010923402D1E0C0E0CC24C394D12C98
:101F5000BB24B39480913402811182C09091080116
:101F60004091090199249A9480E0E92FF42FE80F19
:101F7000F11DE80FF11D259134910217130709F4A3
:101F8000982E232B11F08F5FF0CFFFEF9F1202C02E
:101F9000A12C57C080903202F701A28090910C01D1
:101FA000AA2039F1960101C0220F9A94EAF7292B51
:101FB00020930C01882061F3A60102C0440F551F35
:101FC0008A95E2F741505109822F90E0481759074E
:101FD000C1F580910A0190910B01009719F00E94C0
:101FE000D50704C061E080E00E943C0FB09233024C
:101FF00028C0A60102C0440F551F8A95E2F7415040
:102000005109292F30E04217530771F480910A01DA
:1020100090910B01009719F00E94EB0706C060E059
:1020200080E00E943C0F01C0812CC60101C0880FD6
:102030009A94EAF7809590910C01892380930C0182
:10204000A82CCA29DD2321F0D1E080910C01811157
:10205000D0E0D170809134028F5F809334027ACFC8
:1020600080913302882351F00E942D2890933602EC
:102070008093350280E00E941C0F2CC0C1110DC05E
:1020800081E00E941C0FDD2329F11092360210928C
:10209000350281E0809332021DC0F70182818823DE
:1020A000C9F0809132028823A9F00E942D289093D4
:1020B000360280933502E0913102E83058F481E035
:1020C0008E0F80933102F0E0EE0FFF1FEF5DFD4FAA
:1020D0001183008381E0C82701C0C1E08C2FDF910C
:1020E000CF911F910F91FF90EF90DF90CF90BF9015
:1020F000AF909F908F900895CF93DF9397FF0DC07F
:10210000FB012281222349F0EC010E94A710CE019D
:102110009F770E94E8100E94D11081E0DF91CF915B
:1021200008958CE090E00E947C3390E0A0E0B0E065
:102130008093400390934103A0934203B0934303E1
:102140000895609140038CE090E00C9490330E94DD
:102150005625809344030E94692580914003813075
:1021600071F048F0823081F08430A1F486EE0E9454
:10217000651C88E10DC082EE0E94DF1A0BC088E169
:1021800093E00E94010806C082EE0E94DF1A87E5F4
:102190000E94651C8FE39CE90197F1F700C00000E5
:1021A000089580914003813039F040F0823031F061
:1021B000843051F488E206C08CE204C082EE0E94B2
:1021C000FD1B02C00E94651C809144030C9466258F
:1021D0000F931F93CF93DF938C01CCE0D0E0C80125
:1021E0000C2E02C0969587950A94E2F78F700E9494
:1021F000C1080E94651C2497CC3F8FEFD80779F760
:10220000DF91CF911F910F9108950F931F93CF935B
:10221000DF93EC018B01FB018281882319F1C33E1E
:10222000FCE5DF07C1F050F4C13EECE5DE0781F0CC
:10223000C23EFCE5DF07B1F481E010C0C43E8CE58E
:10224000D80759F0C53EECE5DE0761F484E006C02E
:102250001092400305C082E001C083E080934003F8
:102260000E94A110B801CE01DF91CF911F910F9173
:102270000C947C10EF92FF920F931F93CF93DF93F8
:10228000F62E472FE82FF0E0711106C0E955F94FFF
:102290006491762F862F72C0272F30E0E955F94FD1
:1022A000E4910E2F10E056E0659FC0011124CFEF9E
:1022B000D0E0BE010E9420325BEA5603C001579F66
:1022C000900D11248F0D911D8F0D911D982F990F39
:1022D000890F7E01E21AF30AE09ED001E19EB00D63
:1022E000F09EB00D1124489FA0011124452F5527C1
:1022F0007E01E41AF50AE09EA001E19E500DF09ED9
:10230000500D11247E01E81AF108E29EC001E39EFF
:10231000900DF29E900D1124892F9927C81BD90B7F
:10232000C09FC001C19F900DD09F900D11246230BD
:10233000710591F048F461157105E1F061307105A6
:10234000A9F48B2F752F19C06430710561F038F036
:102350006630710579F00AC0892F7B2F0EC08E2F51
:102360007B2FE52F0AC08E2F792F02C0852F7E2F5D
:10237000EB2F03C08B2F7E2FE92F6E2FDF91CF9194
:102380001F910F91FF90EF9008950895CF93DF93E1
:10239000762FE901682F842F0E943A117983688390
:1023A0008A83DF91CF91089580914503282F269548
:1023B00030E02115310519F48170826005C02532A5
:1023C000310524F08170886480934503089588E086
:1023D00090E00C948433CF92DF92EF92FF926B01E6
:1023E0007C010E94D411B701A60188E090E0FF9023
:1023F000EF90DF90CF900C94A233E5E4F3E083E01C
:10240000808311828FEF8283838314826081718144
:10241000828193810C94EB118091450380FF02C06F
:102420008695089580E0089580914903833018F4DB
:102430008F5F8093490360914503709146038091BB
:102440004703909148030C94EB1180914903882332
:1024500019F08150809349036091450370914603C0
:1024600080914703909148030C94EB116091120105
:1024700070E08091450380FF0AC080913B0224E018
:10248000829FC0011124865B9C4F0C947117809130
:102490003A0290911101891780F724E0829FF001A0
:1024A0001124E65BFC4F1182108212828F5FF3CF02
:1024B0009091450390FF13C090913A022091110131
:1024C000921758F434E0939FF0011124E65BFC4F1F
:1024D0008183608342839F5FF3CF0C94361208950B
:1024E000CF93DF9300D000D0CDB7DEB790914503F6
:1024F00090FF0AC09E012F5F3F4F0E94C6114B8183
:1025000069818A810E9458120F900F900F900F904E
:10251000DF91CF910895CF93DF93EC01EC81F0E050
:10252000EE55FA4F4491E5E4F3E0628181810E9427
:1025300070128C818F5F8C83DF91CF910895CF9340
:10254000DF93EC01E5E4F3E0438162818C810E943A
:1025500070128C818F5F8C83DF91CF9108950F93E0
:102560001F93CF93DF9300D000D0CDB7DEB78C019F
:102570008091370281110AC09E012F5F3F4F4FEFBC
:102580006FEF0E94C6118A8180933702F80184811F
:10259000813051F028F0823061F4409137020AC056
:1025A0008091370240E007C06091370240E080E050
:1025B00003C040E080E060E00E945812F80184818E
:1025C00090E0019663E070E00E94343284830F90C3
:1025D0000F900F900F90DF91CF911F910F91089561
:1025E000AF92BF92CF92DF92EF92FF920F931F9321
:1025F000CF93DF9300D000D0CDB7DEB7182FF62EE3
:10260000042FE22E9091450390FF6CC0E92FE695D0
:10261000AE2FB0E0A852BE4F8C91809343029E7FB4
:10262000923061F49E012F5F3F4F812F0E94C611AF
:102630004B8169818A810E94581242C0823019F40C
:10264000009148033DC0863019F41091460338C00C
:102650008930D9F38931A1F5E9518E2F8170D82EB7
:10266000E695F0E0EE55F94FA590B490C12CBB244F
:1026700060911001C61610F52C2D30E0A29EC0010D
:10268000A39E900DB29E900D112470E00E94203206
:10269000812FD11002C0860F01C0861B90913A0293
:1026A000290F311D220F331F220F331F265B3C4F92
:1026B000402F6F2D0E94C611C394DACF0E943612AC
:1026C00010934603F092470300934803EE2051F025
:1026D00060914503709146038091470390914803B0
:1026E0000E94EB110F900F900F900F90DF91CF9100
:1026F0001F910F91FF90EF90DF90CF90BF90AF9020
:102700000895E5E4F3E09181282F438162818CE014
:10271000890F0C94F01281E00C948113E5E4F3E04E
:102720009181282F4381628184EF890F0C94F012EC
:1027300081E00C948E13E5E4F3E062812FEF620FE9
:1027400008F46FEF282F438181810C94F01281E00F
:102750000C949B13E5E4F3E062812FEF621B08F415
:1027600060E0282F438181810C94F01281E00C9469
:10277000AA13E5E4F3E043812CE0420F08F44FEFA5
:10278000282F628181810C94F01281E00C94B9139E
:10279000E5E4F3E043812CE0421B08F440E0282FFD
:1027A000628181810C94F01281E00C94C81320E0C6
:1027B0000C94F012FF920F931F93CF93DF93EC01D1
:1027C000F12C0FEF10E060911001F616E8F4809103
:1027D0003A022F2D30E0280F311D220F331F220F18
:1027E000331F265B3C4F70E0C8010E943432962FA5
:1027F0008C814091480360914703F99E800D11241C
:102800000E94C611F394DFCF0E9436129A818C8108
:1028100090FF02C08F5F01C081508C83DF91CF9108
:102820001F910F91FF900895BF92CF92DF92EF9288
:10283000FF920F931F93CF93DF93FC01828180FF60
:1028400002C00FEF01C001E010E0809110011817E5
:10285000D8F580913A02C12ED12CE601C80FD11DC6
:10286000CC0FDD1FCC0FDD1FC65BDC4F1982188239
:102870001A8224E0E22EF12CB12C809139028B0DCA
:1028800087FF03C090911001890F082E000C990B4F
:10289000C816D90691F4809148038E9DA0018F9DA2
:1028A000500D112455954795559547959E0160917A
:1028B0004703809146030E94C611B00EF1E0EF1A63
:1028C000F108D9F61F5FC1CF0E94361280913902FC
:1028D000013031F4811102C080911001815007C094
:1028E00090E001966091100170E00E943432809374
:1028F0003902DF91CF911F910F91FF90EF90DF9000
:10290000CF90BF9008950F931F93CF9380913A0279
:1029100090911101891758F424E0829FF00111244D
:10292000E65BFC4F1182108212828F5FF3CFC0E012
:1029300060911001C61790F50C2F10E070E0C801EF
:102940000E943432E0913A028E0F20913802022E1A
:10295000000C330BE82FF0E0EE0FFF1FEE0FFF1F10
:1029600002171307A4F080910F01082E000C990B99
:102970008017910764F09F01265B3C4F409148030C
:1029800060914703809146030E94C61105C0E65B33
:10299000FC4F118210821282CF5FCACF0E94361282
:1029A00020910E0180913802820F8093380290911D
:1029B0000F01920F90930F0119165CF4082E000C72
:1029C000990B4091100150E041505109841795072F
:1029D0001CF0219520930E01CF911F910F91089526
:1029E0000F931F93CF93DF938C01FC01848195811A
:1029F00001968170992795838483C0E0D5E5809105
:102A00001001C817F8F480913A022C2F30E0280FFB
:102A1000311D220F331F220F331F265B3C4F4C2FDB
:102A20004695F80184819581840F911D81704091B4
:102A30004803609147038D9F802D11240E94C61189
:102A4000CF5FDDCFDF91CF911F910F910C943612A4
:102A50000F931F93CF93DF93EC0100E010E0809180
:102A60001001282F30E0021713071CF590913A024D
:102A70009801290F311D220F331F220F331F265BB0
:102A80003C4F869590E04C81081719071CF44423AD
:102A900031F002C0411103C04091480301C040E041
:102AA00060914703809146030E94C6110F5F1F4F3C
:102AB000D6CF0E9436128C8190E0019681709927C2
:102AC0008C83DF91CF911F910F910895E5E4F3E09E
:102AD00080818E7F808360817181828193810E9459
:102AE000EB11109244022FEF80E792E021508040DA
:102AF0009040E1F700C000000C943612E5E4F3E0EA
:102B000080818E7F8083109244022FEF80E792E0D5
:102B1000215080409040E1F700C000000C94361234
:102B200060914503669570E04BE050E083E191E0F1
:102B30000E946F33892B19F481E0809344020E9434
:102B40002D2890933D0280933C0208959091450377
:102B500090FF35C09170811102C0926006C085322D
:102B600010F0986402C0880F982B90934503662359
:102B700051F0609145037091460380914703909115
:102B800048030E94EB1160914503669570E04BE0AD
:102B900050E083E191E00E946F33892B19F010928D
:102BA000440202C00E94901581E080933F02409150
:102BB000480360914703809146030C94D71308950E
:102BC000682F90914503969581E0890F853208F032
:102BD00081E00C94A61581E00C94E015682F90918B
:102BE000450396958FEF890F09F484E20C94A6159E
:102BF00081E00C94EE1561E00C94A615E5E4F3E099
:102C000080818160808386950C94FB1580914503BB
:102C100080FD0C9466150C94FE1560E00C94A615CE
:102C200080914202811133C080910A0381608093B8
:102C30000A030E945A26811104C00E94F7260E94AE
:102C4000FD110E94E7116093450370934603809342
:102C50004703909348036E7F61F40E94FD110E9428
:102C6000E711609345037093460380934703909365
:102C700048030E94D411109244028091450380FFC2
:102C800003C086950E940D1681E08093420208954C
:102C9000E5E4F3E080818160808386950C940D16D5
:102CA0001092440208950F931F93CF93DF93809166
:102CB0004402882309F48CC080914302E0914503CB
:102CC000E695E81BE0933E02823049F4F0E0E256DC
:102CD000FA4FE491CE2FD0E00BE812E149C08630E4
:102CE00049F4F0E0E556FA4FE491CE2FD0E00FE939
:102CF00012E13EC0893051F4E695F0E0E856FA4F13
:102D0000E491CE2FD0E00AED13E132C08F3051F4C0
:102D1000E695F0E0EB56FA4FE491CE2FD0E004E1D7
:102D200014E126C0853149F4F0E0EE56FA4FE49103
:102D3000CE2FD0E003E814E11BC0883181F083324C
:102D400039F4E0E9F5E0C591D4910FEA12E110C041
:102D5000843251F4C4EFD1E008E215E109C0C8EEB5
:102D6000D3E000EF14E104C0C0EDD7E005EC11E1C1
:102D700080913F02882389F010923F020E942D2803
:102D80009E0120953095820F931F90933D02809372
:102D90003C02109241021092400280913C029091BC
:102DA0003D020E9439288C179D0790F0E0913C026B
:102DB000F0913D02CE0FDF1FD0933D02C0933C0245
:102DC0008CE392E0F801DF91CF911F910F9109946C
:102DD000DF91CF911F910F910895882319F0519899
:102DE000599A02C0519A59985098589A95E09A95D4
:102DF000F1F70000509A589895E09A95F1F7000085
:102E0000882311F0519A599885E08A95F1F70000CE
:102E100008958BB18C7F8BB95098589A5198599AD4
:102E200085E08A95F1F7000008958AB18C7F8AB910
:102E300085E08A95F1F70000519A599885E08A95C6
:102E4000F1F70000509A589885E08A95F1F7000054
:102E500008955098589A85E08A95F1F700005198A6
:102E6000599A85E08A95F1F700000895CF93DF9392
:102E7000D82FC8E08D2F80780E94ED16DD0FC1504D
:102E8000C9F780E00E94ED1685E08A95F1F7000011
:102E900085E08A95F1F7000080E0DF91CF910895F9
:102EA0002BB1342F309523233BB1432B3FB7F894FC
:102EB000FC01680F791FE617F70789F0819198E008
:102EC0004BB9000000C087FF2BB9880F000000C07D
:102ED00000C000C02BB900C09A9591F7ECCF3FBF5E
:102EE0000895AF92BF92CF92DF92EF92FF920F932D
:102EF0001F93CF93DF938C01EB01CFB6D090BC0032
:102F0000F8948091BC008B7F8093BC000E940917CD
:102F10000E94151784E80E943617CC0FDD1FCC0FD6
:102F2000DD1F78015801AC0EBD1EEA14FB0431F020
:102F3000F70181917F010E943617F7CF0E94291770
:102F4000CFBED092BC00579A40E8BE01C801DF91C5
:102F5000CF911F910F91FF90EF90DF90CF90BF9096
:102F6000AF900C9450170F931F93CF93DF93C62FFE
:102F7000D42F122FFC0182818823C9F0609347026D
:102F80000E942D28909346028093450280E28C0F88
:102F9000883008F057C0C77081E001C0880FCA951B
:102FA000EAF7DF91CF911F910F910C94781C8091DB
:102FB0004702681330C080914502909146020E94FA
:102FC0003928883C910538F500E20D0FCD17B9F08E
:102FD00080E28C0F883040F4C77081E001C0880F18
:102FE000CA95EAF70E947F1C083028F581E09D2FE2
:102FF000977001C0880F9A95EAF70E94781C812F7C
:103000000E94651C0830F0F4D77081E001C0880F81
:10301000DA95EAF70AC080E28C0F883098F4C7701E
:1030200081E001C0880FCA95EAF7DF91CF911F9127
:103030000F910C947F1C812FDF91CF911F910F91E5
:103040000C94651CDF91CF911F910F9108959C0105
:10305000CB01233F4CE53407F9F078F4283DFCE53B
:103060003F07B9F0293D4CE5340711F1273D3C45B8
:1030700031F526E241EE61EE1EC0253FFCE53F073B
:1030800099F070F0263F3C45D1F427E245EE66EE1C
:1030900012C027E245EE0EC026E241EE60EE0BC004
:1030A00027E245EE64EE07C026E241EE62EE03C081
:1030B00028E241E065EE0E94B31780E00895FC012C
:1030C0008281882319F010924702089581E00895C3
:1030D0001092B9008CE08093B8000895EF92FF92AF
:1030E0000F931F93CF93DF93182FEB011092BC0027
:1030F00084EA8093BC000E942D287C018091BC0052
:1031000087FD0EC0CF3F8FEFD807C1F30E942D2857
:103110008E199F098C179D0788F38EEF9FEF2EC0A5
:103120008091B900887F883041F08091B900887F14
:10313000803119F08FEF9FEF21C01093BB0084E81E
:103140008093BC000E942D288C018091BC0087FDDB
:103150000CC0CF3F8FEFD807C1F30E942D28801BF2
:10316000910B8C179D0788F3D8CF8091B900887F89
:10317000883111F08034F1F680E090E0DF91CF915A
:103180001F910F91FF90EF9008950F931F93CF938E
:10319000DF93EB018093BB0084E88093BC000E9426
:1031A0002D288C018091BC0087FD0EC0CF3F8FEF92
:1031B000D807C1F30E942D28801B910B8C179D0707
:1031C00088F38EEF9FEF0CC02091B900287F81E03B
:1031D00090E0283211F480E090E09195819591097A
:1031E000DF91CF911F910F9108950F931F93CF936C
:1031F000DF93EC0184E88093BC000E942D288C01B1
:103200008091BC0087FD0EC0CF3F8FEFD807C1F380
:103210000E942D28801B910B8C179D0788F38EEF41
:103220009FEF03C08091BB0090E0DF91CF911F9191
:103230000F91089584E98093BC00089590934D0206
:1032400080934C020895E0914C02F0914D0230972A
:1032500021F00190F081E02D099480E00895E09143
:103260004C02F0914D02309799F020912F012223CA
:1032700059F020918C0327FF07C0DC012C91119697
:103280002C93119725E02C930280F381E02D099473
:103290000895E0914C02F0914D02309739F022E010
:1032A000DC012C930480F581E02D09940895209190
:1032B0004A0230914B022817390771F090934B0264
:1032C00080934A02E0914C02F0914D02309721F038
:1032D0000680F781E02D09940895209148023091ED
:1032E00049022817390771F09093490280934802E8
:1032F000E0914C02F0914D02309721F00084F1856D
:10330000E02D0994089585B7806885BF85B78068EA
:1033100085BF089508950C948A190C948B190C9408
:103320008A190C948A190E9483190E948F190C948F
:103330008D1981E008950E9424280E9471050E9441
:10334000BB280E9410160C949119BF92CF92DF9265
:10335000EF92FF920F931F93CF93DF93CDB7DEB71A
:103360002A970FB6F894DEBF0FBECDBF0E949E0510
:103370000E949919811111C08FEF89838A831B8262
:103380000E942D288160782F9D838C8349815A81EA
:103390006B818D810E948A1A54C08FE4C82E82E00E
:1033A000D82E00E010E0B02E802F0E94FA05E82E03
:1033B000F60121916F01F82EF22631F40F5F1F4FB5
:1033C0000E30110581F7D8CF80910A0381FD0E944C
:1033D000000680E090E02F2D30E0482FB901082E44
:1033E00002C0759567950A94E2F760FF25C08E8349
:1033F000BF8281E090E06C0102C0CC0CDD1C4A95DC
:10340000E2F72E2D30E02C213D21232B09F480E022
:1034100088870E942D288160782F9A8789874E811E
:103420005F8168858A850E948A1AF801E15BFD4FF9
:1034300080818C25808305C001968630910569F6D0
:10344000BDCF0E944D2A0E94231990914E028917E8
:10345000A9F00E94231980934E022A960FB6F89481
:10346000DEBF0FBECDBFDF91CF911F910F91FF90B7
:10347000EF90DF90CF90BF900C94D2082A960FB6B1
:10348000F894DEBF0FBECDBFDF91CF911F910F919A
:10349000FF90EF90DF90CF90BF900895DC011196E0
:1034A0002C9111978C91682F70E041E050E001C0A1
:1034B000440F8A95EAF712968C91129730E0882390
:1034C00029F080916D028823E9F006C0F901E35AE2
:1034D000FD4F90819423B1F086E0829FF001839F9D
:1034E000F00D1124E60FF71FEE0FFF1FE05DFE4FFA
:1034F000808191818D939C93F901E35AFD4F8081E6
:10350000482B06C0F901E35AFD4F409580814823BE
:1035100040830895CF93DF93CDB7DEB72B970FB6D7
:10352000F894DEBF0FBECDBF942F4F83252F588751
:1035300069877A878B874A855B85452B31F02F3FDA
:1035400031F481E09F3F19F403C081E001C080E0C5
:1035500080FD04C0CE0107960E944E1ADE0111962E
:1035600086E0FD0111928A95E9F785E0FE01379624
:1035700001900D928A95E1F749815A816B817C8196
:103580008D819E810E9441222B960FB6F894DEBF5A
:103590000FBECDBFDF91CF910895FC018081918155
:1035A0000E94172592959F70963041F480916D028C
:1035B00091E0892780936D0290936C02089588238F
:1035C00009F41AC18238C1F40E94231981FD14C183
:1035D00069E380911E0190911F010E9464270E945F
:1035E000A7252FEF81EE94E0215080409040E1F735
:1035F00000C0000069E319C08338F9F40E94231960
:1036000080FDFAC063E580911E0190911F010E9428
:1036100064270E94A7252FEF81EE94E0215080407F
:103620009040E1F700C0000063E580911E01909199
:103630001F010E946F270C94A7258438C1F40E94B3
:10364000231982FDD9C067E480911E0190911F016A
:103650000E9464270E94A7252FEF81EE94E021505D
:1036600080409040E1F700C0000067E4DECF9CEFAF
:10367000980F913A40F4682F80911E0190911F019C
:103680000E946427D8CF90E2980F983050F487704A
:1036900091E001C0990F8A95EAF7892F0E94592578
:1036A000CACF9BE5980F933070F4853A29F0863A9B
:1036B00031F083E890E005C081E890E002C082E844
:1036C00090E00C94571998E5980F973108F08EC048
:1036D000883A09F445C0893A09F445C08A3A09F4A0
:1036E00045C08B3A09F445C08C3A09F445C08B3B80
:1036F00009F445C08C3B09F445C08D3A09F445C036
:10370000803B09F445C08E3A09F445C08F3A09F46C
:1037100045C0813B09F445C0823B09F445C0833B69
:1037200009F445C0843B09F445C0853B09F445C014
:10373000863B09F445C0873B09F445C0883B09F442
:1037400045C0893B09F445C08D3B09F445C08E3B1B
:1037500009F445C08A3B09F445C080E090E044C0CC
:1037600082EE90E041C089EE90E03EC08AEE90E0AB
:103770003BC085EB90E038C086EB90E035C083EB32
:1037800090E032C084EB90E02FC087EB90E02CC03B
:103790008CEC90E029C08DEC90E026C083E891E0AD
:1037A00023C08AE891E020C082E991E01DC084E94D
:1037B00091E01AC081E292E017C083E292E014C067
:1037C00084E292E011C085E292E00EC086E292E0CF
:1037D0000BC087E292E008C08FE690E005C080E76A
:1037E00090E002C08AE292E00C946D19803F20F0D4
:1037F0000E9455290C94422A0895882309F464C034
:10380000823879F40E94231981FF5EC069E38091B8
:103810001E0190911F010E9464270E94A72569E361
:1038200010C08338B1F40E94231980FF4DC063E5B6
:1038300080911E0190911F010E9464270E94A7257C
:1038400063E580911E0190911F010E946F270C94E7
:10385000A725843879F40E94231982FF35C067E4D4
:1038600080911E0190911F010E9464270E94A7254C
:1038700067E4E7CF9CEF980F913A10F4682FE1CFFF
:1038800090E2980F983050F4877091E001C0990F42
:103890008A95EAF7892F0E945F25D9CF9BE5980F7B
:1038A000933020F480E090E00C94571998E5980F3D
:1038B000973120F480E090E00C946D19803F20F067
:1038C0000E94BD290C94422A0895CF93C82F0E94CC
:1038D000DF1AC93349F42FEF87EE93E0215080407F
:1038E0009040E1F700C000008C2FCF910C94FD1B9D
:1038F000882321F00E9459250C94A7250895882338
:1039000021F00E945F250C94A7250895CF92DF92A5
:10391000EF92FF920F931F93CF93DF937C01062FBB
:10392000C72FFC01158112951F70D281D1110E9401
:1039300079250E944F25882379F0DD2369F080E204
:10394000800F883048F082E00E94F1250E944F25C8
:1039500091E0D82ED92601C0D12CCC2EC2948FE074
:10396000C8228C2D90E0FC01E35AFF4F0C944832A2
:103970008C2F807FCF70882311F0C295C07FDD230C
:1039800099F0CC2309F4BDC180E2800F883010F09B
:10399000011104C08C2F0E94592503C08C2F0E9456
:1039A0006C250E94A725ADC1802F0E94FD1BCC2352
:1039B00009F423C280E2800F883010F0011104C0A6
:1039C0008C2F0E945F2503C08C2F0E9472250E94BD
:1039D000A72513C28C2F807FCF70803211F0C29543
:1039E000C07F002319F00130C9F024C0DD2371F03D
:1039F000112341F0113031F40E948C258C2B0E9450
:103A00009425FBC10E948C258C2B0EC0112319F02C
:103A1000113009F4F2C10E949D251EC0DD2339F04A
:103A2000123008F0EAC18C2F0E94781CE6C11111F7
:103A3000E4C112C0DD2319F01123A9F362C11123DF
:103A400059F0093309F06EC1FFEF27EE83E0F15022
:103A500020408040E1F764C18C2F0E947F1CCDC1C3
:103A60008C2F86958695837019F0813061F0C5C1E1
:103A7000DD2321F0802F9C2F937002C080E090E026
:103A80000E945719C2C1DD2321F0802F9C2F937013
:103A900002C080E090E00E946D19B7C1DD23F9F00B
:103AA000053F51F0063F71F0043FA9F48091860371
:103AB0009091870381600BC080918603909187036A
:103AC000826005C080918603909187038460909303
:103AD000870380938603802F0E9455291EC0053FCF
:103AE00051F0063F71F0043FA9F480918603909154
:103AF00087038E7F0BC080918603909187038D7F13
:103B000005C080918603909187038B7F90938703F4
:103B100080938603802F0E94BD290E94422A75C18E
:103B20008C2F837009F045C0D1116BC1402F429595
:103B300046954770440F440F602F6F70862F90E0BA
:103B4000A0E0B0E0042E04C0880F991FAA1FBB1F7D
:103B50000A94D2F704FF10C00FE010E020E030E03C
:103B600004C0000F111F221F331F4A95D2F7009582
:103B700010952095309503C000E010E09801C6959F
:103B8000C695C370BC01CD01602B712B822B932B8A
:103B9000C23049F058F4C13019F00E94922331C16B
:103BA0000E9480232EC10E94A4232BC10E947E2349
:103BB00028C1DD2319F08C2F817001C086958823E0
:103BC00009F41FC1402F429546954770440F440F9A
:103BD000602F6F70862F90E0A0E0B0E0042E04C04C
:103BE000880F991FAA1FBB1F0A94D2F704FF10C0A9
:103BF0000FE010E020E030E004C0000F111F221F92
:103C0000331F4A95D2F7009510952095309503C043
:103C100000E010E09801C695C695C370BC01CD01C7
:103C2000602B712B822B932BC23049F058F4C1309A
:103C300019F00E945724E5C00E944524E2C00E946A
:103C40006924DFC00E94B823DCC0CF70DD2339F0C7
:103C50008C2F0E94DE23802F0E94781CD2C0802FE0
:103C60000E947F1C8C2F0E94FF23CBC0023FF9F0E3
:103C700028F4003F41F0013F99F03FC0033FF1F0CD
:103C8000043F31F13AC0DD2339F01111B6C08C2F59
:103C90008F710E942424B1C0123008F0AEC0F7CF5B
:103CA000DD2339F08C2F8F710E94DE23A6C0DD2327
:103CB000C9F38C2F8F710E94FF239FC0DD2329F051
:103CC0008C2F8F710E94C92398C00E94C42395C075
:103CD000DD2349F0CF718C2F0E94DE2363E08C2F0F
:103CE0000E94DC258AC081E00E94F125123008F490
:103CF00084C082E00E94F12580C0DD2331F01123D1
:103D000089F2802F0E94DF1A78C0112391F20933C3
:103D100049F49FEFE7EEF3E09150E040F040E1F727
:103D200000C00000802F0E94FD1B67C04C2F4F7009
:103D3000602FC7010E941E070E94EF2266C0023F4B
:103D4000B1F028F4003F49F0013FF9F028C0043FEA
:103D5000B9F058F0053F71F022C0DD2309F447C0E7
:103D600090916D0281E0892708C081E0D827D09327
:103D70006D023DC0D1113BC081E080936D0237C020
:103D8000D11135C010926D0232C0DD2329F080912F
:103D90006C02882329F329C0112311F328C08091D4
:103DA0006C021123C1F0882341F090916D0281E0F3
:103DB000892780936D0210926C02802FDD2319F009
:103DC0000E94DF1A14C00E94FD1B86E0F7011192C9
:103DD0008A95E9F70CC0882351F0D11108C0909161
:103DE0006D0281E0892780936D0210926C024C2F46
:103DF0004F70602FC7010E94B40B88EF8C0D843088
:103E000020F40E9423190E94D208DD20C9F00E94EC
:103E10004B2580FD15C0F70112820E9445250E94A6
:103E2000DE23C7010E94291F0E944525DF91CF9103
:103E30001F910F91FF90EF90DF90CF900C94FF2394
:103E4000DF91CF911F910F91FF90EF90DF90CF9076
:103E500008950F931F93CF93DF93EC01988189818D
:103E60002B813C81232B31F08F3F31F481E09F3F48
:103E700019F403C081E001C080E080FD13C0CE01D1
:103E80000E94E408882371F0688179818A810E9408
:103E900022258C010E947B240E946C23B801CE0154
:103EA0000E94861CDF91CF911F910F9108950E946F
:103EB00079250E9489250E94A7250E94E82A0E9450
:103EC000422A80E090E00E94571980E090E00C9434
:103ED0006D1980911E0190911F010E947A270C9408
:103EE000571F0E9469250C94691FE92FE295EF7016
:103EF0004E2F50E0FA013297EE30F105B0F4E3595D
:103F0000FF4F0C944832803F91F018F4883E68F4DB
:103F10000EC0843F51F40BC0883E48F0813F29F425
:103F200006C093FB882780F9089580E0089581E01A
:103F300008950E9417250E94751F0895CF93DF935F
:103F400000D000D01F92CDB7DEB70F900F900F902A
:103F50000F900F90DF91CF910895CF93DF9300D012
:103F600000D000D0CDB7DEB726960FB6F894DEBFEE
:103F70000FBECDBFDF91CF9108951F93CF93DF93F5
:103F8000C0916E0216E080916F02C81799F0D0E0E0
:103F90001C9FF0011D9FF00D1124E059FD4F408141
:103FA000518162817381848195810E94AD1F219628
:103FB000C770E9CFDF91CF911F9108954091A00282
:103FC0005091A1026091A2027091A3028091A4027B
:103FD0009091A5020C94AD1FCF938091A50282957C
:103FE0008F7009F05FC08091A202882309F45AC043
:103FF00080916E02B0916F027091A002A091A10217
:104000004091A3025091A40291E07F3F09F090E01B
:10401000692FC6E08B1709F445C04115510521F001
:10402000AF3F21F020E003C021E001C0262F90E047
:1040300020FD35C0C89FF001C99FF00D1124E05943
:10404000FD4F21812A132BC02081271328C02281F4
:10405000211125C0238134812417350710F4215004
:104060003109241B350B283C3105C8F42091A502E9
:104070002F7020612093A50226E0289FF001299F40
:10408000F00D1124EB58FD4F80818F70806180838B
:1040900080EA92E00E94291FCF910C94BD1F0196E7
:1040A0008770B8CFCF910895AF92BF92CF92DF9231
:1040B000EF92FF920F931F93CF93DF93CDB7DEB7AD
:1040C00061970FB6F894DEBF0FBECDBF8C0185E0BF
:1040D000F801DE011D9601900D928A95E1F7D80155
:1040E0004C9111965C9111971296EC903091A00230
:1040F0006091A1028091A3029091A402009731F0F7
:104100006F3F31F421E03F3F19F403C021E001C0CB
:1041100020E0B22FB170BB2E20FD60C1F801C3803A
:10412000D480A090A202AA2009F4EEC02091A5029A
:10413000C816D90628F0D601A81BB90BCD0104C0BA
:10414000809590958C0D9D1DFF24F394883C9105DE
:1041500080F0F12C207F09F09CC07C2DD98AC88A80
:104160006E2D89890E949E1F80EA92E00E94291F7D
:104170002DC1822F807F09F054C0561314C0431301
:1041800012C0FE2CE1100FC02F7020612093A502F9
:104190000E94DE1F80EA92E00E94291F8091A50202
:1041A000F80185835CC1CD2831F05F3F31F481E0B7
:1041B0004F3F19F403C081E001C080E080FD03C0DF
:1041C00081E08E2502C080E090E0F82FF170FF2E94
:1041D00080FF1CC080916E0220916F0236E0821732
:1041E00009F41AC190E0389FF001399FF00D1124B5
:1041F000E059FD4F6181561306C06081461303C02C
:104200006281E61203C001968770E9CFFE2CEE2092
:1042100009F425C18091A50281608093A502F12C4B
:104220001EC1561309C0431307C0E11005C0809199
:10423000A502F8018583A4C04D875E878D859E8584
:104240000E94991F882379F1EE2069F12091A5023F
:10425000822F82958F7090E0029774F08091A00277
:104260009091A10298878F831986DB86CA862C8756
:10427000CE0107960E94291F86E0F801A0EAB2E06D
:1042800001900D928A95E1F70E94EC1F0E94DE1FBB
:104290000DC0561771F04D875E878D859E850E94F3
:1042A000991F81111AC0C8010E94291FFF24F3948D
:1042B000D6C04313F0CFE110EECF8091A502F801F4
:1042C0008583C8010E94291F86E0E0EAF2E0DF0151
:1042D0001D928A95E9F7FA2CC2C0EE2021F32091B5
:1042E000A502822F82958F7090E002972CF2809128
:1042F000A0029091A1029A8389831B82DD82CC82E5
:104300002E83CE010196B6CFC816D90628F0F60145
:10431000E81BF90BCF0104C0809590958C0D9D1D75
:10432000883C910548F0F12C7C2DD98AC88A6E2DE5
:1043300089890E949E1F4AC0FE2CEE2009F4B3CF4B
:10434000561333C0431331C02091A50220FD24C071
:10435000822F82958F70482F50E041155105E1F072
:10436000D80115962C9315974F30510549F08F5F62
:10437000982F9295907F822F8F70892B15968C9312
:10438000C8010E94291F86E0F801A0EAB2E001906E
:104390000D928A95E1F73DC086E0F801A0EAB2E00F
:1043A00001900D928A95E1F75AC04D875E878D8501
:1043B0009E850E94991F81115FCF8091A502816027
:1043C0008093A502C8010E94291F49C0E0EAF2E0DB
:1043D00086E0DF011D928A95E9F71BC0EE2009F403
:1043E00062CF4D875E878D859E850E94991FF82E2E
:1043F000882309F458CF86E0F801A0EAB2E00190E2
:104400000D928A95E1F780EA92E00E94CD1A0E940F
:10441000EC1F0E94DE1F23C04D875E878D859E8521
:104420000E941725292F22952F70223028F49F7083
:1044300039F0811105C00BC0243028F49F7049F475
:10444000805E883020F0C8010E94291FBF2CFB2C01
:1044500006C0D80115969C91907F91F7F8CF8F2DCB
:1044600061960FB6F894DEBF0FBECDBFDF91CF913E
:104470001F910F91FF90EF90DF90CF90BF90AF9082
:1044800008951F93CF93DF93CDB7DEB72C970FB668
:10449000F894DEBF0FBECDBF4F83588769877A87F8
:1044A0008B879C87CE0107960E9454208823D1F0E9
:1044B0009F8188852A853B85232B31F08F3F31F4FE
:1044C00081E09F3F19F403C081E001C080E080FDDE
:1044D00047C04F81588569857A858B859C850E9468
:1044E000AD1F3EC086E0FE013796DE0111960190B9
:1044F0000D928A95E1F7FF81E8856A857B856115D4
:10450000710531F0EF3F31F481E0FF3F19F403C052
:1045100081E001C080E080FD23C020916F0230E087
:10452000C90101968770992740916E0250E0841767
:104530009507F1F1F983EA837D836C8396E0929F7E
:10454000D001939FB00D1124A059BD4FFE013196AB
:1045500001900D929A95E1F780936F020E94BD1F22
:1045600016E080916E0290916F02891771F1189F89
:10457000C001112480599D4F0E945420882329F1A5
:10458000E0916E021E9FF0011124E059FD4F408121
:10459000518162817381848195810E94AD1F8091D8
:1045A0006E0290E001968770992780936E02D9CFB2
:1045B0000E94711F10926F0210926E02E0EAF2E008
:1045C00086E0DF011D928A95E9F72C960FB6F894E4
:1045D000DEBF0FBECDBFDF91CF911F910895EF9247
:1045E000FF920F931F93CF93DF938C01892B09F4D4
:1045F0006CC0F12CEE24E394E8012196F80184913B
:10460000843740F4843008F051C0813081F082302A
:1046100019F15BC0853709F444C0A8F19CE7980FF5
:10462000903708F052C08F770E94FD1B41C00E5F8B
:104630001F4FFE01849190E2980F983050F48770DC
:10464000FE2D01C0FF0F8A95EAF78F2F0E947C256F
:1046500014C00E94DF1A2DC00E5F1F4FFE0184910F
:1046600090E2980F983060F48770FE2D01C0FF0F24
:104670008A95EAF78F2F0E9482250E94A72519C0EC
:104680000E94FD1B16C00E5F1F4FFE01C491CC237C
:1046900081F08FE99FE00197F1F700C00000C15061
:1046A000F6CF0E5F1F4FFE01F49003C00E94DF1A89
:1046B0008E018F2D882309F49FCFEFE9FFE031971A
:1046C000F1F700C000008150F5CFDF91CF911F912D
:1046D0000F91FF90EF900895089508950C946D2325
:1046E0000C946E230E9470236093E1027093E202A7
:1046F0008093E3029093E4020C94571F0C9472236E
:104700000F931F930091E1021091E2022091E302C6
:104710003091E402602B712B822B932B1F910F9110
:104720000C9472230F931F930091E1021091E20207
:104730002091E3023091E4026023712382239323CA
:104740001F910F910C9472230F931F930091E1021C
:104750001091E2022091E3023091E4026027712778
:10476000822793271F910F910C9472230C946D2331
:104770000E94B6236093DD027093DE028093DF0215
:104780009093E0020C94571F60E070E0CB010C9412
:10479000B8230F931F9341E050E060E070E08A017E
:1047A0009B0104C0000F111F221F331F8A95D2F7EF
:1047B000C901B8011F910F910C94B8230F931F9357
:1047C00041E050E060E070E004C0440F551F661FF8
:1047D000771F8A95D2F78091DD029091DE02A09139
:1047E000DF02B091E0028A019B01082B192B2A2BD2
:1047F0003B2BC901B8011F910F910C94B8230F9363
:104800001F9341E050E060E070E004C0440F551F8A
:10481000661F771F8A95D2F74095509560957095E1
:104820008091DD029091DE02A091DF02B091E00262
:104830008A019B01082319232A233B23C901B801BC
:104840001F910F910C94B8230F931F9341E050E0F8
:1048500060E070E004C0440F551F661F771F8A9503
:10486000D2F78091DD029091DE02A091DF02B0913B
:10487000E0028A019B01082719272A273B27C90143
:10488000B8011F910F910C94B8230F931F930091BF
:10489000DD021091DE022091DF023091E002602BF8
:1048A000712B822B932B1F910F910C94B8230F9394
:1048B0001F930091DD021091DE022091DF02309102
:1048C000E00260237123822393231F910F910C94A4
:1048D000B8230F931F930091DD021091DE02209107
:1048E000DF023091E00260277127822793271F9112
:1048F0000F910C94B8230895292F220F920F990F2E
:10490000890FE82FE695E695E695877051E001C09E
:10491000550F8A95EAF785E0E89FF0011124EA55E2
:10492000FD4F20E030E070E04081CB01022E02C05C
:10493000969587950A94E2F781708195842785235F
:10494000842781932F5F3F4F2530310569F7089504
:10495000292F220F920F990F890F682F6695669560
:104960006695982F977085E0689FB001112440E00C
:1049700050E080E0FB01E40FF51FEA55FD4F208178
:1049800030E0092E02C0369527950A94E2F721708F
:104990003327042E01C0220F0A94EAF7822B4F5FBF
:1049A0005F4F4530510531F70895BF92CF92DF92A6
:1049B000EF92FF920F931F93CF93DF938C01C090E0
:1049C000DD02D090DE02E090DF02F090E002809104
:1049D000E1029091E202A091E302B091E402C82AC0
:1049E000D92AEA2AFB2ACFE1D0E0D701C6010C2E52
:1049F00004C0B695A795979587950A94D2F780FD40
:104A000004C0219790F7B12C07C0BC2EB8018C2FA1
:104A10000E94D00B0197A9F38B2DDF91CF911F91AD
:104A20000F91FF90EF90DF90CF90BF900895CF93BC
:104A3000DF93EC010E94D524BE010E94D00BDF91D0
:104A4000CF9108951F93CF93DF93EB0190916B0269
:104A5000992321F0CB010E94172513C0882349F028
:104A6000CB010E94D524182F682FCE010E947C24F0
:104A700004C0CB010E94A824182FBE01812F0E94E0
:104A8000D00BDF91CF911F9108958091E50285951C
:104A90008595859508958091E50287700895909198
:104AA000E502977081E009F480E0089580910903A0
:104AB000089590910903892B8093090308958095A7
:104AC0009091090389238093090308958093090332
:104AD000089510920903089590910803892B8093FB
:104AE0000803089580959091080389238093080313
:104AF000089510920803089590910703892B8093DD
:104B000007030895809590910703892380930703F5
:104B100008951092070308958091E602089508957C
:104B20000C948F250C9490259091E602981721F013
:104B30008093E6020C94922508958091E6028823E2
:104B400029F01092E60280E00C9492250895E091FD
:104B50001E01F0911F01809109038083E0911E01E5
:104B6000F0911F01908180910803892B8083E0914F
:104B70001E01F0911F01908180910703892B808392
:104B80008091E602882381F0E0911E01F0911F01DF
:104B90009081892B808380911E0190911F010E943A
:104BA000FE2681110E949D2580911E0190911F017A
:104BB0000C942F190C948F2598E0899F9001112453
:104BC000262B2093E5020E94DE238091E502859545
:104BD000859585950C94DA251092E50280E00C9479
:104BE000DA252091E502809582238093E502982FB3
:104BF000977079F430E0482F082E000C550B2417DD
:104C0000350739F08595859585950E94FF230C948D
:104C1000EC250895CF92DF92EF92FF926C01EE2483
:104C2000FF24C114D104E104F10421F0C701B6014D
:104C300020E101C020E0C72ED82EE92EFF24C114A8
:104C4000D104E104F10419F0285FC701B6016B013A
:104C50007C0154E0F694E794D794C7945A95D1F721
:104C6000C114D104E104F10419F02C5FC701B601AD
:104C70006B017C0142E0F694E794D794C7944A957F
:104C8000D1F7C114D104E104F10419F02E5FC7017A
:104C9000B601DC01CB01B695A79597958795892B31
:104CA0008A2B8B2B09F02F5F822FFF90EF90DF90E4
:104CB000CF90089580E090E00E948A3321E08C3EFE
:104CC0009E4F09F020E0822F089582E090E00C943E
:104CD0007C3383E090E00C947C33CF9384E090E0CD
:104CE0000E947C33C82F81E290E00E947C332C2FFD
:104CF00030E0A901582BCA01CF910895CF93C92F55
:104D0000682F84E090E00E9490336C2F81E290E065
:104D1000CF910C9490338FE090E00C948433AB01EE
:104D2000BC018FE090E00C94A233AB01BC0183E1A5
:104D300090E00C94A23360E070E0CB010C949526D7
:104D40006CEE7EEF80E090E00E94AE3360E082E0A7
:104D500090E00E94903360E083E090E00E94903306
:104D60001092E1021092E2021092E3021092E40229
:104D700060E084E090E00E94903360E081E290E0A7
:104D80000E94903360E085E090E00E94903360E004
:104D900086E090E00E9490336FEF87E090E00E9401
:104DA000903340E050E0BA0188E090E00E94A233E6
:104DB00060E08DE090E00E94903340E050E0BA0166
:104DC00088E190E00E94A23360E087E190E00E94D9
:104DD000903340E050E0BA018CE190E00E94A233B1
:104DE00060E080E290E00E9490330C9406070C94FF
:104DF000A026682F8EE090E00C949033FC01329650
:104E000080912F01882331F080918C0387FF02C0AD
:104E10009EE101C096E080E0915028F0219122238C
:104E2000D9F38F5FF9CF08959C01FC0132969FEF73
:104E300080E04191461789F09F3F19F4411101C06C
:104E4000982F8F5F8630A9F79F3F39F0F901E90F5E
:104E5000F11D97FDFA956283089508959C012A5FDC
:104E60003F4FFC014281461301C012820196821716
:104E70009307B9F70895262F2695269526952E3166
:104E800068F4FC01E20FF11D677021E030E001C021
:104E9000220F6A95EAF78281282B22830895262F14
:104EA0002695269526952E3170F4FC01E20FF11D12
:104EB000677021E030E001C0220F6A95EAF7209583
:104EC000828128232283089520912F01222329F013
:104ED00020918C0327FD0C943B270C9414272091E0
:104EE0002F01222329F020918C0327FD0C944F27BA
:104EF0000C942E2720912F01FC013296222331F0B1
:104F000080918C0387FF02C08EE101C086E0DF0143
:104F10001D928A95E9F7089508950C948C27CF93F4
:104F20000E948B050E949E050E948D27C0E08C2F59
:104F30000E94FA05811104C0CF5FCE30C1F701C0D5
:104F400081E0CF9108950C948C270C94A3270E94A4
:104F5000A52780919203843009F439C010920B0385
:104F600020E488E190E00FB6F894A8958093600063
:104F70000FBE2093600080E00E94D2080E9450166D
:104F800080910C0381110AC081E080930C03809111
:104F90004503817080930D030E947E150E94A52712
:104FA00083B7817F846083BF83B7816083BF789438
:104FB000889583B78E7F83BF0FB6F894A8958091AC
:104FC0006000886180936000109260000FBE0895B9
:104FD0000C948C270E94711F0E9423190E94D208F2
:104FE00010920C0380910D0381110E9448160E94BB
:104FF00090150C94E8271F920F920FB60F92112470
:105000008F939F93AF93BF9380910B03811113C034
:105010008091880390918903A0918A03B0918B03BA
:105020004196A11DB11D8093880390938903A0939D
:105030008A03B0938B03BF91AF919F918F910F9093
:105040000FBE0F901F90189582E084BD93E095BD30
:105050009AEF97BD80936E0008952FB7F8948091D2
:10506000880390918903A0918A03B0918B032FBF8D
:105070000895CF92DF92EF92FF920F931F932FB775
:10508000F894409188035091890360918A0370914C
:105090008B032FBF6A017B01EE24FF248C0120E0EB
:1050A00030E0C016D106E206F30610F44150510973
:1050B0009A01281B390BC9011F910F91FF90EF90A6
:1050C000DF90CF90089578941F920F920FB60F92B1
:1050D00011248F939F93AF93BF93809188039091F6
:1050E0008903A0918A03B0918B030196A11DB11D84
:1050F0008093880390938903A0938A03B0938B03D2
:10510000BF91AF919F918F910F900FBE0F901F9005
:105110001895F89481E08093E00080E28093D800B5
:10512000E9ECF0E010828FE19EE40197F1F700C016
:1051300000001DBA109268001CBC10BE1FBA10926D
:105140007A0010926E0010926F001092710010920F
:1051500072001082ECEBF0E0108214B817B81AB8A5
:105160001DB810BA108215B818B81BB81EB811BAFD
:105170000C94003F08950E945A26811102C00E949B
:10518000F7260E94652680930A030E946D2690935D
:105190008D0380938C030E946926682F70E080E065
:1051A00090E00C947E238091120380FF0BC06091ED
:1051B000230185E0689FB001112475956795759569
:1051C00067952BC081FF09C06091230185E0689F2E
:1051D000B00111247595679520C082FF07C06091CA
:1051E000230185E0689FB001112417C0909111033D
:1051F0009923D1F060912201961788F7209123011D
:1052000085E0289F90011124929FA001939F500D4B
:10521000112470E0CA010E9434326038710540F4F4
:105220006115710519F406C065E070E0862F0895D8
:105230008FE7089581E008958091120380FF08C0F0
:105240006091210170E0759567957595679521C00E
:1052500081FF06C06091210170E07595679519C0C6
:1052600082FF04C06091210170E010C09091110391
:10527000992399F0609120019617A0F78091210160
:10528000899FC001112470E00E943432603871059A
:1052900040F46115710519F406C061E070E0862FD5
:1052A00008958FE7089581E00895803F21F40E94DA
:1052B000D328819504C0813F29F40E94D32880938C
:1052C00016030895823F21F40E94D328819504C0DB
:1052D000833F29F40E94D328809315030895893FC2
:1052E00019F40E941C2905C08A3F31F40E941C2930
:1052F00081958093170308958B3F21F40E941C2908
:10530000819504C08C3F29F40E941C2980931803C6
:105310000895843F21F480911403816017C0853F74
:1053200021F480911403826011C0863F21F48091A2
:10533000140384600BC0873F21F4809114038860BC
:1053400005C0883F31F48091140380618093140379
:1053500008958D3F21F48091120381600BC08E3F30
:1053600021F480911203826005C08F3F29F480915F
:1053700012038460809312030895803F39F4809172
:10538000160387FF6CC01092160369C0813F29F491
:10539000809116031816BCF362C090911503823FEA
:1053A00029F497FF5CC01092150359C0833F19F48C
:1053B0001916CCF354C0893F41F480911703181695
:1053C0000CF04DC0109217034AC08A3F29F4809117
:1053D000170387FF44C0F6CF8B3F39F48091180341
:1053E00087FF3DC0109218033AC08C3F29F480918A
:1053F00018031816BCF333C0843F21F480911403C2
:105400008E7F17C0853F21F4809114038D7F11C0DA
:10541000863F21F4809114038B7F0BC0873F21F4DA
:1054200080911403877F05C0883F31F48091140375
:105430008F7E8093140313C08D3F21F4809112035B
:105440008E7F0BC08E3F21F4809112038D7F05C0AB
:105450008F3F29F4809112038B7F809312038091F8
:10546000150381110EC08091160381110AC080912D
:105470001703811106C080911803811102C0109298
:105480001103089583E193E00E9449190E942D2899
:105490009093100380930F0308951F93CF93DF938E
:1054A00080910F03909110030E943928AC019091D4
:1054B0001103992321F02091240130E006C02091AE
:1054C0000E038AE0289F900111244217530708F425
:1054D0007BC080911503C0911603D09117031091E2
:1054E0001803811107C0C1116BC0D11169C011111E
:1054F00067C06AC09F3F19F09F5F90931103181611
:1055000024F40E94D328809315038091150387FF0C
:1055100005C00E94D3288195809315031C1624F49E
:105520000E94D328809316038091160387FF05C03D
:105530000E94D3288195809316033091150333235D
:10554000E1F0209116032223C1F045EB3403C001A2
:105550001124992319F09093150303C081E08093DF
:10556000150335EB2303C0011124992319F09093FF
:10557000160303C081E0809316031D1624F40E94D5
:105580001C29809317038091170387FF05C00E9491
:105590001C29819580931703111624F40E941C295D
:1055A000809318038091180387FF05C00E941C296F
:1055B000819580931803DF91CF911F910C94422A1B
:1055C0009F3F09F099CFAACFDF91CF911F91089506
:1055D000E3E1F3E086E0DF011D928A95E9F710929E
:1055E00011031092120308958091390308950F93C7
:1055F0001F93CF93DF9300D01F92CDB7DEB78C01FE
:105600000E94652D823011F0843021F584E0898379
:105610001B830A8382E08093E9008FEF9091E8007A
:10562000815095FD06C095ED9A95F1F70000811126
:10563000F5CF8091E80085FF0DC040E050E063E0C9
:1056400070E0CE0101960E94822D8091E8008E7755
:105650008093E8000F900F900F90DF91CF911F91F2
:105660000F910895CF93DF9300D01F92CDB7DEB78F
:1056700020919203243031F523E029838058910949
:105680009B838A8382E08093E9008FEF9091E8000A
:10569000815095FD06C095ED9A95F1F700008111B6
:1056A000F5CF8091E80085FF0DC040E050E063E059
:1056B00070E0CE0101960E94822D8091E8008E77E5
:1056C0008093E8000F900F900F90DF91CF91089595
:1056D000CF93DF93EC010E94652D823011F084306E
:1056E000F9F482E08093E9008FEF9091E800815017
:1056F00095FD06C095ED9A95F1F700008111F5CF63
:105700008091E80085FF0CC040E050E066E070E06A
:10571000CE010E94822D8091E8008E778093E80070
:10572000DF91CF910895CF93DF93EC010E94652D17
:10573000823011F08430D9F580912F01882339F01F
:1057400080918C0387FF03C060E282E002C068E0C2
:1057500081E08093E9008FEF9091E800815095FD02
:1057600006C095ED9A95F1F700008111F5CF809173
:10577000E80085FF1CC080912F01811105C040E029
:1057800050E068E070E003C070E040E050E0CE011F
:105790000E94822D8091E8008E778093E80080E25D
:1057A000FE01A9E1B3E001900D928A95E1F7DF9146
:1057B000CF91089580919103811109C00E94132F08
:1057C0000E94702F8091E20084608093E20008952F
:1057D000109291030895089508950C94EA2742E0E9
:1057E00061EC81E00E948C2E42E261EC82E00C943C
:1057F0008C2E80919403833009F460C030F48130A2
:1058000071F0823009F499C008958A3009F485C096
:105810008B3009F46BC0893009F0A7C020C080919B
:105820009303813A09F0A1C08091E800877F8093BB
:10583000E8008091970390919803892B21F460E20E
:1058400089E193E003C060E080E090E070E00E94B6
:10585000CD2D8091E8008B778093E80008958091AA
:105860009303813209F081C080919703909198034E
:10587000029708F07AC08091E800877F8093E80063
:105880008091E80082FD05C0809192038111F8CFDC
:105890006CC02091F3008091F20090E0922B02976F
:1058A00029F48091F1008B7F813021F48091F10007
:1058B000809339038091E8008B7753C080919303E4
:1058C000813A09F052C08091970390919803892BF7
:1058D00009F04BC08091E800877F8093E8008091B9
:1058E000E80080FFFCCF80912F0136C080919303A8
:1058F0008132D9F58091970390919803892BA9F56E
:105900008091E800877F8093E8000E94C12E8091FB
:10591000950380932F010C94711F80919303813222
:1059200021F58091E800877F8093E8000E94C12ED6
:105930008091960380933A03089580919303813A6E
:10594000A1F48091E800877F8093E8008091E800CF
:1059500080FFFCCF80913A038093F1008091E800B2
:105960008E778093E8000C94C12E089584B7877FCA
:1059700084BF0FB6F894A8958091600088618093E9
:105980006000109260000FBE80E88093610010926A
:1059900061000E9493190E94132F0E94702F809122
:1059A000E20084608093E20078940E9405320E94B5
:1059B0009B1985E291E00E941E1980919203853027
:1059C00069F40E94A727809190038823B1F30E9475
:1059D0008F27882391F30E946C2DEFCF0E94A51989
:1059E0000E945316EACF0C94F52C292F332723302D
:1059F0003105C9F060F42130310581F022303105E4
:105A000009F04AC08BE390E021EE37E049C0213233
:105A1000310511F12232310579F13EC082E190E089
:105A20002CE138E03DC099278130910561F040F0CC
:105A30008230910559F0039779F5E7EAF7E008C05D
:105A4000EDEDF7E005C0E5ECF7E002C0EDEAF7E0C8
:105A5000849190E09F0124C06115710541F061308F
:105A60007105D1F489E090E02CE038E019C089E0BC
:105A700090E023EF37E014C06115710541F061300B
:105A8000710551F480EC90E02EE238E009C080E42A
:105A900090E02EEE38E004C080E090E020E030E0BE
:105AA000FA013183208308950895CF93C82F0E946F
:105AB000542DC0933B03CF9108958091920384307D
:105AC00011F081E0089582E0089580913B038111F7
:105AD00002C00C945D2D089580E189BD82E189BDED
