:100000000C9433040C9450040C9450040C9450043D
:100010000C9450040C9450040C9450040C94500410
:100020000C9450040C9450040C94BB2B0C948D2C09
:100030000C9409220C9450040C9450040C94500419
:100040000C9450040C9450040C9450040C945004E0
:100050000C9450040C9471220C9450040C94500491
:100060000C9450040C9450040C9450040C945004C0
:100070000C9450040C9450040C9450040C945004B0
:100080000C9450040C9450040C9450040C945004A0
:100090000C9450040C9450040C9450040C94500490
:1000A0000C9450040C9450040C945004E204E504A5
:1000B000E804EB04EE04F004F304C607C807D30712
:1000C000CA07CC07CE07D007D207D507D707D9076D
:1000D000E407DB07DD07DF07E107E307E60794171F
:1000E0009417C617C617F91717187619D41959187F
:1000F000D419FC18FC186D19D419D419CE19091982
:1001000009190919091909190919091909190919DF
:1001100009190919091909190919091909191A19BE
:1001200027192E1935193F19651A651A771A771A82
:100130006E1A771A771A771A651A651A731A771A68
:10014000771A731AFA2C212D192E212D192E6D2DA7
:10015000902D192EE72DF62D07634236B79BD8A7B1
:100160001A39685618AEBAAB558C1D3CB7CC5763DC
:10017000BD6DEDFD753EF6177231BF000000803F8A
:1001800005A84CCDB2D44EB93836A9020C50B9915D
:100190008688083CA6AAAA2ABE000000803F657295
:1001A000676F646F785F657A2F676C6163616D62FA
:1001B0007265204020302E362E302D31352D67359A
:1001C0003634316231006572676F646F785F657ACB
:1001D0002F676C6163616D627265204020302E363E
:1001E0002E302D31352D6735363431623100000027
:1001F000F0A10000F0A32F004C002900E100015104
:1002000000001E00140004001D006400E6001F0032
:100210001A0016001B00E2002B0020000800070057
:100220000600E0002C002100150009001900E30081
:100230004D00220017000A00050000005000500089
:1002400002530000015300004F004F000253000012
:1002500001530000510023001C000B00110000009E
:100260005200240018000D001000E7004600250091
:100270000C000E003600E4002800260012000F00DB
:100280003700E2002A002700130033003800300056
:10029000E6002D002E003400E50001510000D45C82
:1002A000010001000100010000003A0038002014A4
:1002B0003402010001003B00271430002F00010030
:1002C00001003C00211422002214010001003D0025
:1002D0002E142D002D14010001003E0023142414BF
:1002E0001F140000010001000100000001000000D7
:1002F00001000100010000000100000001003F00BA
:100300002E002702360200000100400024022102D4
:100310001E02010001004100250222021F0201000D
:1003200001004200260223022002010001004300D6
:1003300032002E0225140100010044004500010096
:100340000100010000002E004C002900E100C30064
:1003500000001E00040014001A006400E6002002E1
:100360001D0016001B00E2002B00340008000700EF
:100370000600E0002C003402150009001900E3001B
:100380004D00260217000A0005000000650050001D
:1003900002530000035300004A004F0002530000C4
:1003A000035300004B002D001C000B001100000047
:1003B0004600350018000D003600E7004E002D0203
:1003C0000C000E003300E4002800230212000F008E
:1003D0003302E2002A001F02130010001E02210255
:1003E000E60027022E002202E500C3000000D45CD4
:1003F000010001000100010000003A001E0220027D
:1004000022024F0001003B001F0221022302520082
:10041000C15C3C002F0226022F005100C25C3D004F
:10042000300227023000500001003E00310235004A
:1004300035020000BB5C010001000000010000006B
:10044000010001000100000001000000BA5C3F0053
:100450002E00270037000000D55C4000240021005A
:100460001E00500001004100250022001F00510025
:10047000BD5C42002600230020005200BE5C430009
:1004800025022E0231004F0001004400450001000A
:1004900001000100000000000000000000002A2B05
:1004A0002800000000000000000000000000000024
:1004B0000029000000002C1E34202122243426278D
:1004C000252E362D3738271E1F20212223242526AE
:1004D0003333362E37381F0405060708090A0B0C7C
:1004E0000D0E0F101112131415161718191A1B1CC4
:1004F0001D2F3130232D350405060708090A0B0C82
:100500000D0E0F101112131415161718191A1B1CA3
:100510001D2F3130354C00000000000000000000AD
:1005200000000000000000000000000000000000CB
:1005300000000000000000010101010101000101B3
:1005400001010000000000000000000000000000A9
:10055000010001000101010101010101010101018D
:10056000010101010101010101010101010101017B
:100570000100000001010000000000000000000078
:10058000000000000000000000000000000000006B
:100590000001010101006801F000B40078005A0078
:1005A0007F3F1F643214643214783C1E1E140A0507
:1005B000000000000001010101010101010102022E
:1005C0000202020202020203030303030303030401
:1005D00004040404040505050505060606060607C9
:1005E000070707080808080909090A0A0A0A0B0B7D
:1005F0000B0C0C0C0D0D0D0E0E0F0F0F101011111A
:10060000111212131314141515161617171818199A
:10061000191A1A1B1C1C1D1D1E1F1F2020212222FF
:100620002324252526272728292A2B2B2C2D2E2F3E
:100630002F30313233343536363738393A3B3C3D5A
:100640003E3F4041424344464748494A4B4C4D4F48
:1006500050515253555657585A5B5C5E5F60626307
:10066000646667696A6C6D6E707173747678797B95
:100670007C7E8081838486888A8B8D8F91929496EC
:10068000989A9B9D9FA1A3A5A7A9ABADAFB1B3B508
:10069000B7B9BBBDBFC1C4C6C8CACCCFD1D3D6D8E9
:1006A000DADCDFE1E4E6E8EBEDF0F2F5F7FAFCFF87
:1006B00004033000000016034500720067006F005D
:1006C00044006F007800200045005A000000160327
:1006D0004500720067006F0044006F007800200042
:1006E00045005A0000000403090409026D000401DA
:1006F00000A0FA0904000001030101000921110111
:1007000000012240000705810308000A09040100D6
:100710000103010200092111010001224D0007051A
:10072000820308000A0904020001030000000921F5
:10073000110100012236000705830308000A09049D
:10074000030001030000000921110100012239000A
:10075000070584032000011201100100000008EDCC
:10076000FE071301000102030105010906A10105AD
:100770000719E029E7150025019508750181020593
:1007800008190129059505750191029501750391D7
:10079000010507190029F71500250195F875018154
:1007A00002C005010980A10185021601002603008F
:1007B0001A81002A8300751095018100C0050C097B
:1007C00001A1018503160100269C021A01002A9C42
:1007D00002751095018100C005010902A1010901FE
:1007E000A1000509190129051500250195057501C7
:1007F00081029501750381010501093009311581D7
:10080000257F95027508810609381581257F950198
:1008100075088106050C0A38021581257F9501753A
:10082000088106C0C005010906A101050719E029D4
:10083000E71500250195087501810295017508816C
:1008400001050819012905950575019102950175A4
:100850000391010507190029FF150026FF009506E1
:1008600075088100C00011241FBECFEFDAE0DEBFA3
:10087000CDBF11E0A0E0B1E0ECE1F4E602C00590EC
:100880000D92AC3DB107D9F723E0ACEDB1E001C06A
:100890001D92AB3BB207E1F70E94E6280C940C32A4
:1008A0000C9400001092B9008AE08093B80008957B
:1008B00094EA9093BC009091BC0097FFFCCF90917C
:1008C000B900987F983021F0903111F081E00895BF
:1008D0008093BB0084E88093BC008091BC0087FFBC
:1008E000FCCF8091B900887F883111F0803471F796
:1008F00080E0089584E98093BC008091BC0084FD71
:10090000FCCF08958093BB0084E88093BC00809165
:10091000BC0087FFFCCF9091B900987F81E09832AE
:1009200009F480E0089584E88093BC008091BC00C5
:1009300087FFFCCF8091BB00089580B38C7080BB93
:1009400081B3836F81BB089584B1807F84B985B101
:10095000807F85B98AB1837F8AB98BB1837F8BB958
:100960003E9846980895CF93E82F873008F58091F8
:10097000000181113AC0CE2F80E40E945804809378
:100980000001811112C082E10E9482048093000163
:1009900081110BC081E090E001C0880FCA95EAF791
:1009A00080950E94820480930001CF910C947A0478
:1009B00090E0FC013797E730F105B8F4EA5AFF4FB1
:1009C0000C94BE31209A289810C0219A29980DC005
:1009D000229A2A980AC0239A2B9807C0529A01C0DB
:1009E000539A5B9802C03E9A4698CF910895CF9350
:1009F000873018F580910001811128C080E40E94A1
:100A0000580480930001882311F0C0E012C083E1F4
:100A10000E948204809300018111F7CF81E40E943B
:100A20005804809300018111F0CF0E949304C82FD5
:100A3000C0950E947A048C2F0AC09FB18FB1807F2D
:100A4000869586959370892B809501C080E0CF9123
:100A500008950C94F0060E946606809300010E949F
:100A6000A4040E949D04E1E3F2E08DED91E0119277
:100A7000DC0126E01D922150E9F7069622E0813341
:100A80009207A9F70C94370A0E946606809300012A
:100A90000E94A4040E949D04E1E3F2E0119282E02E
:100AA000EF33F807D9F7089526E0829FC00111249B
:100AB000FC01E352FE4F20E030E080E041E050E0F6
:100AC0009081992319F09150908307C0BA01022EAA
:100AD00001C0660F0A94EAF7862B2F5F3F4F3196CD
:100AE0002630310569F7089596E0699FB001112419
:100AF00020E030E090E04FE0FC01022E02C0F595CE
:100B0000E7950A94E2F7E0FF06C0FB01E20FF31F4E
:100B1000E352FE4F40832F5F3F4F2630310561F790
:100B20000895EF92FF920F931F93CF93DF938091DD
:100B30000001882379F08091DC018F5F8093DC01D4
:100B4000811108C00E94660680930001811102C0D5
:100B50000E94F80581E3E82E82E0F82EC0E08C2F99
:100B60000E94B30407E00C0F802F0E94B3048C2F67
:100B70000E945405182F8C2F0E94F704F7019081D2
:100B8000D12FD095D9238123D82B6C2F892F8D2756
:100B90000E947405F701D1937F01802F0E945405B4
:100BA000182F802F0E94F704F7019681D12FD0953E
:100BB000D9238123D82B602F892F8D270E9474057C
:100BC000F701D6830E94A404CF5FC73041F60E948C
:100BD000390A81E0DF91CF911F910F91FF90EF9043
:100BE0000895E82FF0E0EF5CFD4F808108950895AF
:100BF00056985E9825982D9826982E9827982F9885
:100C00008FEF90E0909389008093880090938B0001
:100C100080938A0090938D0080938C00259A2D9A62
:100C20002FEF80E792E0215080409040E1F700C034
:100C30000000269A2E9A2FEF80E792E02150804004
:100C40009040E1F700C00000279A2F9A2FEF80E72D
:100C500092E0215080409040E1F700C000002598CC
:100C60002D982FEF80E792E0215080409040E1F7EF
:100C700000C0000026982E982FEF80E792E02150C8
:100C800080409040E1F700C0000027982F985698C8
:100C90005E9825982D9826982E9827982F98089535
:100CA00089EA8093800089E08093810024982C98C1
:100CB0003F988AB18F7C8AB96E98479A8BB18063CE
:100CC0008BB9769A0E94F8050C94EF0680E2809327
:100CD000000180913F0281110EC00E94520481E008
:100CE00080933F022FEF83ED90E3215080409040AE
:100CF000E1F700C0000080E40E94580480930001E6
:100D000081112EC00E94820480930001811128C0AD
:100D10000E94820480930001811122C08FE30E940F
:100D200082048093000181111BC00E947A0480E438
:100D30000E94580480930001811112C08CE00E942F
:100D400082048093000181110BC00E948204809371
:100D50000001811105C08FE30E948204809300018D
:100D60000E947A04809100010895662319F0613091
:100D700051F00EC0FC018281882351F086EC91E095
:100D80000E94340A05C0FC01828181110E940A215F
:100D900080E090E00895FB01843D2CE5920769F026
:100DA000853D2CE5920789F0833D9C45B1F4828115
:100DB0008823A1F00E940A210EC08281882371F04D
:100DC0008EE991E00E94340A06C08281882331F0C6
:100DD00081E00E946F1080E0089581E008950895F9
:100DE00060910303709104038091050390910603C1
:100DF0000E94BA2056985E9825982D9826982E988D
:100E000027982F98823039F0833041F0813041F4B7
:100E1000259A2D9A0895269A2E9A0895279A2F9A00
:100E2000089581E008950C94CB060E94511A2FEF8B
:100E300084E39CE0215080409040E1F700C0000036
:100E40000C949722FF920F931F93CF93DF938C0103
:100E5000FC01C081D18180919102811113C08281F6
:100E6000882349F0CE010E94B01FF82E682FCE01D2
:100E70000E94571F04C0CE010E94831FF82EBE019E
:100E80008F2D04C0CE010E94B01FBE010E944F0AE8
:100E9000EC01B8010E941307882309F486C2B80147
:100EA000CE010E94BC0C882309F47FC2B801CE0198
:100EB0000E940B0D882309F478C2C23CFCE5DF07D1
:100EC00041F4F8018281882309F46FC20E94551011
:100ED0006CC2C33C8CE5D80708F015C1CB3B9CE540
:100EE000D90761F4F8018281882309F45EC20E9467
:100EF00081208272E1F00E94F41057C2CC3BECE5F5
:100F0000DE07C0F0CE3B9CE5D90709F4CDC008F060
:100F1000DFC0CC3BFCE5DF0709F0CEC0F8018281E1
:100F2000882309F442C20E948120827221F30E9428
:100F3000EA103BC2C531FCE5DF0708F07EC0C230D5
:100F40008CE5D80708F452C0F8018281882309F49F
:100F500059C00E942B21811102C00E940A210E94C7
:100F60003E2190E09093AD038093AC03FE01E350EB
:100F7000FC45E231F10530F4E35AFF4F8091AC03B8
:100F80000C94BE318091AC03816027C0826025C083
:100F9000846023C0806121C080621FC080641DC046
:100FA00080681BC08460886018C08E7F16C08D7FEB
:100FB00014C08B7F12C08F7E10C08F7D0EC08F7BC0
:100FC0000CC08F770AC08B7F877F07C087FB2227E3
:100FD00020F991E0922790FB87F98093AC038091F0
:100FE000AC030E9442210E94511ADFC1C1159CE549
:100FF000D90781F0C130DC45A9F081E0809345023A
:1010000080934602C801DF91CF911F910F91FF900D
:101010000C941107F8018281882309F4C6C10E944B
:101020001507C3C1F8018281882309F4BEC18091EC
:101030003003816080933003B8C1C531FCE5DF0720
:1010400039F50E948120982FF801828120910301B7
:1010500030910401882379F09A7A81E009F480E0E4
:1010600080934002911102C069E201C065E3C901A9
:101070000E94A4210AC080914002811102C069E24D
:1010800001C065E3C9010E94AF210E944E208DC1BD
:10109000CA3BDC4509F0B1CFF8018281882309F40D
:1010A00084C10E94311181C1F8018281882309F431
:1010B0007CC10E94F70F79C1CD3BDC4509F09DCF83
:1010C000F8018281882309F470C10E94DF0F6DC18D
:1010D000F8018281C03CFCE5DF0731F4882309F484
:1010E00064C10E94281061C1C13CDC4530F48823F2
:1010F00009F45BC10E94161058C1882309F455C138
:101100000E943A1052C1C93CECE5DE0749F4F801EF
:101110008281882309F449C188E10E946F1045C18A
:10112000CA3CFCE5DF0708F088C0C53C8CE5D80761
:10113000B1F4F8018281882309F437C10E94B50E09
:10114000663071058105910540F00E94B50E68304A
:1011500071058105910508F4EACE86E0DECFC63C34
:101160009CE5D90728F5C33CECE5DE0739F4F80126
:101170008281882309F419C181E0CFCFC43CDC45CA
:1011800009F03BCFF8018281882309F40EC10E9447
:10119000B50E623071058105910540F00E94B50ED3
:1011A000653071058105910508F4C1CE82E0B5CFA7
:1011B000F8018281C73CFCE5DF07A1F4882309F42C
:1011C000F4C00E94B50E6F3071058105910540F0A5
:1011D0000E94B50E643171058105910508F4A7CE12
:1011E0008FE09BCFC83CDC45A0F4882309F4DDC028
:1011F0000E94B50E693071058105910540F00E948D
:10120000B50E6E3071058105910508F490CE89E028
:1012100084CF882309F4C9C00E94B50E65317105D9
:101220008105910540F00E94B50E67317105810579
:10123000910508F47CCE85E170CFCC3CECE5DE076F
:1012400081F5F8018281882361F0109246020E94A4
:101250003B22909344028093430280E20E94511704
:10126000A4C00E94812081FF05C081E080934502D7
:10127000809346028091460281110FC08091430203
:10128000909144020E944722883C910530F487E205
:101290000E94F01587E20E94F21680E20E94581721
:1012A00084C0CD3CFCE5DF0708F04AC0CA3C8CE5B1
:1012B000D807B1F4F8018281882309F476C00E942E
:1012C000B50E693171058105910540F00E94B50E9A
:1012D000623271058105910508F429CE89E11DCF9F
:1012E000CB3CDC4509F089CEF8018281882351F09E
:1012F000109245020E943B22909342028093410249
:1013000082E0ACCF0E94812085FF05C081E0809300
:101310004502809346028091450281110FC0809161
:101320004102909142020E944722883C910530F48C
:1013300086E20E94F01586E20E94F21682E0AECFAD
:10134000C03DECE5DE0731F4F8018281882369F1C4
:1013500080E009C0C13DFCE5DF0741F4F80182816E
:10136000882319F182E00E9482291FC0CD3CDC4510
:1013700009F043CEF8018281811167CF8091460246
:1013800081118BCF80914302909144020E944722A9
:10139000883C910508F081CF80E20E94581788E2CE
:1013A0000E94F01588E20E94F21680E0DF91CF9152
:1013B0001F910F91FF900895CF9390E0FC01EA56A2
:1013C000FB4FC491FC01EA5EFA4F8491882359F0E7
:1013D00081EE0E94F0158C2F0E94F0158C2F0E9438
:1013E000F21681EE04C08C2F0E94F0158C2FCF9145
:1013F0000C94F2160F931F93CF93DF93EC01062FFB
:10140000FE018491882359F19E012F5F3F4F813067
:1014100041F4E901F9011491812F0E94F015812F07
:101420000DC0823031F4E901F90184910E94F01578
:101430000AC0833031F4E901F90184910E94F21667
:1014400002C00E94DC092196802F8823C9F2EFE9AF
:10145000FFE03197F1F700C000008150F6CFDF9137
:10146000CF911F910F91089560E00C94FA090C94AC
:1014700050060C942905282F2F7041F0822F90E000
:101480002A3010F44D9608950697089587E290E06B
:10149000089508950C94490A0C944A0A089524E585
:1014A000829FC0011124FC0126E0729FE00DF11D16
:1014B0001124E60FF11DEE0FFF1FEA50FE4F85913C
:1014C00094910895880F991FFC01E251FE4F859178
:1014D00094910895CF93DF930E944F0A0E941C0CB1
:1014E000EC018115904508F041C0C11580E4D80792
:1014F00008F025C1C83ED10510F5C03ED10508F061
:1015000097C1C83AD10578F4C53AD10508F0A7C00B
:10151000C130D10509F48CC108F443C1C430D105F0
:1015200008F086C13EC1CD3BD10508F4A3C0C03C44
:10153000D10508F436C1CE01805C9109F2C0C11515
:1015400090E2D90758F4C11521E0D20708F070C124
:10155000C03FD10508F425C1D0656AC1C11580E33B
:10156000D80708F0E2C0CE019F70DBC0C11595E539
:10157000D90708F044C0C11524E5D20708F0F6C029
:10158000C11582E5D80710F5C11591E5D90708F016
:10159000D9C0CE0174E0969587957A95E1F7282F0A
:1015A00023703C2F337081E090E002C0880F991FB8
:1015B0003A95E2F79C68922BCF70C695C69520E2CB
:1015C000C29FE0011124C82BD92B32C19E01237088
:1015D00033278C2F86958695C115D34508F0B7C063
:1015E000C1E0D0E002C0CC0FDD1F2A95E2F720E277
:1015F000829FC0011124C82BD92BDC6819C1C115E9
:101600002AE5D207A0F4C11589E5D80708F0B9C0CA
:10161000C11596E5D90708F4AEC0C11528E5D20773
:1016200008F4BFC0DC2FCC27C06FD06A01C1C11540
:101630008BE5D80708F4B5C0C1159CE5D90708F4B7
:10164000ADC0CE0190568115904208F0AAC08D2FF2
:101650008F710E94980CDD27D0628F719DC0C53AB2
:10166000D10509F4A1C0C63AD10509F0A0C0C2E86D
:10167000D0E4DEC0C83AD10509F49CC0C93AD1050E
:1016800009F49BC0CA3AD10509F49AC0CB3AD105F6
:1016900009F499C0CC3AD10509F498C0CB3BD105E7
:1016A00009F497C0CC3BD10509F496C0CD3AD105D9
:1016B00009F495C0C03BD10509F494C0CE3AD105D8
:1016C00009F493C0CF3AD10509F492C0C13BD105CA
:1016D00009F491C0C23BD10509F490C0C33BD105C8
:1016E00009F48FC0C43BD10509F48EC0C53BD105B8
:1016F00009F48DC0C63BD10509F48CC0C73BD105A8
:1017000009F48BC0C83BD10509F48AC0C93BD10597
:1017100009F489C0CA3BD10509F488C0C0E0D4E40B
:1017200087C00E94620AEC0183C0CE019927D3FFD3
:1017300003C0EC01D86C7CC0EC01D06C79C0DF70C8
:10174000D06A76C0DC2FCC27C16FD06A71C0C1E0EF
:10175000D0E002C0CC0FDD1F2A95E2F720E2829F85
:10176000C0011124C82BD92BDA6862C0DC2FCC272A
:10177000C46FD06A5DC0CF71DD27DC2FCC27D0626B
:1017800057C0CE0124E0969587952A95E1F78F7092
:10179000CF70C06ED0E0D06AD82B4AC0DD27D066AB
:1017A00047C0C0E0D0E044C0C1E8D0E441C0C3E8D5
:1017B000D0E43EC0C2EED4E43BC0C9EED4E438C0AD
:1017C000CAEED4E435C0C5EBD4E432C0C6EBD4E4F1
:1017D0002FC0C3EBD4E42CC0C4EBD4E429C0C7EBC6
:1017E000D4E426C0CCECD4E423C0CDECD4E420C0B7
:1017F000C3E8D5E41DC0CAE8D5E41AC0C2E9D5E4FF
:1018000017C0C4E9D5E414C0C1E2D6E411C0C3E2F4
:10181000D6E40EC0C4E2D6E40BC0C5E2D6E408C0EC
:10182000C6E2D6E405C0C7E2D6E402C0CAE2D6E406
:10183000CE01DF91CF9108958238910549F1B0F43E
:101840008133910509F459C048F48932910509F4AE
:101850004FC08A32910509F455C00895853391052A
:1018600009F441C08933910599F00895833E9105AB
:1018700031F138F4803E910591F0823E9105A9F056
:101880000895863E910501F1873E910539F108954D
:101890002091AC0320FD3BC021FD39C0089580910B
:1018A000AC0380FF34C089E341C08091AC0382FF68
:1018B00030C08091AC0384FD2EC083EE37C0809190
:1018C000AC0382FD26C0F5CF8091AC0383FF25C019
:1018D0008091AC0384FD1FC087EE28C08091AC03CB
:1018E00083FD1BC0F5CF8091AC0385FD18C019C0E6
:1018F0008091AC0385FD15C012C08091AC0386FDBC
:1019000012C013C08091AC0386FD0FC00CC080EEE6
:101910000DC082EE0BC080E009C086EE07C089E2F0
:1019200005C085E303C08AE201C081E390E0089529
:101930009091AC0392FF0DC0282F2871283019F424
:10194000877F846006C0282F2471243011F48B7F98
:10195000886093FF0DC0282F2871283119F4877EE5
:10196000846106C0282F2471243111F48B7E886194
:1019700094FD877E089508950F931F93CF93FB01E5
:101980002281211102C0C1E041C08C01C0915402EA
:10199000C11125C086319C45B1F70E94BB0C81E086
:1019A000809354020E943B229093530280935202F0
:1019B00010924702109249021092480210924B0274
:1019C00010924A0210924D0210924C0210924F0255
:1019D00010924E02109251021092500217C0809144
:1019E0005202909153020E944722883C910558F67A
:1019F00090914702E92FF0E0EE0FFF1FE85BFD4FEB
:101A0000118300839F5F90934702C0E08C2FCF919A
:101A10001F910F910895CF93DF93813020E89207B3
:101A2000D0F0FB0122812223B1F0EC01809155021C
:101A3000811109C08CE090E00E94C4310E942F0DFA
:101A400081E0809355020E94360DCE019F770E945F
:101A5000FE0D0E94B20D81E0DF91CF910895809339
:101A60005602682F8CE090E00C94D831E09103018D
:101A7000F091040180818093610381FF03C081EEB6
:101A80000E94F2168091610385FF03C085EE0E94DB
:101A9000F2168091610380FF03C080EE0E94F2166F
:101AA0008091610384FF03C084EE0E94F21680914E
:101AB000610382FF03C082EE0E94F21680916103EF
:101AC00086FF03C086EE0E94F2168091610383FFB9
:101AD00003C083EE0E94F2168091610387FF03C06A
:101AE00087EE0E94F21680915602823001F1A8F42E
:101AF0008823C9F0813079F580EE0E94F01581EEDF
:101B00000E94F01588E10E94F01588E10E94F2160B
:101B100081EE0E94F21680EE1CC0843081F0853088
:101B2000D1F486EE01C082EE0E94F01514C082EE60
:101B30000E94F01587E50E94F01587E50AC086EE41
:101B40000E94F01586EE0E94F21688E10E94F015C0
:101B500088E10E94F2168FE39CE90197F1F700C03B
:101B60000000089580915602813049F030F08230B3
:101B700021F0853051F486EE06C082EE04C08CE27E
:101B80000E94F0158CE20E94F2168091610381FFA1
:101B900003C081EE0E94F0158091610385FF03C0B0
:101BA00085EE0E94F0158091610380FF03C080EEF6
:101BB0000E94F0158091610384FF03C084EE0E94AF
:101BC000F0158091610382FF03C082EE0E94F01540
:101BD0008091610386FF03C086EE0E94F01580911C
:101BE000610383FF03C083EE0E94F01580916103BF
:101BF00087FF03C087EE0C94F0150895EF92FF92D3
:101C00001F93CF93DF937C01CCE0D0E0C7010C2E73
:101C100002C0969587950A94E2F7182F1F70812FBE
:101C20000E943B0A0E94F015812F0E943B0A0E94ED
:101C3000F2162497CC3F8FEFD80741F7DF91CF9171
:101C40001F91FF90EF900895EF92FF920F931F93D3
:101C5000CF93DF93E901662309F44BC0242F30E0D2
:101C6000EFEFF0E0E61BF109B901E69F9001E79F75
:101C7000300DF69F300D1124232F8B01031B11090A
:101C80005CE3E52EF12CB7010E949631FB01BC010B
:101C9000069FC001079F900D169F900D1124B7015C
:101CA0000E949631E230F105B1F040F4309779F0BE
:101CB000319711F5832F242F461B21C0E430F10505
:101CC000A1F068F03597C1F4842F861B18C0832FCC
:101CD000262F230F14C0862F830FE42F03C0E42F79
:101CE000E61B842F432F2E2F0AC0842F462F430F2D
:101CF00006C0842F242F03C080E020E040E0E42FC2
:101D0000F0E0E055FA4F4491E22FF0E0E055FA4F51
:101D10009491E82FF0E0E055FA4FE49149839883DD
:101D2000EA83DF91CF911F910F91FF90EF9008957B
:101D300088E090E00C94CC31AB01BC0188E090E0ED
:101D40000C94EA31E2E6F3E083E0808310926303CF
:101D50008FEF82838383609162037091630380912C
:101D60006403909165030C949C0E6091620360FF84
:101D700006C066956F7370E080E090E0089560E0C3
:101D800070E0CB0108958091620380FF06C06FE090
:101D900070E08AE693E00C941414EAE6F3E0118212
:101DA00010821282349683E0E63AF807C1F7EFCF4B
:101DB0009091620390FF0CC0EAE6F3E081836083B8
:101DC0004283349693E0E63AF907C1F70C94C30EC8
:101DD0000895EF92FF920F931F93CF93DF9300D05C
:101DE00000D0CDB7DEB7009162031091630320915C
:101DF0006403309165030093660310936703209397
:101E00006803309369032091620320FF21C0042FEF
:101E1000F62EE92E182F9E012F5F3F4F0E94240EB1
:101E20008091660310FB87F9809366031695809175
:101E300067038078182BE0FA17F910936703F09284
:101E40006803009369034B8169818A810E94D80EDF
:101E50000F900F900F900F90DF91CF911F910F91E6
:101E6000FF90EF9008958F929F92AF92BF92CF9282
:101E7000DF92EF92FF920F931F93CF93DF93EC01CA
:101E8000062F142F8091620380FF8CC0982F9E77BD
:101E9000923021F4CE010E94E90E5AC0E82FE69557
:101EA000EF739EE39E0F9F73943018F410916503B7
:101EB0004FC09AE39E0F9F73993070F4881F882754
:101EC000881F90916303292F220FC22FC82B97FBE5
:101ED000992790F9D92F3CC087E28E0F8F738A30F3
:101EE000B8F5F0E07997E0FD02C021E001C02FEFE6
:101EF000EE7FEA56FA4F859194916FE070E00E9470
:101F0000963126036001279FD00C11244E0188E9E9
:101F1000881A8EEF980A8AE6E82E83E0F82E98E673
:101F2000A92EBB24B394C401B5010E949631970138
:101F3000412F602F0E94240E8C0C9D1C94E0E90E12
:101F4000F11C86EAE81683E0F80669F70E94C30EE2
:101F5000809162039C2FC0FB87F980936203969562
:101F6000809163038078892BD0FB87F9809363038A
:101F7000009364031093650360916203709163039F
:101F80008091640390916503DF91CF911F910F9130
:101F9000FF90EF90DF90CF90BF90AF909F908F9089
:101FA0000C949C0EDF91CF911F910F91FF90EF90B9
:101FB000DF90CF90BF90AF909F908F900895E2E612
:101FC000F3E02081221F2227221F30916303432F39
:101FD000440F842F822B37FB992790F90C9668E6E3
:101FE00071E00E94AA31438162810C94330F2091E9
:101FF0006203221F2227221F30916303432F440FC5
:10200000842F822B37FB992790F98C3091051CF493
:10201000845A9E4F05C00C9768E671E00E94AA3171
:1020200040916503609164030C94330FE2E6F3E0A2
:102030008081881F8827881F90916303292F220F92
:1020400097FB992790F943816FEF822B0C94330F04
:10205000E2E6F3E08081881F8827881F9091630360
:10206000292F220F97FB992790F9438160E0822B5B
:102070000C94330F40916503842F90E0843F9105C9
:1020800014F4445F01C04FEF80916203881F8827DA
:10209000881F90916303292F220F97FB992790F9AE
:1020A00060916403822B0C94330F40916503842F5D
:1020B00090E00C9714F04C5001C040E08091620316
:1020C000881F8827881F90916303292F220F97FB71
:1020D000992790F960916403822B0C94330F9091AF
:1020E000620390FF42C09178811102C0926007C0E4
:1020F000833210F0946403C08F73880F982B9093F1
:102100006203609162037091630380916403909114
:1021100065030E949C0E80916203982F9E779230F7
:1021200019F410926C0210C0982F96959F732EE3AD
:10213000290F2F73273120F491E090936C0204C093
:10214000995D9F739A3068F3881F8827881F909144
:102150006303292F220F97FB992790F9409165037C
:1021600060916403822B0C94330F089580913003A7
:1021700081608093300381E080936D020E942B2167
:10218000811104C00E940A210E94A20E0E94980E92
:102190006093620370936303809364039093650379
:1021A0006E7761F40E94A20E0E94980E6093620303
:1021B00070936303809364039093650381E080933D
:1021C0006C028091620380FF04C086958F730C942B
:1021D0006F1008958091620386958F738F5F8332AD
:1021E00008F081E00C946F108091620386958F73E4
:1021F000815009F482E20C946F10CF93DF93C2E612
:10220000D3E0888181608883609162037091630369
:1022100080916403909165030E949C0E888186954D
:102220008F73DF91CF910C946F10E2E6F3E0808121
:102230008E7F808360916203709163038091640359
:10224000909165030E949C0E10926C022FEF80E724
:1022500092E0215080409040E1F700C000000C94D3
:10226000C30E8091620380FD0C9415110C94FD1037
:10227000CF93C82F80916A0290916B020E944722EF
:10228000EC2FF0E0E455FA4FE491F0E08E179F0751
:1022900008F443C00E943B2290936B0280936A0231
:1022A0006091690270E080E090E00E94972F20E04A
:1022B00030E04FE753E40E94BA2E2BED3FE049E4B3
:1022C00050E40E94C0300E942D310E94342F2BE434
:1022D0003AE34EE25FE30E944D2E20EF3BEF48EDE4
:1022E00052E40E94C0300E94662F462F8091620304
:1022F000881F8827881F90916303292F220F97FB3F
:10230000992790F960916403822B0E94E90E8091D5
:10231000690290E0019680936902CF910895CF936E
:10232000C82F80916702909168020E944722EC2F8B
:10233000F0E0E755FA4FE491F0E08E179F07E8F0E0
:102340000E943B229093680280936702409165034C
:102350006091640380916502909166020E94E90E8B
:102360008091650290916602019668E671E00E9494
:1023700096319093660280936502CF910895CF9233
:10238000DF92FF920F931F93CF93DF93F82E8091EC
:102390006302909164020E944722EF2DE695F0E0DF
:1023A000EA55FA4FE491F0E08E179F07B8F10E94CA
:1023B0003B2290936402809363020AE613E0C0E03C
:1023C000D0E088E6C82EDD24D394809161029091FC
:1023D00062028C0F9D1FB6010E94963198014091B8
:1023E0006503609164030E94240E68960C5F1F4F82
:1023F000C83681E0D80749F70E94C30E8091610278
:1024000090916202F0FE05C00196BE010E949631D5
:1024100001C001979093620280936102DF91CF9196
:102420001F910F91FF90DF90CF900895CF92DF9290
:10243000EF92FF920F931F93CF93DF93C82F80FFEC
:1024400002C01FEF01C011E080915F029091600215
:102450000E944722C695EC2FF0E0ED55FA4FE4912B
:10246000F0E08E179F0708F45BC00E943B22909318
:10247000600280935F022AE6E22E23E0F22EC0E0A3
:10248000D0E0F70111821082128294E0C92ED12C83
:1024900000E080915E02800F87FD815F082E000CB6
:1024A000990BC817D907E9F4809165038C9DA001A9
:1024B0008D9D500D112455954795559547958091C3
:1024C0006203881F8827881F90916303592F550F37
:1024D00097FB992790F9970160916403852B0E94DF
:1024E000240E010FF1E0CF1AD10899F6219684E06D
:1024F000E80EF11CCF30D10521F60E94C30E809169
:102500005E02113031F4811102C08EE007C08150AB
:1025100005C090E00196BE010E94AA3180935E0240
:10252000DF91CF911F910F91FF90EF90DF90CF90AF
:1025300008950F931F93CF93DF93C82F80915C0270
:1025400090915D020E944722EC2FF0E0E056FA4F96
:10255000E491F0E08E179F0708F456C00E943B22DA
:1025600090935D0280935C02CAE6D3E0FE01118283
:1025700010821282349683E0E63AF807C1F700E051
:1025800010E080915B02082E000C990B08171907C8
:10259000ECF080910201082E000C990B8017910736
:1025A000ACF080916203881F8827881F9091630395
:1025B000592F550F97FB992790F99E01409165037C
:1025C00060916403852B0E94240E03C01982188237
:1025D0001A820F5F1F4F24960F30110591F60E944B
:1025E000C30E8091010190915B02980F90935B0262
:1025F00020910201280F20930201121614F49E303C
:102600001CF0819580930101DF91CF911F910F9173
:102610000895EF92FF920F931F93CF93DF938091D2
:10262000590290915A020E944722883E9340D0F16D
:102630000E943B2290935A0280935902C091570204
:10264000D09158022196C170DD27D0935802C093D3
:1026500057028AE6E82E83E0F82E10E008E7812F83
:102660008695FE01E80FF11DCF0181709927970132
:102670004091650360916403FC010E9FC0010F9FB0
:10268000900D11240E94240E1F5FF4E0EF0EF11C48
:102690001F3029F7DF91CF911F910F91FF90EF909D
:1026A0000C94C30EDF91CF911F910F91FF90EF908B
:1026B000089580916C02882391F190916203892F93
:1026C00086958F732EE3280F2F73243018F48250D1
:1026D0000C9438112AE3280F2F73233018F48650F6
:1026E0000C948F1127E3280F2F73263018F489508C
:1026F0000C94BF1121E3280F2F73263018F48F504C
:102700000C9416122BE2280F2F73233018F48551E6
:102710000C9499129E77903311F40C940913089538
:10272000882319F05198599A02C0519A5998509893
:10273000589A95E09A95F1F70000509A589895E0CC
:102740009A95F1F70000882311F0519A599885E085
:102750008A95F1F7000008958BB18C7F8BB9509862
:10276000589A5198599A85E08A95F1F70000089592
:102770008AB18C7F8AB985E08A95F1F70000519A79
:10278000599885E08A95F1F70000509A589885E0AD
:102790008A95F1F7000008955098589A85E08A9537
:1027A000F1F700005198599A85E08A95F1F70000F9
:1027B0000895CF93DF93D82FC8E08D2F80780E94A3
:1027C0009013DD0FC150C9F780E00E94901385E09F
:1027D0008A95F1F7000085E08A95F1F7000080E026
:1027E000DF91CF9108952BB1342F309523233BB146
:1027F000432B3FB7F894FC01680F791FE617F707E2
:1028000089F0819198E04BB9000000C087FF2BB997
:10281000880F000000C000C000C02BB900C09A950E
:1028200091F7ECCF3FBF0895AF92BF92CF92DF9266
:10283000EF92FF920F931F93CF93DF938C01EB01E5
:10284000CFB6D090BC00F8948091BC008B7F809371
:10285000BC000E94AC130E94B81384E80E94D913F4
:10286000CC0FDD1FCC0FDD1F78015801AC0EBD1E53
:10287000EA14FB0431F0F70181917F010E94D91322
:10288000F7CF0E94CC13CFBED092BC00579A40E83D
:10289000BE01C801DF91CF911F910F91FF90EF9082
:1028A000DF90CF90BF90AF900C94F313909373028E
:1028B000809372020895E0917202F0917302309752
:1028C00021F00190F081E02D099480E00895E091DD
:1028D0007202F0917302309721F00280F381E02DB3
:1028E00009940895E0917202F0917302309721F0FB
:1028F0000480F581E02D09940895209170023091B3
:1029000071022817390771F0909371028093700259
:10291000E0917202F0917302309721F00680F78106
:10292000E02D0994089520916E0230916F022817CE
:10293000390771F090936F0280936E02E0917202FA
:10294000F0917302309721F00084F185E02D099415
:10295000089508950C94A91481E008950E943222EC
:102960000E942B050E94C9220C94B610BF92CF92F0
:10297000DF92EF92FF920F931F93CF93DF93CDB728
:10298000DEB72A970FB6F894DEBF0FBECDBF0E9408
:1029900091050E94AC14811111C08FEF89838A8345
:1029A0001B820E943B228160782F9D838C8349810A
:1029B0005A816B818D810E949B1554C085E7C82E7A
:1029C00082E0D82E00E010E0B02E802F0E94F105AA
:1029D000E82EF60121916F01F82EF22631F40F5FF7
:1029E0001F4F0E30110581F7D8CF8091300381FD44
:1029F0000E94F70580E090E02F2D30E0482FB901CC
:102A0000082E02C0759567950A94E2F760FF25C00D
:102A10008E83BF8281E090E06C0102C0CC0CDD1C93
:102A20004A95E2F72E2D30E02C213D21232B09F48D
:102A300080E088870E943B228160782F9A8789876F
:102A40004E815F8168858A850E949B15F801EB584D
:102A5000FD4F80818C25808305C0019686309105CD
:102A600069F6BDCF0E945C240E945B1490917402B1
:102A70008917A9F00E945B14809374022A960FB6FE
:102A8000F894DEBF0FBECDBFDF91CF911F910F91A4
:102A9000FF90EF90DF90CF90BF900C944C0A2A9655
:102AA0000FB6F894DEBF0FBECDBFDF91CF911F915F
:102AB0000F91FF90EF90DF90CF90BF900895DC01D1
:102AC00011962C9111978C91682F70E041E050E0A5
:102AD00001C0440F8A95EAF712968C91129730E064
:102AE000882329F0809193028823E9F006C0F90138
:102AF000ED57FD4F90819423B1F086E0829FF00165
:102B0000839FF00D1124E60FF71FEE0FFF1FEB5E02
:102B1000FE4F808191818D939C93F901ED57FD4F7C
:102B20008081482B06C0F901ED57FD4F409580810B
:102B3000482340830895CF93DF93CDB7DEB72B971B
:102B40000FB6F894DEBF0FBECDBF942F4F83252F55
:102B5000588769877A878B874A855B85452B31F053
:102B60002F3F31F481E09F3F19F403C081E001C0A1
:102B700080E080FD04C0CE0107960E945F15DE0153
:102B8000119686E0FD0111928A95E9F785E0FE0134
:102B9000379601900D928A95E1F749815A816B81B0
:102BA0007C818D819E810E941E1D2B960FB6F8940C
:102BB000DEBF0FBECDBFDF91CF910895FC018081B4
:102BC00091810E94EF1F92959F70963041F4809101
:102BD000930291E089278093930290939202089543
:102BE000CF93882309F4FCC0C82F8238C1F40E9417
:102BF0005B1481FDF5C069E38091030190910401AC
:102C00000E94A4210E944E202FEF81EE94E02150DB
:102C100080409040E1F700C0000069E319C08338AC
:102C200001F50E945B1480FDDBC063E58091030128
:102C3000909104010E94A4210E944E202FEF81EE6A
:102C400094E0215080409040E1F700C0000063E52F
:102C500080910301909104010E94AF21CF910C94C7
:102C60004E208438C1F40E945B1482FDB9C067E431
:102C700080910301909104010E94A4210E944E20A2
:102C80002FEF81EE94E0215080409040E1F700C0AA
:102C9000000067E4DDCF8CEF8C0F813A68F48C2F55
:102CA0000E94802681119CC06C2F8091030190911D
:102CB00004010E94A421D2CF80E28C0F883048F416
:102CC000C77081E001C0880FCA95EAF70E9484208E
:102CD000C5CF8BE58C0F833078F4C53A29F0C63A1E
:102CE00031F083E890E005C081E890E002C082E81E
:102CF00090E0CF910C947D1488E58C0F853108F01D
:102D00006FC0C83A61F1C93A69F1CA3A71F1CB3A78
:102D100079F1CC3A81F1CB3B89F1CC3B91F1CD3AC1
:102D200099F1C03BA1F1CE3AA9F1CF3AB1F1C13B43
:102D3000B9F1C23BC1F1C33BC9F1C43BD1F1C53BC1
:102D4000D9F1C63BE1F1C73BE9F1C83BF1F1C93B21
:102D5000F9F1CA3B09F43FC080E090E03EC082EE4A
:102D600090E03BC089EE90E038C08AEE90E035C03C
:102D700085EB90E032C086EB90E02FC083EB90E0D3
:102D80002CC084EB90E029C087EB90E026C08CEC4F
:102D900090E023C08DEC90E020C083E891E01DC05E
:102DA0008AE891E01AC082E991E017C084E991E0D5
:102DB00014C081E292E011C083E292E00EC084E28E
:102DC00092E00BC085E292E008C086E292E005C086
:102DD00087E292E002C08AE292E0CF910C949314D1
:102DE000CF910895882309F45BC0682F823879F465
:102DF0000E945B1481FF54C069E3809103019091AC
:102E000004010E94A4210E944E2069E310C083386F
:102E1000B1F40E945B1480FF43C063E5809103011D
:102E2000909104010E94A4210E944E2063E58091AC
:102E30000301909104010E94AF210C944E2084382C
:102E400079F40E945B1482FF2BC067E48091030138
:102E5000909104010E94A4210E944E2067E4E7CFD4
:102E60008CEF860F813A18F380E2860F883048F4A1
:102E7000677081E001C0880F6A95EAF70E948A2096
:102E8000DCCF8BE5860F833020F480E090E00C945B
:102E90007D14685A653120F480E090E00C9493141E
:102EA0000895882321F00E9484200C944E200895D8
:102EB000882321F00E948A200C944E2008958F923E
:102EC0009F92AF92BF92DF92EF92FF920F931F9368
:102ED000CF93DF937C01D62FC72FFC01058102958C
:102EE0000F70128111110E94A1200E944720882397
:102EF00079F0112369F080E28D0F883048F082E08C
:102F00000E9430200E94472091E0D82ED92601C08F
:102F1000D12CBC2EB2948FE0B8228B2D90E0FC0116
:102F2000E159FF4F0C94BE318C2F807FCF708823E6
:102F300011F0C295C07F112399F0CC2309F4B8C1D8
:102F400080E28D0F883010F0D11104C08C2F0E94C8
:102F5000842003C08C2F0E9494200E944E20A8C180
:102F60008D2F0E94F216CC2309F41EC280E28D0F31
:102F7000883010F0D11104C08C2F0E948A2003C029
:102F80008C2F0E949A200E944E200EC28C2F807F90
:102F9000CF70803211F0C295C07FDD2319F0D1309F
:102FA000A9F01DC0112351F08C2F002309F439C161
:102FB000013009F036C10E94B420F6C1002319F097
:102FC000013009F4F1C10E94B72011C0112321F092
:102FD000023008F0E9C107C00111E6C108C01123A1
:102FE00021F0011165C18C2F1CC1011172C18C2F00
:102FF0001EC18C2F86958695837019F0813061F003
:10300000D3C1112321F08D2F9C2F937002C080E03B
:1030100090E00E947D14D5C1112321F08D2F9C2FAB
:10302000937002C080E090E00E949314CAC1112303
:10303000F9F0D53F51F0D63F71F0D43FA9F480911B
:10304000A6039091A70381600BC08091A603909185
:10305000A703826005C08091A6039091A7038460B6
:103060009093A7038093A6038D2F0E9464231EC014
:10307000D53F51F0D63F71F0D43FA9F48091A6031B
:103080009091A7038E7F0BC08091A6039091A70318
:103090008D7F05C08091A6039091A7038B7F9093AD
:1030A000A7038093A6038D2F0E94CC230E94512456
:1030B00088C18C2F837009F04CC011117EC12D2F57
:1030C000229526952770220F220F6D2F6F70862F65
:1030D00090E0A0E0B0E04C015D01022E04C0880C3D
:1030E000991CAA1CBB1C0A94D2F7D4FF12C08FE013
:1030F00090E0A0E0B0E004C0880F991FAA1FBB1F9A
:103100002A95D2F7BC01CD01609570958095909578
:1031100003C060E070E0CB01C695C695C370C230B5
:1031200051F080F4682979298A299B29C13071F0EE
:103130000E946D1E42C1682979298A299B290E9413
:103140007F1E3BC10E946D1EC501B4010E945B1E23
:1031500034C1112319F08C2F817001C0869588230A
:1031600009F42BC12D2F229526952770220F220FAF
:103170006D2F6F70862F90E0A0E0B0E04C015D01F4
:10318000022E04C0880C991CAA1CBB1C0A94D2F7FE
:10319000D4FF12C08FE090E0A0E0B0E004C0880F40
:1031A000991FAA1FBB1F2A95D2F7BC01CD016095BC
:1031B00070958095909503C060E070E0CB01C69556
:1031C000C695C370C23051F080F4682979298A29E4
:1031D0009B29C13071F00E94321FEFC06829792904
:1031E0008A299B290E94441FE8C00E94321FC50102
:1031F000B4010E94201FE1C08D2F90E0FC01E05E31
:10320000F109E531F10508F04FC0E158FF4F0C948A
:10321000BE31DF708C2F8F71112331F00E94B91EE7
:103220008D2F0E945117C0C00E94DA1E8D2F0E9460
:103230005817BAC0112339F00111B6C08C2F8F7105
:103240000E94FF1EB1C0023008F0AEC0F7CF1123BC
:1032500039F08C2F8F710E94B91EA6C01123C9F3BB
:103260008C2F8F710E94DA1E9FC0112329F08C2FA2
:103270008F710E94A41E98C00E949F1E95C01123AA
:1032800049F0CF718C2F0E94B91E63E08C2F0E94F1
:1032900027208AC081E00E943020023008F484C0D8
:1032A00082E00E94302080C0112331F0002389F297
:1032B0008D2F0E94F01578C0002391F2D93349F484
:1032C000FFEF27EE83E0F15020408040E1F700C09F
:1032D00000008D2F0E94F21667C04C2F4F706D2F8B
:1032E000C7010E94B5060E94CC1D6BC0D23FB1F051
:1032F00028F4D03F49F0D13FF9F028C0D43FB9F0CD
:1033000058F0D53F71F022C0112309F447C09091C5
:10331000930281E0892708C081E018271093930267
:103320003DC011113BC081E08093930237C0111161
:1033300035C01092930232C0112329F0809192027D
:10334000882329F329C0002311F328C08091920219
:103350000023C1F0882341F09091930281E08927F6
:1033600080939302109292028D2F112319F00E94E4
:10337000F01514C00E94F21686E0F70111928A95AA
:10338000E9F70CC0882351F0111108C09091930205
:1033900081E0892780939302109292024C2F4F7004
:1033A0006D2FC7010E944E0AF8E0BF1631F0BF161C
:1033B00040F086EF8B0D823020F40E945B140E9457
:1033C0004C0ADD20E1F00E94232080FD18C0F701A7
:1033D00012820E941D200E94B91EC7010E940B1A72
:1033E0000E941D20DF91CF911F910F91FF90EF90D0
:1033F000DF90BF90AF909F908F900C94DA1EDF917A
:10340000CF911F910F91FF90EF90DF90BF90AF9001
:103410009F908F9008950F931F93CF93DF93EC01AC
:10342000988189812B813C81232B31F08F3F31F4AE
:1034300081E09F3F19F403C081E001C080E080FD7E
:1034400013C0CE010E942207882371F06881798120
:103450008A810E94FA1F8C010E94561F0E94491EF9
:10346000B801CE010E945F17DF91CF911F910F919C
:1034700008950E94A1200E94B120809103019091A3
:1034800004010E94BA210E944E200E94EA240E9458
:10349000512480E090E00E947D1480E090E00C9444
:1034A00093140E9491200C94391A0E94EF1FE92F67
:1034B000E295EF704E2F50E0FA013297EE30F105B1
:1034C000B0F4EC56FF4F0C94BE31803F91F018F4ED
:1034D000803E68F40EC0843F51F40BC0803E48F03B
:1034E000813F29F406C093FB882780F9089580E086
:1034F000089581E00895CF93DF9300D000D01F920C
:10350000CDB7DEB70F900F900F900F900F90DF9117
:10351000CF910895CF93DF9300D000D000D0CDB7E6
:10352000DEB726960FB6F894DEBF0FBECDBFDF9193
:10353000CF9108951F93CF93DF93C091940216E02B
:1035400080919502C81799F0D0E01C9FF0011D9F53
:10355000F00D1124EA56FD4F408151816281738143
:10356000848195810E948A1A2196C770E9CFDF91E4
:10357000CF911F9108954091C6025091C70260916A
:10358000C8027091C9028091CA029091CB020C943A
:103590008A1ACF938091CB0282958F7009F05FC019
:1035A0008091C802882309F45AC080919402B09196
:1035B00095027091C602A091C7024091C902509134
:1035C000CA0291E07F3F09F090E0692FC6E08B17B7
:1035D00009F445C04115510521F0AF3F21F020E02D
:1035E00003C021E001C0262F90E020FD35C0C89F18
:1035F000F001C99FF00D1124EA56FD4F21812A13D5
:103600002BC02081271328C02281211125C02381AE
:1036100034812417350710F421503109241B350B50
:10362000283C3105C8F42091CB022F7020612093F3
:10363000CB0226E0289FF001299FF00D1124E556CA
:10364000FD4F80818F708061808386EC92E00E94C4
:103650000B1ACF910C949A1A01968770B8CFCF911C
:103660000895AF92BF92CF92DF92EF92FF920F93A5
:103670001F93CF93DF93CDB7DEB761970FB6F89462
:10368000DEBF0FBECDBF8C0185E0F801DE011D96C7
:1036900001900D928A95E1F7D8014C9111965C91B9
:1036A00011971296EC903091C6026091C7028091FA
:1036B000C9029091CA02009731F06F3F31F421E0C6
:1036C0003F3F19F403C021E001C020E0B22FB170E8
:1036D000BB2E20FD60C1F801C380D480A090C80239
:1036E000AA2009F4EEC02091CB02C816D90628F012
:1036F000D601A81BB90BCD0104C0809590958C0D07
:103700009D1DFF24F394883C910580F0F12C207FCF
:1037100009F09CC07C2DD98AC88A6E2D89890E94A7
:103720007B1A86EC92E00E940B1A2DC1822F807FBB
:1037300009F054C0561314C0431312C0FE2CE110FC
:103740000FC02F7020612093CB020E94BB1A86EC21
:1037500092E00E940B1A8091CB02F80185835CC134
:10376000CD2831F05F3F31F481E04F3F19F403C0C1
:1037700081E001C080E080FD03C081E08E2502C0B1
:1037800080E090E0F82FF170FF2E80FF1CC0809148
:1037900094022091950236E0821709F41AC190E054
:1037A000389FF001399FF00D1124EA56FD4F6181D9
:1037B000561306C06081461303C06281E61203C03F
:1037C00001968770E9CFFE2CEE2009F425C1809187
:1037D000CB0281608093CB02F12C1EC1561309C02D
:1037E000431307C0E11005C08091CB02F801858327
:1037F000A4C04D875E878D859E850E94551A8823BB
:1038000079F1EE2069F12091CB02822F82958F70A1
:1038100090E0029774F08091C6029091C702988759
:103820008F831986DB86CA862C87CE0107960E9475
:103830000B1A86E0F801A6ECB2E001900D928A9591
:10384000E1F70E94C91A0E94BB1A0DC0561771F009
:103850004D875E878D859E850E94551A81111AC0FD
:10386000C8010E940B1AFF24F394D6C04313F0CF73
:10387000E110EECF8091CB02F8018583C8010E9450
:103880000B1A86E0E6ECF2E0DF011D928A95E9F77B
:10389000FA2CC2C0EE2021F32091CB02822F829518
:1038A0008F7090E002972CF28091C6029091C7022F
:1038B0009A8389831B82DD82CC822E83CE0101967E
:1038C000B6CFC816D90628F0F601E81BF90BCF01D0
:1038D00004C0809590958C0D9D1D883C910548F005
:1038E000F12C7C2DD98AC88A6E2D89890E947B1A79
:1038F0004AC0FE2CEE2009F4B3CF561333C0431355
:1039000031C02091CB0220FD24C0822F82958F7080
:10391000482F50E041155105E1F0D80115962C9340
:1039200015974F30510549F08F5F982F9295907FF2
:10393000822F8F70892B15968C93C8010E940B1AC9
:1039400086E0F801A6ECB2E001900D928A95E1F7CD
:103950003DC086E0F801A6ECB2E001900D928A9598
:10396000E1F75AC04D875E878D859E850E94551A66
:1039700081115FCF8091CB0281608093CB02C8011F
:103980000E940B1A49C0E6ECF2E086E0DF011D92CE
:103990008A95E9F71BC0EE2009F462CF4D875E8758
:1039A0008D859E850E94551AF82E882309F458CFDC
:1039B00086E0F801A6ECB2E001900D928A95E1F75D
:1039C00086EC92E00E94DE150E94C91A0E94BB1A82
:1039D00023C04D875E878D859E850E94EF1F292F0E
:1039E00022952F70223028F49F7039F0811105C084
:1039F0000BC0243028F49F7049F4805E883020F09A
:103A0000C8010E940B1ABF2CFB2C06C0D8011596CA
:103A10009C91907F91F7F8CF8F2D61960FB6F89417
:103A2000DEBF0FBECDBFDF91CF911F910F91FF90F1
:103A3000EF90DF90CF90BF90AF9008951F93CF93FA
:103A4000DF93CDB7DEB72C970FB6F894DEBF0FBE6D
:103A5000CDBF4F83588769877A878B879C87CE0134
:103A600007960E94311B8823D1F09F8188852A8583
:103A70003B85232B31F08F3F31F481E09F3F19F4D8
:103A800003C081E001C080E080FD47C04F815885C0
:103A900069857A858B859C850E948A1A3EC086E05E
:103AA000FE013796DE01119601900D928A95E1F79D
:103AB000FF81E8856A857B856115710531F0EF3FEF
:103AC00031F481E0FF3F19F403C081E001C080E0E0
:103AD00080FD23C02091950230E0C90101968770D6
:103AE00099274091940250E084179507F1F1F983EA
:103AF000EA837D836C8396E0929FD001939FB00D03
:103B00001124AA56BD4FFE01319601900D929A954F
:103B1000E1F7809395020E949A1A16E08091940230
:103B200090919502891771F1189FC00111248A564E
:103B30009D4F0E94311B882329F1E09194021E9F22
:103B4000F0011124EA56FD4F408151816281738159
:103B5000848195810E948A1A8091940290E0019656
:103B60008770992780939402D9CF0E94511A10929E
:103B7000950210929402E6ECF2E086E0DF011D92DD
:103B80008A95E9F72C960FB6F894DEBF0FBECDBF2D
:103B9000DF91CF911F910895EF92FF920F931F93A2
:103BA000CF93DF938C01892B09F46CC0F12CEE24A8
:103BB000E394E8012196F8018491843740F484303D
:103BC00008F051C0813081F0823019F15BC0853737
:103BD00009F444C0A8F19CE7980F903708F052C050
:103BE0008F770E94F21641C00E5F1F4FFE01849135
:103BF00090E2980F983050F48770FE2D01C0FF0FAF
:103C00008A95EAF78F2F0E94A42014C00E94F01515
:103C10002DC00E5F1F4FFE01849190E2980F9830E7
:103C200060F48770FE2D01C0FF0F8A95EAF78F2F91
:103C30000E94AA200E944E2019C00E94F21616C0AF
:103C40000E5F1F4FFE01C491CC2381F08FE99FE0EE
:103C50000197F1F700C00000C150F6CF0E5F1F4F73
:103C6000FE01F49003C00E94F0158E018F2D882371
:103C700009F49FCFEFE9FFE03197F1F700C00000B2
:103C80008150F5CFDF91CF911F910F91FF90EF9071
:103C90000895089508950C944A1E0E944B1E609347
:103CA0000703709308038093090390930A030C940D
:103CB000391A0C944D1E0F931F9300910703109116
:103CC00008032091090330910A03602B712B822B8A
:103CD000932B1F910F910C944D1E0F931F930091E6
:103CE0000703109108032091090330910A03602310
:103CF0007123822393231F910F910C944D1E0F93D8
:103D00001F9300910703109108032091090330913C
:103D10000A0360277127822793271F910F910C9424
:103D20004D1E0C944A1E0E94911E609303037093D3
:103D3000040380930503909306030C94391A60E002
:103D400070E0CB010C94931E0F931F9341E050E061
:103D500060E070E08A019B0104C0000F111F221F68
:103D6000331F8A95D2F7C901B8011F910F910C94A6
:103D7000931E0F931F9341E050E060E070E004C099
:103D8000440F551F661F771F8A95D2F78091030352
:103D900090910403A0910503B09106038A019B0151
:103DA000082B192B2A2B3B2BC901B8011F910F910E
:103DB0000C94931E0F931F9341E050E060E070E07D
:103DC00004C0440F551F661F771F8A95D2F7409590
:103DD0005095609570958091030390910403A09194
:103DE0000503B09106038A019B01082319232A23A6
:103DF0003B23C901B8011F910F910C94931E0F939F
:103E00001F9341E050E060E070E004C0440F551F94
:103E1000661F771F8A95D2F7809103039091040360
:103E2000A0910503B09106038A019B010827192779
:103E30002A273B27C901B8011F910F910C94931EAB
:103E40000F931F9300910303109104032091050326
:103E500030910603602B712B822B932B1F910F91B6
:103E60000C94931E0F931F9300910303109104036E
:103E7000209105033091060360237123822393234D
:103E80001F910F910C94931E0F931F9300910303A6
:103E900010910403209105033091060360277127D8
:103EA000822793271F910F910C94931E0895292F19
:103EB000220F920F990F890FE82FE695E695E69568
:103EC000877051E001C0550F8A95EAF785E0E89FB9
:103ED000F0011124E453FD4F20E030E070E0408118
:103EE000CB01022E02C0969587950A94E2F7817065
:103EF000819584278523842781932F5F3F4F253029
:103F0000310569F70895292F220F920F990F890F14
:103F1000682F669566956695982F977085E0689FDF
:103F2000B001112440E050E080E0FB01E40FF51FF8
:103F3000E453FD4F208130E0092E02C036952795CD
:103F40000A94E2F721703327042E01C0220F0A944D
:103F5000EAF7822B4F5F5F4F4530510531F70895E7
:103F6000CF92DF92EF92FF920F931F93CF93DF9345
:103F70008C01C0900303D0900403E0900503F090FF
:103F800006038091070390910803A0910903B09163
:103F90000A03C82AD92AEA2AFB2ACFE1D0E0D701AE
:103FA000C6010C2E04C0B695A795979587950A94DF
:103FB000D2F780FD04C0219790F780E007C0B801D8
:103FC0008C2F0E946A0A0197B1F38C2FDF91CF9159
:103FD0001F910F91FF90EF90DF90CF900895CF93B6
:103FE000DF93EC010E94B01FBE010E946A0ADF91BC
:103FF000CF9108951F93CF93DF93EB01909191029E
:10400000992321F0CB010E94EF1F13C0882349F0B0
:10401000CB010E94B01F182F682FCE010E94571F9E
:1040200004C0CB010E94831F182FBE01812F0E9464
:104030006A0ADF91CF911F91089580910B038595B6
:1040400085958595089580910B038770089598E074
:10405000899F90011124262B20930B030C94B91EE9
:1040600020910B038095822380930B03982F9770E8
:1040700069F430E0482F082E000C550B2417350743
:1040800029F08595859585950C94DA1E0895909173
:104090000B03977081E009F480E00895E09103013B
:1040A000F091040180912F038083E0910301F0914E
:1040B0000401908180912E03892B8083E09103017C
:1040C000F0910401908180912D03892B8083809150
:1040D0000C03882381F0E0910301F09104019081A9
:1040E000892B808380910301909104010E944721D4
:1040F000811110920C0380910301909104010C94A2
:10410000671480912F03089590912F03892B80933A
:104110002F030895809590912F03892380932F0377
:10412000089510922F03089590912E03892B809368
:104130002E030895809590912E03892380932E035A
:10414000089510922E03089590912D03892B80934A
:104150002D030895809590912D03892380932D033D
:10416000089510922D03089580930C0308951092E2
:104170000C030895CF92DF92EF92FF926C01EE2430
:10418000FF24C114D104E104F10421F0C701B601F8
:1041900020E101C020E0C72ED82EE92EFF24C11453
:1041A000D104E104F10419F0285FC701B6016B01E5
:1041B0007C0154E0F694E794D794C7945A95D1F7CC
:1041C000C114D104E104F10419F02C5FC701B60158
:1041D0006B017C0142E0F694E794D794C7944A952A
:1041E000D1F7C114D104E104F10419F02E5FC70125
:1041F000B601DC01CB01B695A79597958795892BDC
:104200008A2B8B2B09F02F5F822FFF90EF90DF908E
:10421000CF9008956DEE7EEF80E090E00E94F63141
:1042200060E082E090E00E94D83160E083E090E0BE
:104230000E94D83160E084E090E00E94D83160E0D4
:1042400085E090E00E94D83140E050E0BA0188E07B
:1042500090E00C94EA3180E090E00E94D23121E0BD
:104260008D3E9E4F09F020E0822F089582E090E07D
:104270000C94C43183E090E00C94C43184E090E06D
:104280000C94C431682F84E090E00C94D831FC0188
:1042900031969C01205E3F4F80E0919191118F5F9C
:1042A000E217F307D1F708959C01FC0132969FEFC6
:1042B00080E04191461789F09F3F19F4411101C0F8
:1042C000982F8F5F8E31A9F79F3F39F0F901E90FE1
:1042D000F11D97FDFA956283089508959C01225E71
:1042E0003F4FFC014281461301C0128201968217A2
:1042F0009307B9F70895262F2695269526952F31F1
:1043000069F0FC01E20FF11D677021E030E001C0AF
:10431000220F6A95EAF78181282B21830895262FA1
:104320002695269526952F3171F0FC01E20FF11D9F
:10433000677021E030E001C0220F6A95EAF720950E
:10434000818128232183089520911401222329F0BB
:104350002091AC0327FD0C947B210C9454212091D7
:104360001401222329F02091AC0327FD0C948F2106
:104370000C946E21FC01319680961192E817F90792
:10438000E1F708958091B203843039F1109231033E
:1043900020E488E190E00FB6F894A895809360003F
:1043A0000FBE2093600080E00E944C0A83B7817F9B
:1043B000846083BF83B7816083BF7894889583B717
:1043C0008E7F83BF0FB6F894A895809160008861B6
:1043D00080936000109260000FBE08950895CF93FF
:1043E0000E9444050E9491050E94EE21C0E08C2F9E
:1043F0000E94F105811104C0CF5FCE30C1F701C02A
:1044000081E0CF9108950E94511A0E945B140C9490
:104410004C0A1F920F920FB60F9211248F939F9305
:10442000AF93BF9380913103811113C08091A80392
:104430009091A903A091AA03B091AB034196A11D4D
:10444000B11D8093A8039093A903A093AA03B093EE
:10445000AB03BF91AF919F918F910F900FBE0F90C3
:104460001F90189582E084BD93E095BD9AEF97BDAB
:1044700080936E0008952FB7F8948091A8039091CF
:10448000A903A091AA03B091AB032FBF0895CF92C7
:10449000DF92EF92FF920F931F932FB7F894409102
:1044A000A8035091A9036091AA037091AB032FBF99
:1044B0006A017B01EE24FF248C0120E030E0C0166D
:1044C000D106E206F30610F4415051099A01281B67
:1044D000390BC9011F910F91FF90EF90DF90CF90A2
:1044E000089578941F920F920FB60F9211248F9314
:1044F0009F93AF93BF938091A8039091A903A0913C
:10450000AA03B091AB030196A11DB11D8093A8032E
:104510009093A903A093AA03B093AB03BF91AF916B
:104520009F918F910F900FBE0F901F901895F89448
:1045300081E08093E00080E28093D800E9ECF0E035
:1045400010828FE19EE40197F1F700C000001DBAD0
:10455000109268001CBC10BE1FBA10927A00109214
:104560006E0010926F001092710010927200108213
:10457000ECEBF0E0108214B817B81AB81DB810BAF6
:10458000108215B818B81BB81EB811BA0C94003FA9
:1045900008950E942B21811102C00E940A210E94CD
:1045A0003621809330030E943E2190E09093AD032A
:1045B0008093AC030E943A21682F70E080E090E085
:1045C0000C94591E8091350380FF0BC06091080147
:1045D00085E0689FB001112475956795759567957D
:1045E0002BC081FF09C06091080185E0689FB00180
:1045F00011247595679520C082FF07C0609108015E
:1046000085E0689FB001112417C09091360399236B
:10461000D1F060910701961788F72091080185E095
:10462000289F90011124929FA001939F500D112467
:1046300070E0CA010E94AA316038710540F461152A
:10464000710519F406C065E070E0862F08958FE7C4
:10465000089581E008958091350380FF08C060913E
:10466000060170E0759567957595679521C081FF86
:1046700006C06091060170E07595679519C082FFCC
:1046800004C06091060170E010C090913603992338
:1046900099F0609105019617A0F780910601899F16
:1046A000C001112470E00E94AA316038710540F405
:1046B0006115710519F406C061E070E0862F089558
:1046C0008FE7089581E00895803F21F40E94E2225F
:1046D000819504C0813F29F40E94E222809339032E
:1046E0000895823F21F40E94E222819504C0833F15
:1046F00029F40E94E222809338030895893F19F437
:104700000E942B2305C08A3F31F40E942B23819500
:1047100080933A0308958B3F21F40E942B238195C7
:1047200004C08C3F29F40E942B2380933B030895FF
:10473000843F21F480913703816017C0853F21F4C5
:1047400080913703826011C0863F21F48091370346
:1047500084600BC0873F21F480913703886005C0D7
:10476000883F31F480913703806180933703089547
:104770008D3F21F48091350381600BC08E3F21F481
:1047800080913503826005C08F3F29F48091350305
:104790008460809335030895803F39F48091390314
:1047A00087FF6CC01092390369C0813F29F4809162
:1047B00039031816BCF362C090913803823F29F484
:1047C00097FF5CC01092380359C0833F19F4191643
:1047D000CCF354C0893F41F480913A0318160CF091
:1047E0004DC010923A034AC08A3F29F480913A039F
:1047F00087FF44C0F6CF8B3F39F480913B0387FF9E
:104800003DC010923B033AC08C3F29F480913B039A
:104810001816BCF333C0843F21F4809137038E7F98
:1048200017C0853F21F4809137038D7F11C0863FEB
:1048300021F4809137038B7F0BC0873F21F4809157
:104840003703877F05C0883F31F4809137038F7E1F
:104850008093370313C08D3F21F4809135038E7F01
:104860000BC08E3F21F4809135038D7F05C08F3FB3
:1048700029F4809135038B7F809335038091380331
:1048800081110EC08091390381110AC080913A03D1
:10489000811106C080913B03811102C01092360342
:1048A000089587E393E00E9472140E943B22909344
:1048B00033038093320308951F93CF93DF93809146
:1048C0003203909133030E944722AC01909136034A
:1048D000992321F02091090130E006C02091340392
:1048E0008AE0289F900111244217530708F46EC0F4
:1048F00080913803C0913903D0913A0310913B0362
:10490000811107C0C1115EC0D1115CC011115AC024
:104910005DC09F3F19F09F5F90933603181624F4F3
:104920000E94E222809338038091380387FF05C0FC
:104930000E94E2228195809338031C1624F40E9481
:10494000E222809339038091390387FF05C00E94DA
:10495000E22281958093390340913803442379F012
:1049600030913903332359F025EB4203A001112480
:10497000509338033203C0011124909339031D165C
:1049800024F40E942B2380933A0380913A0387FFFB
:1049900005C00E942B23819580933A03111624F4BD
:1049A0000E942B2380933B0380913B0387FF05C02C
:1049B0000E942B23819580933B03DF91CF911F9120
:1049C0000C9451249F3F09F0A6CFB7CFDF91CF9130
:1049D0001F910895E7E3F3E085E0DF011D928A95DA
:1049E000E9F710923603109235030895833081F170
:1049F00028F4813059F08230D1F00895853009F4DF
:104A000049C0B8F1863009F456C008958091340346
:104A1000262F30E0280F311D2F3F310524F4680F79
:104A20006093340308958FEF809334030895809149
:104A30000901262F30E0280F311D2F3F310524F4C6
:104A4000680F6093090108958FEF8093090108951D
:104A500080910801262F30E0280F311D2F3F3105AE
:104A600024F4680F6093080108958FEF8093080184
:104A7000089580910701262F30E0280F311D2F3F28
:104A8000310524F4680F6093070108958FEF809338
:104A90000701089580910601262F30E0280F311D6F
:104AA0002F3F310524F4680F6093060108958FEFBE
:104AB00080930601089580910501262F30E0280F8C
:104AC000311D2F3F310524F4680F609305010895CF
:104AD0008FEF809305010895833011F128F4813020
:104AE00049F0823091F00895853081F120F18630CF
:104AF000C1F1089580913403681720F4861B8093D8
:104B000034030895109234030895809109016817C1
:104B100020F4861B809309010895109209010895DD
:104B200080910801681720F4861B8093080108957E
:104B300010920801089580910701681720F4861BE0
:104B4000809307010895109207010895809106014E
:104B5000681720F4861B80930601089510920601C1
:104B6000089580910501681720F4861B8093050144
:104B700008951092050108950F931F9341E050E0AE
:104B800060E070E08A019B0104C0000F111F221F2A
:104B9000331F8A95D2F7C901B8010E94591E1F918F
:104BA0000F910C94511A873208F04DC08E3108F0E5
:104BB0008FC0803109F479C008F5873009F467C0E7
:104BC00068F4863009F08BC080913003817F8E7F3E
:104BD0008093300381E080933D0308958B3009F486
:104BE0007AC08E3009F07BC08091300382FB22278F
:104BF00020F991E0922790FB82F960C0863109F498
:104C00006AC088F4813109F06AC00E94511A80910B
:104C1000AC0387FB222720F991E0922790FB87F9CC
:104C20008093AC0358C0893109F455C08B3109F029
:104C300056C08091300381FB222720F991E0922712
:104C400090FB81F93BC0883309F445C048F48932B0
:104C500009F443C0853309F440C08732F1F13FC005
:104C60008334D9F120F48A33D0F1895332C08834A7
:104C7000B1F50E94511A2FEF83ED90E3215080404F
:104C80009040E1F700C000000E94972224C080916C
:104C90003003982F9095917090FB80F980933003AA
:104CA000911119C0897F877F10C08091300383FBE9
:104CB000222720F991E0922790FB83F9809330031B
:104CC000992349F08091300381608093300303C0C1
:104CD0008D510E94BC2581E0089580E0FACF80E0EC
:104CE000089580E008950C9471268E518A3030F436
:104CF000E82FF0E0E354FE4F8081089580E00895AE
:104D0000CF93C82F80913D03813079F018F0823025
:104D1000E9F185C0E0910301F091040180818131C6
:104D200069F0823209F07DC009C0E0910301F09181
:104D300004018081813111F0823261F48C2F0E9454
:104D40007326811104C08C2F0E94D3251DC081E0E1
:104D500090E01AC08C2F0E947126811114C0C431BA
:104D600079F048F4CB3079F0C03109F05EC082E0D0
:104D700080933D0308C0C93219F0C83321F055C0F3
:104D800010923D0352C081E0817051C0C93279F167
:104D900008F5C43161F1A0F4C73009F044C01092A5
:104DA000340384E180930901C09308018CE380936C
:104DB000070188E08093060188E28093050133C0F3
:104DC00082EE8C0F863078F58C2F0E9475268093AA
:104DD0003C0329C0CE34E9F020F4CB3421F56AE05D
:104DE00013C0C13579F0C235F1F461E00DC0809196
:104DF0003C03882319F010923C0315C081E0809396
:104E00003D0315C061E006C080913C030E94F6247A
:104E10000AC06AE080913C030E946C2504C0109295
:104E20003D0380E004C081E002C080E0ADCFCF91BF
:104E3000089580915E0308950F931F93CF93DF939E
:104E400000D01F92CDB7DEB78C010E94922982302C
:104E500011F0843019F583E089831B830A838093E2
:104E6000E9008FEF9091E800815095FD06C095ED27
:104E70009A95F1F700008111F5CF8091E80085FF48
:104E80000DC040E050E063E070E0CE0101960E946A
:104E9000AF298091E8008E778093E8000F900F9003
:104EA0000F90DF91CF911F910F910895CF93DF93D2
:104EB00000D01F92CDB7DEB72091B203243031F578
:104EC00022E02983805891099B838A8383E0809321
:104ED000E9008FEF9091E800815095FD06C095EDB7
:104EE0009A95F1F700008111F5CF8091E80085FFD8
:104EF0000DC040E050E063E070E0CE0101960E94FA
:104F0000AF298091E8008E778093E8000F900F9092
:104F10000F90DF91CF910895CF93DF93EC010E9422
:104F20009229823011F08430F9F482E08093E90014
:104F30008FEF9091E800815095FD06C095ED9A9510
:104F4000F1F700008111F5CF8091E80085FF0CC0DA
:104F500040E050E065E070E0CE010E94AF29809112
:104F6000E8008E778093E800DF91CF910895CF938A
:104F7000DF93EC010E949229823019F0843009F00D
:104F800047C0809114018823E1F08091AC0387FF32
:104F900018C084E08093E9008FEF9091E800815081
:104FA00095FD06C095E19A95F1F700008111F5CFC6
:104FB0008091E80085FF2CC040E050E060E270E0A6
:104FC00017C081E08093E9008FEF9091E800815055
:104FD00095FD06C095ED9A95F1F700008111F5CF8A
:104FE0008091E80085FF14C040E050E068E070E088
:104FF000CE010E94AF298091E8008E778093E8006F
:1050000080E2FE01AEE3B3E001900D928A95E1F7F4
:10501000DF91CF9108958091B103811109C00E9461
:10502000402B0E949D2B8091E20084608093E200DF
:1050300008951092B1030895089508950C940322E1
:1050400042E061EC81E00E94B92A42E061EC82E03A
:105050000E94B92A42E061EC83E00E94B92A42E250
:1050600061EC84E00C94B92A8091B403833009F494
:1050700055C030F4813071F0823009F48EC008954B
:105080008A3009F47AC08B3009F460C0893009F0A5
:105090009CC020C08091B303813A09F096C08091F2
:1050A000E800877F8093E8008091B7039091B80370
:1050B000892B21F460E28EE393E003C060E080E09E
:1050C00090E070E00E94FA298091E8008B7780934D
:1050D000E80008958091B303813209F076C0809191
:1050E000B7039091B803009719F0039709F06DC0CA
:1050F0008091E800877F8093E8008091E80082FD3E
:1051000005C08091B2038111F8CF5FC08091F1009A
:1051100080935E038091E8008B7753C08091B30346
:10512000813A09F052C08091B7039091B803892B5E
:1051300009F04BC08091E800877F8093E800809160
:10514000E80080FFFCCF8091140136C08091B3034A
:105150008132D9F58091B7039091B803892BA9F5D5
:105160008091E800877F8093E8000E94EE2A80917A
:10517000B503809314010C94511A8091B3038132CA
:1051800021F58091E800877F8093E8000E94EE2A55
:105190008091B60380935F0308958091B303813AB1
:1051A000A1F48091E800877F8093E8008091E80077
:1051B00080FFFCCF80915F038093F1008091E80035
:1051C0008E778093E8000C94EE2A089584B7877F49
:1051D00084BF0FB6F894A895809160008861809391
:1051E0006000109260000FBE80E880936100109212
:1051F00061000E94AA140E94402B0E949D2B809166
:10520000E20084608093E20078940E94322E0E9433
:10521000AE148AE091E00E9456148091B20385306A
:1052200069F40E94C2218091B0038823B1F30E94E7
:10523000EF21882391F30E949929EFCF0E94B614A1
:105240000E945913EACF0C942529292F33272330A4
:105250003105C9F060F42130310581F0223031058B
:1052600009F047C08DE690E02AEE36E046C02132D4
:10527000310511F12232310561F13BC082E190E04C
:1052800027E537E03AC099278130910561F040F079
:105290008230910559F0039761F5E0EBF6E008C024
:1052A000E6EEF6E005C0EEECF6E002C0E6EBF6E076
:1052B000849190E09F0121C064307105D0F4660FA5
:1052C000771FFB01ED52FE4F2081318189E090E094
:1052D00014C06430710568F4FB01EE0FFF1FE55345
:1052E000FE4F20813181FB01E953FE4F808190E028
:1052F00004C080E090E020E030E0FA0131832083B8
:1053000008950895CF93C82F0E948129C093600308
:10531000CF9108958091B203843011F081E0089517
:1053200082E0089580916003811102C00C948A2963
:10533000089580E189BD82E189BD09B400FEFDCFF9
:105340008091D8008F7D8093D8008091E0008260AA
:105350008093E0008091E00081FDFCCF0895CF9222
:10536000DF92EF92FF920F931F93CF93DF93EC01A5
:105370008B017A010E940D2B811133C0E114F104DD
:1053800039F0F70180819181081B190BC80FD91FD3
:10539000C12CD12C0115110519F18091E80085FD72
:1053A00016C08091E8008E778093E800E114F10444
:1053B00049F0F70180819181C80ED91ED182C08247
:1053C00085E00FC00E940D2B882321F30AC089912C
:1053D0008093F10001501109FFEFCF1ADF0ADACFF5
:1053E00080E0DF91CF911F910F91FF90EF90DF90C0
:1053F000CF9008952091B9033091BA03261737074B
:1054000048F06115710539F42091E8002E7720935A
:10541000E80001C0B901FC0120E06115710579F1D6
:105420008091B2038823F1F18530F1F18091E80099
:1054300083FD3CC08091E80082FD2EC08091E80091
:1054400080FFEBCF2091F3008091F20090E0922B4F
:105450006115710551F08830910538F42191209340
:10546000F100615071090196F3CF21E0089709F02E
:1054700020E08091E8008E778093E800CECF211164
:10548000CFCF0AC08091B203882361F0853061F0EC
:105490008091E80083FD0AC08091E80082FFF2CF8E
:1054A00080E0089582E0089583E0089581E0089502
:1054B0002091B9033091BA032617370748F06115D8
:1054C000710539F42091E8002E772093E80001C09F
:1054D000B901FC0120E06115710591F18091B203E1
:1054E000882309F440C0853009F43FC08091E8006A
:1054F00083FD3DC08091E80082FD2FC08091E800CF
:1055000080FFE9CF2091F3008091F20090E0922B90
:105510006115710559F08830910540F4249120936C
:10552000F1003196615071090196F2CF21E00897A0
:1055300009F020E08091E8008E778093E800CBCFDF
:105540002111CCCF0AC08091B203882361F085304D
:1055500061F08091E80083FD0AC08091E80082FF3D
:10556000F2CF80E0089582E0089583E0089581E01D
:105570000895982F973068F59093E900981739F0BF
:105580007091EC002091ED005091F00003C0242FA9
:10559000762F50E021FD02C09F5FECCF3091EB00F1
:1055A0003E7F3093EB003091ED003D7F3093ED0076
:1055B0003091EB0031603093EB007093EC0020935E
:1055C000ED005093F0002091EE0027FDE5CF80E044
:1055D00008958F708093E90081E008958091B3036E
:1055E00087FF11C08091E80082FD05C08091B20361
:1055F0008111F8CF11C08091E8008B770BC08091AA
:10560000B203882349F08091E80080FFF8CF8091B1
:10561000E8008E778093E80008952091E4003091AF
:10562000E50095E64091EC00842F817040FF23C097
:105630008091E80080FD1DC08091B203882399F01D
:10564000853099F08091EB0085FD11C04091E40018
:105650005091E5002417350729F3915011F09A0174
:10566000E1CF84E0089582E0089583E0089581E029
:10567000089580E008954091E80042FFDDCF08954D
:105680000E94AE2B0E94B62BE0EEF0E0808181609C
:105690008083E8EDF0E080818F77808319BCA7EDEF
:1056A000B0E08C918E7F8C9380818F7E808310926E
:1056B000B10308950F931F93CF93DF930E94AE2BF6
:1056C0000E94B62BC8EDD0E088818F7788838881CF
:1056D0008068888388818F7D888319BC1092B2038B
:1056E0001092AE031092B0031092AF0300EE10E0E0
:1056F000F80180818B7F808388818160888342E08C
:1057000060E080E00E94B92AE1EEF0E080818E7FC7
:105710008083E2EEF0E08081816080838081886018
:105720008083F80180818E7F808388818061888377
:10573000DF91CF911F910F910895E8EDF0E0808106
:105740008F7E8083E7EDF0E080818160808384E05C
:1057500082BF81E08093B1030C945A2BE8EDF0E016
:1057600080818E7F80831092E20008951092DA008B
:105770001092E10008951F920F920FB60F9211241C
:105780002F933F934F935F936F937F938F939F9349
:10579000AF93BF93EF93FF938091E10082FF0BC023
:1057A0008091E20082FF07C08091E1008B7F8093AF
:1057B000E1000E94312E8091DA0080FF1FC08091AD
:1057C000D80080FF1BC08091DA008E7F8093DA00C2
:1057D0008091D90080FF0DC080E189BD82E189BD43
:1057E00009B400FEFDCF81E08093B2030E940B2834
:1057F00005C019BC1092B2030E9419288091E100E3
:1058000080FF19C08091E20080FF15C08091E20006
:105810008E7F8093E2008091E20080618093E200BD
:105820008091D80080628093D80019BC85E0809375
:10583000B2030E941D288091E10084FF30C0809156
:10584000E20084FF2CC080E189BD82E189BD09B4FA
:1058500000FEFDCF8091D8008F7D8093D80080918D
:10586000E1008F7E8093E1008091E2008F7E809343
:10587000E2008091E20081608093E2008091AE03BB
:10588000882311F084E007C08091E30087FD02C007
:1058900081E001C083E08093B2030E941E288091C2
:1058A000E10083FF29C08091E20083FF25C0809141
:1058B000E100877F8093E10082E08093B203109241
:1058C000AE038091E1008E7F8093E1008091E20041
:1058D0008E7F8093E2008091E20080618093E200FD
:1058E00042E060E080E00E94B92A8091F000886088
:1058F0008093F0000E941C28FF91EF91BF91AF911F
:105900009F918F917F916F915F914F913F912F91D7
:105910000F900FBE0F901F9018951F920F920FB609
:105920000F9211242F933F934F935F936F937F9325
:105930008F939F93AF93BF93CF93DF93EF93FF9397
:10594000C091E900CF708091EC00D82FD17080FD1C
:10595000D0E81092E9008091F000877F8093F000FA
:1059600078940E94D12C1092E9008091F000886018
:105970008093F000CD2BCF70C093E900FF91EF91A1
:10598000DF91CF91BF91AF919F918F917F916F9157
:105990005F914F913F912F910F900FBE0F901F90ED
:1059A00018951F93CF93DF93CDB7DEB7AA970FB6A5
:1059B000F894DEBF0FBECDBFE3EBF3E08091F100C2
:1059C000819323E0EB3BF207C9F70E9434288091D2
:1059D000E80083FF2EC18091B3039091B403492F57
:1059E00050E04A30510508F024C1FA01EE55FF4F4E
:1059F0000C94BE31803821F0823809F01AC108C0F9
:105A00008091AF039091B003992389F082600FC019
:105A10008091B7038F70873008F00BC18093E90045
:105A20008091EB0085FB882780F91092E900909126
:105A3000E800977F9093E8008093F1001092F100C6
:105A4000D1C0282F2D7F09F0F4C0882319F08230AF
:105A500061F0EFC08091B503813009F0EAC0933066
:105A600009F080E08093B0032EC08091B5038111CE
:105A70002AC08091B7038F702FEF280F263008F0CF
:105A8000D8C08093E9002091EB0020FF1CC0933028
:105A900021F48091EB00806214C09091EB00906142
:105AA0009093EB0021E030E0A90102C0440F551FA4
:105AB0008A95E2F74093EA001092EA008091EB00A9
:105AC00088608093EB001092E9008091E800877F66
:105AD0008093E8000E94EE2AACC08111AAC0109108
