:100000000C94D0020C94ED020C94ED020C94ED02D1
:100010000C94ED020C94ED020C94ED020C94ED02A4
:100020000C94ED020C94ED020C94D1200C94A321BD
:100030000C940F1C0C94ED020C94ED020C94ED0248
:100040000C94ED020C94ED020C94ED020C94ED0274
:100050000C94ED020C94681C0C94ED020C94ED02CF
:100060000C94ED020C94ED020C94ED020C94ED0254
:100070000C94ED020C94ED020C94ED020C94ED0244
:100080000C94ED020C94ED020C94ED020C94ED0234
:100090000C94ED020C94ED020C94ED020C94ED0224
:1000A0000C94ED020C94ED020C94ED0249034C0308
:1000B0004F035203550358035B03491249127B1245
:1000C0007B12C913C913C913C913C1125A136B1375
:1000D0006B136B146B147D147D1474147D147D14D8
:1000E0007D146B146B1479147D147D147914102213
:1000F00037222F2337222F238322A6222F23FD22CC
:100100000C230102E6370103E6006572676F646F36
:10011000785F657A2F676C6163616D6272652040FC
:1001200020302E372E33302D343633312D67313891
:10013000396530642D6469727479002F004C002990
:1001400000E100015100001E00140004001D0064C5
:1001500000E6001F001A0016001B00E2002B002022
:1001600000080007000600E0002C0021001500092F
:10017000001900E3004600220017000A00050000F5
:100180000050004A0002530000015300004F004D90
:10019000000253000001530000510023001C000B1B
:1001A00000110000005200240018000D001000E7AC
:1001B00000460025000C000E003600E40028002652
:1001C0000012000F003700E2002A0027001300335E
:1001D0000038003000E6002D002E003400E500015C
:1001E0005100002B5D010001000100010000003AF8
:1001F00000380020143402010001003B00271430B5
:10020000002614010001003C0021142200221401E8
:100210000001003D002E142D002D14010001003EB0
:100220000023142D5D1F14000001000100010000D7
:1002300000010000000100010001000000010000B9
:100240000001003F002E002702360200000100409E
:1002500000240221021E02010001004100250222A9
:10026000021F0201000100420026022302200201B7
:10027000000100430032002E022514010001004459
:1002800000450001000100010000002E004C002983
:1002900000E100C30000001E00040014001A006406
:1002A00000E60020021D0016001B00E2002B0034B7
:1002B00000080007000600E0002C003402150009C9
:1002C000001900E3004D00260217000A0005000097
:1002D000006500500002530000035300004A004F25
:1002E0000002530000035300004B002D001C000BC4
:1002F00000110000004600350018000D003600E730
:10030000004E002D020C000E003300E400280023F4
:100310000212000F003302E2002A001F0213001035
:10032000001E022102E60027022E002202E500C381
:100330000000002B5D010001000100010000003AF7
:10034000001E02200222024F0001003B001F02217A
:100350000223025200CA5C3C002F0226022F0051E9
:1003600000CB5C3D00300227023000500001003E0F
:10037000003102350035020000C45C0100010000BC
:100380000001000000010001000100000001000068
:1003900000C35C3F002E002700370000002C5D40AA
:1003A00000240021001E0050000100410025002211
:1003B000001F005100C65C420026002300200052AE
:1003C00000C75C430025022E0231004F00010044AB
:1003D0000045000100010001000000E100E500000F
:1003E0000000000000000000002A2B280000000090
:1003F00000000000000000000000000029000000D4
:10040000002C1E3420212224342627252E362D3779
:1004100038271E1F202122232425263333362E374A
:10042000381F0405060708090A0B0C0D0E0F1011E2
:1004300012131415161718191A1B1C1D2F313023EF
:100440002D350405060708090A0B0C0D0E0F1011B7
:1004500012131415161718191A1B1C1D2F313035BD
:100460004C00000000000000000000000000000040
:10047000000000000000000000000000000000007C
:1004800000000000007E0F00D4FFFFFFC700000047
:100490007816034500720067006F0044006F007813
:1004A00000200045005A00000028035A0053004174
:1004B00000200054006500630068006E006F006C4F
:1004C000006F006700790020004C0061006200733B
:1004D0000000000403090409023B00020100A0FA25
:1004E000090400000103010100092111010001229A
:1004F00040000705810308000A0904010001030008
:100500000000092111010001223B000705820320A0
:10051000000A12011001000000089732744901001E
:100520000102000105010906A1018505050719E081
:1005300029E71500250195087501810205071900B5
:1005400029EF1500250195F07501810205081901B3
:100550002905950575019102950175039101C00565
:10056000010906A101050719E029E71500250195F4
:100570000875018102950175088101050719002997
:10058000FF150026FF009506750881000508190172
:100590002905950575019102950175039101C0002A
:1005A00011241FBECFEFDAE0DEBFCDBF11E0A0E027
:1005B000B1E0E0EDF9E402C005900D92AC31B10775
:1005C000D9F722E0ACE1B1E001C01D92AD35B20730
:1005D000E1F70E94091E0C94E6240C940000809818
:1005E000889A8198899A84988C9A85988D9A869809
:1005F0008E9A87988F9A08952098289821982998FC
:1006000022982A9823982B9852985A9853985B9836
:100610003E9846980895CF93E82F873080F58091D3
:10062000060190910701892B09F047C0CE2F64E69F
:1006300070E080E40E94D20E90930701809306013F
:10064000892BD1F464E670E082E10E94290F909337
:10065000070180930601892B79F481E090E001C0C5
:10066000880FCA95EAF764E670E080950E94290F2A
:100670009093070180930601CF910C947E0F90E038
:10068000FC013797E730F105C0F4EA5AFF4F0C94AC
:100690007723209A289811C0219A29980EC0229A6F
:1006A0002A980BC0239A2B9808C0529A5A9805C0D2
:1006B000539A5B9802C03E9A4698CF910895CF9383
:1006C000873040F58091060190910701892B59F5FB
:1006D00064E670E081E40E94D20E9093070180935B
:1006E0000601892B11F0C0E011C084E690E00E9461
:1006F000590F97FF05C09093070180930601F3CF30
:10070000C82FC09510920701109206010E947E0F1B
:100710008C2F0AC09FB18FB1807F8695869593708C
:10072000892B809501C080E0CF9108950E949404A8
:1007300090E090930701809306010E94FC020C94C4
:10074000EF02EF92FF920F931F93CF93DF9380916D
:10075000060190910701892B91F080911E018F5F16
:1007600080931E0181110BC00E94940490E090932D
:10077000070180930601892B11F40E94060404E20C
:1007800012E0C0E0F12C87E0E82EEC0E8C2F0E94E6
:100790000B038E2D0E940B038C2F0E945F03F80128
:1007A0009081891719F08083D1E001C0D0E08E2DAF
:1007B0000E945F03F8019781891719F0878381E010
:1007C00001C080E0D82BFD2A0E94FC02CF5F0F5FA2
:1007D0001F4FC730C1F68F2DDF91CF911F910F9121
:1007E000FF90EF9008950E94940490E09093070189
:1007F000809306010E94FC020E94EF02E2E3F2E015
:10080000119282E0E034F807D9F7089556985E987F
:1008100025982D9826982E9827982F988FEF90E05E
:10082000909389008093880090938B0080938A0036
:1008300090938D0080938C00259A2D9A2FEF80E75E
:1008400092E0215080409040E1F700C00000269ADD
:100850002E9A2FEF80E792E0215080409040E1F700
:1008600000C00000279A2F9A2FEF80E792E02150D6
:1008700080409040E1F700C0000025982D982FEFB0
:1008800080E792E0215080409040E1F700C00000F6
:1008900026982E982FEF80E792E0215080409040DC
:1008A000E1F700C0000027982F9856985E98259889
:1008B0002D9826982E9827982F98089589EA809346
:1008C000800089E08093810024982C983F988AB119
:1008D0008F7C8AB96E98479A8BB180638BB9769A70
:1008E0000E94841A60932002709321028093220256
:1008F0009093230267708FEF689FB0011124759564
:100900006795759567957727709389006093880040
:1009100070938B0060938A0070938D0060938C00BD
:100920000E9406040C944B0580E290E0909307012E
:100930008093060180911F0181110EC00E94CC0E90
:1009400081E080931F012FEF83ED90E321508040E1
:100950009040E1F700C0000064E670E080E40E948F
:10096000D20E9093070180930601892B09F04EC0A7
:1009700064E670E080E00E94290F90930701809365
:100980000601892B09F042C064E670E080E00E9415
:10099000290F9093070180930601892BB9F564E62E
:1009A00070E08FE30E94290F909307018093060166
:1009B000892B61F50E947E0F64E670E080E40E945E
:1009C000D20E9093070180930601892BF9F464E617
:1009D00070E08CE00E94290F90930701809306013C
:1009E000892BA1F464E670E080E00E94290F9093C7
:1009F000070180930601892B49F464E670E08FE3D8
:100A00000E94290F90930701809306010E947E0F98
:100A100080910601089510922002109221021092F6
:100A200022021092230284E0806180932002609170
:100A300020027091210280912202909123020E9453
:100A4000881A0C94941A8B322DE59207C9F020F481
:100A50008A329D4569F01DC08C322DE5920771F0F8
:100A60008D329D45B1F482E091E00E94580711C09B
:100A7000FB018281882371F00E94F71A80E00895BB
:100A8000FB018281882331F08AE091E00E945807BF
:100A9000F5CF81E0089508956091CF017091D00164
:100AA0008091D1019091D2010E94650756985E987D
:100AB00025982D9826982E9827982F98823039F0CF
:100AC000833041F0813041F4259A2D9A0895269A79
:100AD0002E9A0895279A2F9A08959C013A952115E8
:100AE0003F4138F5DC01AA27B270AC0144275470AD
:100AF0009C012227387094FF0FC090FF02C080E154
:100B000001C080E0AB2B09F08062452B09F08064C6
:100B1000232B69F080680BC0892F8170AB2B09F003
:100B20008260452B09F08460232B09F08860FB016B
:100B300009940895CF93DF93EC01805E91090897A3
:100B400010F0209719F464E072E102C06DE374E1E3
:100B5000CE010E946D058C2FDF91CF910C94FD107A
:100B6000CF93DF93EC010E948511CE01805E910945
:100B7000089710F0209719F46BE072E102C064E46A
:100B800074E1CE01DF91CF910C946D05CF93DF938B
:100B9000EC010E949A05CE01DF91CF910C94B00533
:100BA00081E008950C94230508950C94D4051F93B7
:100BB000CF93DF9300D000D01F92CDB7DEB749832B
:100BC0005A836B8330915F0189819A81311114C0FE
:100BD000662359F0222349F00E942919182F682F03
:100BE00089819A810E94D01803C00E94FC18182F96
:100BF00069817A81812F04C00E94291969817A81D3
:100C00000F900F900F900F900F90DF91CF911F9149
:100C10000C94C507FC01262F4081518162817381AC
:100C200084810C94D705CF93DF93EC0160E00E94A0
:100C30000A06BE01DF91CF910C94D5050E94531A8C
:100C4000811102C00E94F71A0E949A0A0C945E0455
:100C50000E94820D0C94940908950E9459140E94D8
:100C60002C062FEF84E39CE0215080409040E1F778
:100C700000C000000C948E1C0F931F93CF93DF9342
:100C8000EC0161E00E940A068C01BE010E94D205BF
:100C90008823A9F1BE01C8010E94220B882379F1A3
:100CA000BE01C8010E94AF0D882349F1BE01C801F1
:100CB0000E94B30B882319F1BE01C8010E94050CE4
:100CC0008823E9F0BE01C8010E94300D8823B9F0E5
:100CD0008A81882369F001158CE5180731F00F3DF2
:100CE0001C4531F40E94F71A0AC00E942D0607C065
:100CF000CE01DF91CF911F910F910C94D00580E030
:100D0000DF91CF911F910F910895DF92EF92FF92A3
:100D10000F931F93CF93DF93E82FF0E0EF51FC4F39
:100D2000D490282F26952695269530E0F901EF5787
:100D3000FB4F0491877010E0082E02C015950795AF
:100D40000A94E2F701701127F901EF58FB4FE49084
:100D5000F12C082E02C0F594E7940A94E2F791E092
:100D6000E922FF24F901EF59FB4FC491D0E002C002
:100D7000D595C7958A95E2F7C170DD270115110554
:100D800019F081EE0E94FD10E114F10419F086EED5
:100D90000E94FD108D2D0E94FB11EF2819F086EEA8
:100DA0000E948511012B19F081EE0E948511CD2B37
:100DB00051F08CE2DF91CF911F910F91FF90EF9056
:100DC000DF900C94FB11DF91CF911F910F91FF9059
:100DD000EF90DF900895EF92FF920F931F93CF93C0
:100DE000DF938C01F62E8AE0E82EF80184918823A7
:100DF00009F457C0813009F042C0E8012196FE0194
:100E00008491813031F42196FE0184910E94FB117E
:100E100039C0823039F4E8012296FE0184910E94A3
:100E2000FD1030C0833039F4E8012296FE01849130
:100E30000E94851127C0843029F5E8012296FE0121
:100E4000249180E090E030E0205331092A303105D0
:100E500060F4E89EA001E99E500D1124C901840FA1
:100E6000951F2196FE012491EECF009759F0EFE9EE
:100E7000FFE03197F1F700C000000197F6CF0E9424
:100E80008506E8018E010F5F1F4F8F2D882309F41F
:100E9000ACCFEFE9FFE03197F1F700C000008150DF
:100EA000F5CFDF91CF911F910F91FF90EF900895B3
:100EB00060E00C94EB06982F9F709A50963010F0DB
:100EC000805D01C0895A0C948506CF92DF92EF9223
:100ED000FF926C01EE24FF24C114D104E104F1045B
:100EE00021F0C701B60120E101C020E0C72ED82EB5
:100EF000E92EFF24C114D104E104F10419F0285FA4
:100F0000C701B6016B017C0154E0F694E794D794D5
:100F1000C7945A95D1F7C114D104E104F10419F032
:100F20002C5FC701B6016B017C0142E0F694E794A7
:100F3000D794C7944A95D1F7C114D104E104F104C0
:100F400019F02E5FC701B601DC01CB01B695A7955C
:100F500097958795892B8A2B8B2B09F02F5F822FF2
:100F6000FF90EF90DF90CF90089508950C94B5070F
:100F700081E008950C94B807CF93C82F0E94B6075C
:100F80008C2F0E94BA07CF91089524E5829FC0015B
:100F90001124FC0126E0729FE00DF11D1124E60FE3
:100FA000F11DEE0FFF1FE55CFE4F859194910895B2
:100FB000CF93DF930E94C5070E94B608EC0181150C
:100FC00023E5920798F5811542E5940708F094C04F
:100FD000C11580E2D807C0F4C11521E0D20708F09E
:100FE000C1C0C53AD10548F4C430D10508F0BAC033
:100FF000C130D10509F4B6C0B3C0CE01805E9109FD
:10100000089708F4AFC0ACC0C11541E5D40708F09B
:101010006EC0C11580E5D80708F04DC0C11520E4A9
:10102000D20708F49DC0DF70D06A9CC0811546E5E8
:10103000940700F5C11585E5D80708F077C0C115FC
:1010400024E5D20708F06DC0CE018370992721E016
:1010500030E002C0220F331F8A95E2F78C2F86956D
:10106000869540E2849FC0011124E901C82BD92B49
:10107000DA6878C081154AE5940778F4C11589E5E6
:10108000D80708F05DC0C11528E5D20708F468C08C
:10109000DC2FCC27C06FD06A65C090568115904276
:1010A00008F05EC08D2F8F710E944A09DD27D06243
:1010B0008F71D82B57C0CE0174E0969587957A959D
:1010C000E1F783709C2F937021E030E002C0220F83
:1010D000331F9A95E2F73C68382BCF70C695C695BA
:1010E00080E2C89FE0011124C22BD32B3BC0DC2F30
:1010F000CC27C16FD06A36C08370992721E030E0D9
:1011000002C0220F331F8A95E2F78C2F86958695B1
:1011100040E2849FC0011124E901C82BD92BDC686F
:1011200021C0DC2FCC27C46FD06A1CC08C2F0E943A
:101130004A098F71C82FD0E0DC2FCC27D06212C0B3
:101140008C2F8F700E944A0994E0D695C7959A9586
:10115000E1F7CF70D0E0DC2FCC27D069C82B02C0DC
:10116000C0E0D0E0CE01DF91CF91089582389105A3
:1011700069F1B0F48133910509F46DC048F4893206
:10118000910509F463C08A32910509F469C0089594
:101190008533910509F455C089339105B9F0089557
:1011A000833E910569F138F4803E9105B1F0823EAD
:1011B000910509F10895863E9105A9F1873E9105B3
:1011C000B9F1843E910509F064C023C020914A0220
:1011D00020FD4FC021FD4DC0089580914A0280FD41
:1011E00044C080914B0280FF44C080914A0284FD3C
:1011F00042C083EE4DC080914A0282FF38C0F5CFD5
:1012000080914A0282FD33C080914B0280FD31C043
:10121000ECCF80914B0281FF32C080914A0284FD65
:101220002AC087EE35C080914A0283FF26C0F5CFE1
:1012300080914A0283FD21C080914B0281FD1FC035
:10124000ECCF80914A0285FD1CC01DC080914A02EE
:1012500085FD19C016C080914A0286FD16C017C0D0
:1012600080914A0286FD13C010C089E311C082EE4E
:101270000FC080EE0DC080E00BC086EE09C084EE8A
:1012800007C089E205C085E303C08AE201C081E3AB
:1012900090E0089590914A0292FF0DC0282F287186
:1012A000283019F4877F846006C0282F24712430E9
:1012B00011F48B7F886093FF0DC0282F287128318F
:1012C00019F4877E846106C0282F2471243111F41B
:1012D0008B7E886120914B0220FF0DC0382F387122
:1012E000383019F4877F816006C0382F3171313072
:1012F00011F48E7F886021FF0DC0282F28712831BE
:1013000019F4877E816106C0282F2171213111F4E3
:101310008E7E886194FD877E0895E82FF0E0EE5C74
:10132000FD4F8081089508950C944C050E9496030A
:10133000E4E2F2E0A2E3B2E011921D9282E0E23335
:10134000F807D1F78EE00E94BA090C941E06CF93DD
:1013500084E292E00E94A103C82F282F4EE062E3AE
:1013600072E084E292E00E943C0A0E9428068C2FE0
:10137000CF910895CF93C82F26E0829FC0011124FA
:101380000E947D2380932501909326019C0180E09B
:101390004BEF8C1749F0F90196E041939150E9F732
:1013A0008F5F2A5F3F4FF5CFCF91089510922401B0
:1013B000E0912501F091260190E04BEF981769F03C
:1013C0009F012A5F3F4F50815B3F09F04083319678
:1013D000E217F307C1F79F5FF1CF0895AF92BF9275
:1013E000CF92DF92EF92FF920F931F93CF93DF93F1
:1013F00010922301C0912501D09126011091240162
:10140000062F7C01FB0150E0AA24A394B12C8E2F5F
:10141000801B841710F5D7013D917D0190813927FC
:10142000DE0160E070E06501062E01C0CC0C0A947C
:10143000EAF7832F8C2141F08C918B3F21F42C9380
:101440009C2511E001C051E011966F5F7F4F66301F
:10145000710549F726969193DACF109324015093A2
:101460002301DF91CF911F910F91FF90EF90DF90BB
:10147000CF90BF90AF900895DF92EF92FF920F93BD
:101480001F93CF93DF93EC018B01E42ED22E0E94A9
:10149000411CAC01609121017091220190932201C5
:1014A0008093210190912001292F30E0261B370BDA
:1014B000C901840F951F6BEF70E00E946323F82E23
:1014C0008093200180912401882321F06F2D8E2D9F
:1014D0000E94D609D11004C080912301882369F0AD
:1014E0002F2D4E2DB801CE01DF91CF911F910F917D
:1014F000FF90EF90DF900C94EE09DF91CF911F9158
:101500000F91FF90EF90DF900895CF93DF9397FFB7
:101510000DC0FB012281222349F0EC010E94B00A98
:10152000CE019F770E94070B0E94E90A81E0DF91BC
:10153000CF9108958CE090E00E949E2490E0A0E07E
:10154000B0E08093400290934102A0934202B09396
:1015500043020895609140028CE090E00C94B22424
:101560000E94930F8695817080934502909140026E
:10157000913029F4882319F089E30E94FB110E941D
:10158000AA19809344020E94BD19809140028130C3
:1015900071F048F0823081F08430A1F486EE0E9430
:1015A000FB1188E10DC082EE0E94FD100BC088E1A6
:1015B00093E00E94C60506C082EE0E94FD1087E5FA
:1015C0000E94FB118FE39CE90197F1F700C0000036
:1015D000089580914002813039F078F0823069F0CE
:1015E000843089F488E20DC08CE20E94FB11809166
:1015F0004502882341F089E304C082EE0E948511F0
:1016000002C00E94FB11809144020C94BA190F93FE
:101610001F93CF93DF938C01CCE0D0E0C8010C2E58
:1016200002C0969587950A94E2F78F700E945B0737
:101630002497CC3F8FEFD80789F7DF91CF911F9187
:101640000F9108950F931F93CF93DF93EC018B01BC
:10165000FB018281882361F00E94AA19CE01825E7B
:101660009C458530910520F4809340020E94AA0A8F
:10167000B801CE01DF91CF911F910F910C94850A93
:101680000F931F93CF93DF93C42FD22FFC0182813E
:101690008823C9F0409329010E94411C909328019E
:1016A0008093270180E28C0F883008F057C0C77004
:1016B00081E001C0880FCA95EAF7DF91CF911F91B1
:1016C0000F910C94041280912901481330C080912D
:1016D0002701909128010E94591C883C910538F5FA
:1016E00010E21D0FCD17B9F080E28C0F883040F466
:1016F000C77081E001C0880FCA95EAF70E940B12FB
:10170000183028F581E09D2F977001C0880F9A95B9
:10171000EAF70E940412802F0E94FB111830F0F4A7
:10172000D77081E001C0880FDA95EAF70AC080E23D
:101730008C0F883098F4C77081E001C0880FCA957B
:10174000EAF7DF91CF911F910F910C940B12802F2C
:10175000DF91CF911F910F910C94FB11DF91CF91ED
:101760001F910F9108950F939C01CB01243F4CE5ED
:10177000340731F188F4293DFCE53F07D9F02A3DD3
:101780004CE5340779F1283D3C45A9F506E221EE08
:1017900041EE68ED7CE52BC0263FFCE53F07E1F01C
:1017A000A8F0273F3C4539F507E225EE46EE67EF06
:1017B0007CE51DC007E225EE45EE69ED7CE517C02E
:1017C00006E221EE40EE64EF7CE511C007E225EE73
:1017D00044EE65EF7CE50BC006E221EE42EE66EFDB
:1017E0007CE505C008E221E045EE6AED7CE50E945B
:1017F000400B80E008C0FC018281882319F0109220
:10180000290101C081E00F910895CF93DF93EC018E
:10181000FB018281882309F41FC1C230FCE5DF0788
:1018200008F41BC1C6319CE5D90738F09E012B5F37
:101830003C452930310508F010C10E94661A90938A
:101840004B0280934A02C031ECE5DE0709F4C3C0C5
:1018500008F041C0C8308CE5D80709F49AC0F0F40C
:10186000C430ECE5DE0709F487C068F4C2308CE5CB
:10187000D80709F477C0C330DC4509F0E3C0809194
:101880004A02826076C0C630ECE5DE0709F46EC01D
:1018900008F07BC080914A0288606BC0CC308CE538
:1018A000D80709F485C068F4CA30ECE5DE0709F40E
:1018B00074C008F079C00E94591480914A0280686F
:1018C00058C0CE308CE5D80709F476C008F07FC048
:1018D00080914A028BC0CC3FECE5DE0709F44FC093
:1018E00018F5C3318CE5D80709F47DC078F4C1310F
:1018F000ECE5DE0709F473C0C231DC4509F0A2C093
:101900000E94591480914A028F7733C0C5318CE50B
:10191000D80709F472C008F486C0CB3FDC4509F053
:1019200091C080914B023EC0C115FDE5DF0709F46F
:101930005FC058F4CE3F9CE5D90709F444C008F4D1
:101940003FC080914B0282602DC0C230FDE5DF07B1
:1019500009F475C008F45DC0C330DD4509F072C0FC
:1019600080E06EC080914A02816003C080914A028B
:10197000806180934A0266C080914A0211C08091C2
:101980004B02826080934B025DC080914A0280626C
:10199000F0CF80914A028064ECCF80914A02886047
:1019A0008460E7CF8160EECF80914A028E7FE1CFE5
:1019B00080914A028D7FDDCF80914A02877FD9CF07
:1019C00080914B0218C080914B028D7FDBCF8091BC
:1019D0004A028F7ECECF80914A028F7DCACF8091FE
:1019E0004A028F7BC6CF80914A02877F8B7FC1CF0F
:1019F00080914B028D7F8E7FC5CF80914A0282FB02
:101A0000222720F991E0922790FB82F990FB83F93D
:101A1000B0CF80914B02982F909591708E7F892B3B
:101A200090FB81F9AFCF0E94591480914A0287FB45
:101A3000222720F991E0922790FB87F99ACF81E045
:101A40000E94F91A80914A0290914B020E94771AE3
:101A50000E94591480E001C081E0DF91CF91089588
:101A6000CF93DF9386319C4541F5EB010E94AA1983
:101A7000982F8A8120910E0130910F01882379F0EF
:101A80009A7A81E009F480E080932A01911102C0E2
:101A900069E201C065E3C9010E94941B0AC08091FC
:101AA0002A01811102C069E201C065E3C9010E94F7
:101AB0009F1B0E94EE1980E001C081E0DF91CF9171
:101AC0000895CF9390913B019923C9F0882311F099
:101AD000C0E003C010923B0112C080913B01C817C7
:101AE000C8F7EC2FF0E0EE0FFF1FE55DFE4F8081A1
:101AF00091810E949A050E94EE19CF5FEECFCF919F
:101B00000895089580910D018823A1F080913C01F2
:101B1000882381F08091400190914101009751F01C
:101B20000E94591C893C910528F010923C0181E0EB
:101B30000C94610D089510923C0110920D011092C9
:101B400041011092400181E00C94610D80910D01E2
:101B500081110C949B0D81E080930D0108958F926B
:101B60009F92AF92BF92CF92DF92EF92FF920F932C
:101B70001F93CF93DF938C017B0110923D01083FAF
:101B80008CE5180741F4FB01C281CC23D1F081E040
:101B900080930D01F3C0093FFCE51F0739F4FB01F9
:101BA000C281CC2371F00E949B0DE8C00A3FFCE586
:101BB0001F0739F4FB01C281CC2319F00E94A60D46
:101BC000DDC080910D01882309F4D7C010923F0138
:101BD00010923E01D1E0C0E0CC24C394D12CBB24B0
:101BE000B39480913E0190913F01892B09F088C008
:101BF000909108014091090199249A9480E0E92F7D
:101C0000F42FE80FF11DE80FF11D25913491021713
:101C1000130709F4982E232B11F08F5FF0CFFFEFFD
:101C20009F1202C0A12C59C080903C01F701A280F4
:101C300090910C01AA2041F1960101C0220F9A94C3
:101C4000EAF7292B20930C01882061F3A60102C03A
:101C5000440F551F8A95E2F741505109822F90E0B9
:101C600048175907D1F580910A0190910B0100970F
:101C700019F00E949A0505C061E080E090E00E94A2
:101C8000810DB0923D0129C0A60102C0440F551F2D
:101C90008A95E2F741505109292F30E04217530746
:101CA00079F480910A0190910B01009719F00E943C
:101CB000B00507C060E080E090E00E94810D01C0A7
:101CC000812CC60101C0880F9A94EAF78095909103
:101CD0000C01892380930C01A82CCA29DD2321F053
:101CE000D1E080910C018111D0E0D17080913E0152
:101CF00090913F01019690933F0180933E0171CFF7
:101D000080913D01882351F00E94411C9093410134
:101D10008093400180E00E94610D2CC0C1110DC074
:101D200081E00E94610DDD2329F1109241011092A2
:101D3000400181E080933C011DC0F701828188232E
:101D4000C9F080913C018823A9F00E94411C909326
:101D5000410180934001E0913B01E83058F481E07B
:101D60008E0F80933B01F0E0EE0FFF1FE55DFE4F0D
:101D70001183008381E0C82701C0C1E08C2FDF916F
:101D8000CF911F910F91FF90EF90DF90CF90BF9078
:101D9000AF909F908F9008951092B9008CE080933F
:101DA000B8000895EF92FF920F931F93CF93DF93A4
:101DB000182FEB011092BC0084EA8093BC000E94B3
:101DC000411C7C018091BC0087FD0EC0CF3F8FEF8E
:101DD000D807C1F30E94411C8E199F098C179D07DB
:101DE00088F38EEF9FEF2EC08091B900887F8830F6
:101DF00041F08091B900887F803119F08FEF9FEF1B
:101E000021C01093BB0084E88093BC000E94411C59
:101E10008C018091BC0087FD0CC0CF3F8FEFD807AD
:101E2000C1F30E94411C801B910B8C179D0788F306
:101E3000D8CF8091B900887F883111F08034F1F6D5
:101E400080E090E0DF91CF911F910F91FF90EF9094
:101E500008950F931F93CF93DF93EB018093BB0003
:101E600084E88093BC000E94411C8C018091BC00DE
:101E700087FD0EC0CF3F8FEFD807C1F30E94411CF2
:101E8000801B910B8C179D0788F38EEF9FEF0CC082
:101E90002091B900287F81E090E0283211F480E0A1
:101EA00090E0919581959109DF91CF911F910F91CC
:101EB00008950F931F93CF93DF93EC0184E88093F1
:101EC000BC000E94411C8C018091BC0087FD0EC0AB
:101ED000CF3F8FEFD807C1F30E94411C801B910BAD
:101EE0008C179D0788F38EEF9FEF03C08091BB0096
:101EF00090E0DF91CF911F910F91089584E9809335
:101F0000BC00089590934701809346010895E091A5
:101F10004601F0914701309721F00190F081E02DCA
:101F2000099480E00895E0914601F09147013097CF
:101F300011F480E008950190F081E02D0995089555
:101F4000E0914601F0914701309799F020911A01F4
:101F5000222359F020914A0227FF07C0DC012C916F
:101F600011962C93119725E02C930280F381E02D9C
:101F700009940895209144013091450128173907AB
:101F800071F09093450180934401E0914601F091F6
:101F90004701309721F00680F781E02D09940895DC
:101FA00020914201309143012817390771F0909335
:101FB000430180934201E0914601F091470130973F
:101FC00021F00084F185E02D099408950E944D1CB4
:101FD00060935B0170935C0180935D0190935E015F
:101FE00060935701709358018093590190935A015F
:101FF000089585B7806885BF85B7806885BF0895D7
:1020000081E008950C94001008950C9404100C9431
:1020100004100C9407100C9404100C940B100C94E6
:1020200004100E94F90F81E59AE10E94C01C0E94F1
:102030000F100C940D100E94381C0E9496090E94EB
:10204000C51C0C9409109F92AF92BF92CF92DF9261
:10205000EF92FF920F931F93CF93DF93CDB7DEB72D
:102060002A970FB6F894DEBF0FBECDBF0E940510B1
:102070000E9404100E94A70981110E94E60F89E4C2
:10208000A82E81E0B82E00E010E0902E802F0E9454
:102090008D09D82EF501C1905F01C826B1F40F5FFC
:1020A0001F4F0E30110589F78FEF89838A831B82BA
:1020B0000E94411C8160782F9D838C8349815A81C5
:1020C0006B818D810E94C3102FC08091FC0181FD26
:1020D0000E949309E12CFF24F3948C2D8F21F1F0C1
:1020E0000E940210882399F0EE829F82DF2081E017
:1020F00009F480E088870E94411C8160782F9A87CC
:1021000089874E815F8168858A850E94C310F801A6
:10211000E75BFE4F8081F826F08206C0E394FF0C57
:10212000F6E0EF12DACFBBCF0E94870F9091480103
:102130008917B9F00E94870F809348012A960FB63D
:10214000F894DEBF0FBECDBFDF91CF911F910F91ED
:10215000FF90EF90DF90CF90BF90AF909F900C9446
:10216000BC072A960FB6F894DEBF0FBECDBFDF9135
:10217000CF911F910F91FF90EF90DF90CF90BF9084
:10218000AF909F900895DF92EF92FF920F931F936D
:10219000CF93DF93CDB7DEB72B970FB6F894DEBFA2
:1021A0000FBECDBFF42E052F162FE72ED82E6111AE
:1021B0000E94CD19FE01319686E0DF011D928A95BD
:1021C000E9F77E2D4F2D502F612F8D2D9E810E947E
:1021D00012172B960FB6F894DEBF0FBECDBFDF915E
:1021E000CF911F910F91FF90EF90DF900895FC0128
:1021F000808191810E946B190895CF93882309F4FF
:1022000082C0C82F8238C1F40E94870F81FD7BC035
:1022100069E380910E0190910F010E94941B0E942E
:10222000EE192FEF81EE94E0215080409040E1F7CD
:1022300000C0000069E319C08338F1F40E94870FE1
:1022400080FD61C063E580910E0190910F010E94B5
:10225000941B0E94EE192FEF81EE94E021508040F4
:102260009040E1F700C0000063E580910E0190917D
:102270000F010E949F1B44C08438C1F40E94870F45
:1022800082FD41C067E480910E0190910F010E9490
:10229000941B0E94EE192FEF81EE94E021508040B4
:1022A0009040E1F700C0000067E4DFCF8CEF8C0FB7
:1022B000813AD0F46C2F80910E0190910F010E9411
:1022C000141B882349F06C2F80910E0190910F010F
:1022D0000E949F1B0E94EE196C2F80910E0190911D
:1022E0000F010E94941B0CC080E28C0F883058F4C0
:1022F000C77081E001C0880FCA95EAF70E94AD1946
:10230000CF910C94EE19CF910895882309F45BC006
:10231000682F823879F40E94870F81FF54C069E3E7
:1023200080910E0190910F010E94941B0E94EE1962
:1023300069E310C08338B1F40E94870F80FF43C067
:1023400063E580910E0190910F010E94941B0E9401
:10235000EE1963E580910E0190910F010E949F1B81
:102360000C94EE19843879F40E94870F82FF2BC0F9
:1023700067E480910E0190910F010E94941B0E94CE
:10238000EE1967E4E7CF8CEF860F813A18F380E20D
:10239000860F883048F4677081E001C0880F6A9525
:1023A000EAF70E94B319DCCF8BE5860F833020F467
:1023B00080E090E00C94BA0F685A673120F480E016
:1023C00090E00C94D00F08951F93CF93DF93182FB4
:1023D000EB010E94FD10209741F08FE99FE00197EB
:1023E000F1F700C000002197F6CF812FDF91CF9148
:1023F0001F910C948511893319F060E070E002C0E0
:1024000060E570E00C94E411882321F00E94AD197E
:102410000C94EE190895882321F00E94B3190C94AE
:10242000EE190895CF92DF92EF92FF920F931F93D0
:10243000CF93DF937C01D62FC72FFC01028115813A
:1024400012951F700E94A319882399F0002389F028
:102450008C2F807F803421F080E28D0F883048F00F
:1024600082E00E94381A0E94A31991E0D82ED92642
:1024700001C0D12CCC2EC2948FE0C8228C2D90E0CC
:102480008C30910508F085C1FC01E35AFF4F0C9494
:1024900077238C2F807FCF70882311F0C295C07F67
:1024A000002399F0CC2309F460C180E28D0F8830BD
:1024B00010F0D11104C08C2F0E94AD1903C08C2FD5
:1024C0000E94C0190E94EE1950C18D2F0E948511E3
:1024D000CC2309F45EC180E28D0F883010F0D11159
:1024E00004C08C2F0E94B31903C08C2F0E94C61900
:1024F0000E94EE194EC18C2F807FCF70803211F078
:10250000C295C07FDD2319F0D130C9F024C000236B
:1025100071F0112341F0113031F40E94D3198C2B4A
:102520000E94DB1936C10E94D3198C2B0EC01123D7
:1025300019F0113009F42DC10E94E4191EC00023C6
:1025400039F0123008F025C18C2F0E94041221C1ED
:1025500011111FC112C0002319F01123A9F305C1E5
:10256000112359F0D93309F011C1FFEF07EE13E041
:10257000F15000401040E1F707C18C2F0E940B1270
:1025800008C18C2F837009F047C0011106C12D2F9F
:10259000229526952770220F220F6D2F6F70862FA0
:1025A00090E0A0E0B0E0022E04C0880F991FAA1F9F
:1025B000BB1F0A94D2F7D4FF10C04FE050E060E098
:1025C00070E004C0440F551F661F771F2A95D2F78D
:1025D000409550956095709503C040E050E0BA0179
:1025E000C695C695C3708A019B01082B192B2A2B0F
:1025F0003B2BC901B801C23049F058F4C13019F081
:102600000E94E617CAC00E94D417C7C00E94F817DC
:10261000C4C00E94D217C1C0002319F08C2F817052
:1026200001C08695882309F4B8C02D2F22952695E0
:102630002770220F220F6D2F6F70862F90E0A0E081
:10264000B0E0022E04C0880F991FAA1FBB1F0A9476
:10265000D2F7D4FF10C04FE050E060E070E004C05B
:10266000440F551F661F771F2A95D2F74095509546
:102670006095709503C040E050E0BA01C695C695DC
:10268000C3708A019B01082B192B2A2B3B2BC901F4
:10269000B801C23049F058F4C13019F00E94AB18AB
:1026A0007CC00E94991879C00E94BD1876C00E9413
:1026B0000C1873C0CF70002339F08C2F0E94321891
:1026C0008D2F0E94041269C08D2F0E940B128C2F37
:1026D0000E94531862C0D23FF9F028F4D03F41F075
:1026E000D13F99F03EC0D33FF1F0D43F31F139C032
:1026F000002339F011114DC08C2F8F710E94781872
:1027000048C0123008F045C0F7CF002339F08C2FB5
:102710008F710E9432183DC00023C9F38C2F8F7136
:102720000E94531836C0002329F08C2F8F710E940D
:102730001D182FC00E9418182CC0002349F0CF711B
:102740008C2F0E94321863E08C2F0E94231A21C024
:1027500081E00E94381A1230E0F082E00E94381ABC
:1027600018C0002331F0112391F28D2F0E94FD102B
:1027700010C0112399F2D93349F41FEF27EE33E04B
:10278000115020403040E1F700C000008D2F0E9422
:10279000851188EF8C0D843020F40E94870F0E94F1
:1027A000BC07DD20C9F00E949F1980FD15C0F7010C
:1027B00012820E9499190E943218C7010E940D14BA
:1027C0000E949919DF91CF911F910F91FF90EF9087
:1027D000DF90CF900C945318DF91CF911F910F9100
:1027E000FF90EF90DF90CF9008950F931F93CF93BA
:1027F000DF93EC01688179818A810E9476198C01CE
:102800000E94CF180E94C017B801CE010E94121278
:10281000DF91CF911F910F910895CF93DF93EC013A
:10282000988189812B813C81232B31F08F3F31F4BA
:1028300081E09F3F19F403C081E001C080E080FD8A
:1028400019C0CE010E943C0681110CC00E94A31940
:10285000882381F08A81882369F082E0DF91CF911B
:102860000C94381ACE010E94F513CE01DF91CF915E
:102870000C941306DF91CF910895882321F00E94D4
:10288000C0190C94EE190895882321F00E94C619EE
:102890000C94EE1908950E94CD190E94D0190C9441
:1028A000EE1980910E0190910F010E94AA1B0C94C9
:1028B0004B140E94BD190C945114E92FE295EF704E
:1028C0004E2F50E0FA013297EE30F105B0F4E7599F
:1028D000FF4F0C947723803F91F018F4883E68F402
:1028E0000EC0843F51F40BC0883E48F0813F29F46C
:1028F00006C093FB882780F9089580E0089581E061
:1029000008950E946B190E945D140895CF93DF9380
:1029100000D000D01F92CDB7DEB70F900F900F9070
:102920000F900F90DF91CF910895CF93DF9300D058
:1029300000D000D0CDB7DEB726960FB6F894DEBF34
:102940000FBECDBFDF91CF9108951F93CF93DF933B
:10295000C091600116E080916101C81799F0D0E044
:102960001C9FF0011D9FF00D1124EE59FE4F408178
:10297000518162817381848195810E949514219691
:10298000C770E9CFDF91CF911F91089540919201D7
:1029900050919301609194017091950180919601FD
:1029A000909197010C9495140F931F93CF93DF93FD
:1029B0008091970182958F7009F05DC0809194019C
:1029C000882309F458C080916001109161016091E1
:1029D000920170919301C0919501D091960191E07F
:1029E0006F3F09F090E0292F06E0811709F443C0FA
:1029F000209721F07F3F21F030E003C031E001C09B
:102A0000322F90E030FD34C0089FF001099FF00D97
:102A10001124DF01AE59BE4F11963C911197371327
:102A200027C03C91361324C012963C911297311165
:102A30001FC013964D915C9114974C1B5D0B483C45
:102A40005105B0F4809197018F7080618093970158
:102A5000E959FE4F80818F708061808382E991E027
:102A60000E940D14DF91CF911F910F910C94A5142A
:102A700001968770BACFDF91CF911F910F91089582
:102A80009F92AF92BF92CF92DF92EF92FF920F93FD
:102A90001F93CF93DF93CDB7DEB761970FB6F8944E
:102AA000DEBF0FBECDBF8C0185E0F801DE011D96B3
:102AB00001900D928A95E1F7F80140815181E28001
:102AC000909192016091930120919501309196012E
:102AD0002115310531F06F3F31F481E09F3F19F44A
:102AE00003C081E001C080E0F82FF1709F2E80FDCF
:102AF00046C1F801A380B48082E9C82E81E0D82EB7
:102B0000F0909401F501E21BF30BFF2009F4DFC004
:102B100080919701E83CF10508F09BC0282F207FA9
:102B200009F052C0561313C0491311C0FE2CE11016
:102B30000EC08F708061809397010E94C614C601F9
:102B40000E940D1480919701F801858358C1AB282C
:102B500031F05F3F31F481E04F3F19F403C081E071
:102B600001C080E080FD03C081E08E2502C080E0CE
:102B700090E0F82FF170FF2E80FF1CC08091600163
:102B80002091610136E0821709F417C190E0389F67
:102B9000F001399FF00D1124EE59FE4F618156135B
:102BA00006C06081461303C06281E61203C001962D
:102BB0008770E9CFFE2CEE2009F421C180919701A6
:102BC0008160809397015AC0561306C0491304C010
:102BD000E11002C0F8019FC04D875E878D859E85FC
:102BE0000E948114882379F1EE2069F120919701E8
:102BF000822F82958F7090E0029774F080919201FD
:102C00009091930198878F831986BB86AA862C871B
:102C1000CE0107960E940D1486E0F801A2E9B1E00A
:102C200001900D928A95E1F70E94D4140E94C61477
:102C30000DC0561729F14D875E878D859E850E94B0
:102C4000811481112CC0C8010E940D14FF24F3943B
:102C5000D6C0282F207F69F77A2DB98AA88A6E2DD1
:102C600089890E94861482E991E00E940D1486E011
:102C7000F60111928A95E9F70E94C614F12CBFC0A3
:102C80004913D9CFE110D7CFF8018583C8010E943D
:102C90000D1486E0F60111928A95E9F7B0C0EE2096
:102CA00091F220919701822F82958F7090E0029788
:102CB0000CF4B2CF80919201909193019A83898311
:102CC0001B82BD82AC822E83CE010196A3CFE83C4D
:102CD000F10508F047C0FE2CEE2009F4B4CF5613DE
:102CE00030C049132EC02091970120FD21C0822FB2
:102CF00082958F70482F50E041155105C9F0F801B9
:102D000025834F30510541F08F5F982F9295907F2A
:102D1000822F8F70892B8583C8010E940D1486E055
:102D2000F801A2E9B1E001900D928A95E1F742C065
:102D300086E0F801A2E9B1E001900D928A95E1F7F1
:102D40005EC04D875E878D859E850E9481148111AE
:102D500063CF80919701816080939701C8010E94A1
:102D60000D144DC07A2DB98AA88A6E2D89890E94CA
:102D7000861486E0F60111928A95E9F71BC0EE20D1
:102D800009F461CF4D875E878D859E850E948114F1
:102D9000F82E882309F457CF86E0F801A2E9B1E0C4
:102DA00001900D928A95E1F782E991E00E94F71077
:102DB0000E94D4140E94C61422C04D875E878D8560
:102DC0009E850E946B19292F22952F70223028F49E
:102DD0009F7039F0811105C00BC0243028F49F701A
:102DE00049F4805E883020F0C8010E940D149F2CA9
:102DF000F92C05C0F8019581907F99F7F9CF8F2DB7
:102E000061960FB6F894DEBF0FBECDBFDF91CF91B4
:102E10001F910F91FF90EF90DF90CF90BF90AF90F8
:102E20009F9008951F93CF93DF93CDB7DEB72C9774
:102E30000FB6F894DEBF0FBECDBF4F8358876987AA
:102E40007A878B879C87CE0107960E94401588233E
:102E5000D1F09F8188852A853B85232B31F08F3FD8
:102E600031F481E09F3F19F403C081E001C080E0AC
:102E700080FD47C04F81588569857A858B859C8503
:102E80000E9495143EC086E0FE013796DE01119641
:102E900001900D928A95E1F7FF81E8856A857B852F
:102EA0006115710531F0EF3F31F481E0FF3F19F416
:102EB00003C081E001C080E080FD23C0209161015A
:102EC00030E0C9010196877099274091600150E078
:102ED00084179507F1F1F983EA837D836C8396E08B
:102EE000929FD001939FB00D1124AE59BE4FFE01A9
:102EF000319601900D929A95E1F7809361010E94BD
:102F0000A51416E08091600190916101891771F11B
:102F1000189FC00111248E599E4F0E94401588238E
:102F200029F1E09160011E9FF0011124EE59FE4F3E
:102F30004081518162817381848195810E949514C1
:102F40008091600190E001968770992780936001DD
:102F5000D9CF0E9459141092610110926001E2E9E8
:102F6000F1E086E0DF011D928A95E9F72C960FB615
:102F7000F894DEBF0FBECDBFDF91CF911F910895B2
:102F8000089508950C94C1170C94C2170E94C41799
:102F90006093D3017093D4018093D5019093D601AF
:102FA0000C944B140C94C6170F931F930091D301EC
:102FB0001091D4012091D5013091D601602B712B55
:102FC000822B932B1F910F910C94C6170F931F9375
:102FD0000091D3011091D4012091D5013091D601F7
:102FE00060237123822393231F910F910C94C617A2
:102FF0000F931F930091D3011091D4012091D5011B
:103000003091D60160277127822793271F910F9156
:103010000C94C6170C94C1170E940A186093CF0134
:103020007093D0018093D1019093D2010C944B14F2
:1030300060E070E0CB010C940C180F931F9341E0FB
:1030400050E060E070E08A019B0104C0000F111F96
:10305000221F331F8A95D2F7C901B8011F910F9122
:103060000C940C180F931F9341E050E060E070E067
:1030700004C0440F551F661F771F8A95D2F78091B1
:10308000CF019091D001A091D101B091D2018A01DC
:103090009B01082B192B2A2B3B2BC901B8011F912F
:1030A0000F910C940C180F931F9341E050E060E0D7
:1030B00070E004C0440F551F661F771F8A95D2F732
:1030C00040955095609570958091CF019091D00179
:1030D000A091D101B091D2018A019B01082319234B
:1030E0002A233B23C901B8011F910F910C940C189E
:1030F0000F931F9341E050E060E070E004C0440F84
:10310000551F661F771F8A95D2F78091CF01909146
:10311000D001A091D101B091D2018A019B01082771
:1031200019272A273B27C901B8011F910F910C9439
:103130000C180F931F930091CF011091D001209193
:10314000D1013091D201602B712B822B932B1F91D7
:103150000F910C940C180F931F930091CF011091B5
:10316000D0012091D1013091D201602371238223BB
:1031700093231F910F910C940C180F931F930091A0
:10318000CF011091D0012091D1013091D20160275F
:103190007127822793271F910F910C940C18089583
:1031A000292F220F920F990F890FE82FE695E695A8
:1031B000E695877051E001C0550F8A95EAF785E0E2
:1031C000E89FF0011124E856FE4F20E030E070E067
:1031D0004081CB01022E02C0969587950A94E2F7B2
:1031E0008170819584278523842781932F5F3F4FAA
:1031F0002530310569F70895292F220F920F990F75
:10320000890F682F669566956695982F977085E06B
:10321000689FB001112440E050E080E0FB01E40F22
:10322000F51FE856FE4F208130E0092E02C036958A
:1032300027950A94E2F721703327042E01C0220F4C
:103240000A94EAF7822B4F5F5F4F4530510531F703
:103250000895BF92CF92DF92EF92FF920F931F9348
:10326000CF93DF938C01C090CF01D090D001E0903C
:10327000D101F090D2018091D3019091D401A0911D
:10328000D501B091D601C82AD92AEA2AFB2ACFE172
:10329000D0E0D701C6010C2E04C0B695A79597952E
:1032A00087950A94D2F780FD04C0219790F7B12C3E
:1032B00007C0BC2EB8018C2F0E94D8070197A9F334
:1032C0008B2DDF91CF911F910F91FF90EF90DF90A9
:1032D000CF90BF900895CF93DF93EC010E942919FE
:1032E000BE010E94D807DF91CF9108951F93CF931D
:1032F000DF93EB0190915F01992321F0CB010E94B4
:103300006B1913C0882349F0CB010E942919182F8B
:10331000682FCE010E94D01804C0CB010E94FC1877
:10332000182FBE01812F0E94D807DF91CF911F91E6
:1033300008958091D701859585958595089580910B
:10334000D701877008959091D701977081E009F4B3
:1033500080E008958091FB0108959091FB01892BF5
:103360008093FB01089580959091FB0189238093C0
:10337000FB0108958093FB0108951092FB010895CD
:103380009091FA01892B8093FA010895809590918C
:10339000FA0189238093FA0108951092FA010895A1
:1033A0001092F90108958091D801089508950C9420
:1033B000D6190C94D7199091D801981721F08093C1
:1033C000D8010C94D91908958091D801882329F047
:1033D0001092D80180E00C94D9190895E0910E0163
:1033E000F0910F018091FB018083E0910E01F0913B
:1033F0000F0190818091FA01892B8083E0910E0169
:10340000F0910F0190818091F901892B8083809147
:10341000D801882381F0E0910E01F0910F01908195
:10342000892B808380910E0190910F010E94FE1ADA
:1034300081110E94E41980910E0190910F010C946A
:10344000A00F0C94D61998E0899F90011124262B87
:103450002093D7010E9432188091D70185958595D8
:1034600085950C94211A1092D70180E00C94211AB2
:103470002091D701809582238093D701982F977050
:1034800079F430E0482F082E000C550B241735072F
:1034900039F08595859585950E9453180C94331ABB
:1034A000089580E0089580E090E00E94AC2421E03F
:1034B0008B3E9E4F09F020E0822F089582E090E03D
:1034C0000C949E2483E090E00C949E24CF9384E09F
:1034D00090E00E949E24C82F81E290E00E949E24EA
:1034E0002C2F30E0A901582BCA01CF910895CF931A
:1034F000C92F682F84E090E00E94B2246C2F81E2F3
:1035000090E0CF910C94B2248FE090E00C94A6242C
:10351000AB01BC018FE090E00C94C424AB01BC0172
:1035200083E190E00C94C42460E070E0CB010C9443
:103530008E1A6BEE7EEF80E090E00E94D02460E077
:1035400082E090E00E94B22460E083E090E00E947C
:10355000B2241092D3011092D4011092D50110928E
:10356000D60160E084E090E00E94B22460E081E255
:1035700090E00E94B22460E085E090E00E94B224D6
:1035800060E086E090E00E94B2246FEF87E090E078
:103590000E94B22440E050E0BA0188E090E00E942E
:1035A000C42460E08DE090E00E94B22440E050E04E
:1035B000BA0188E190E00E94C42460E087E190E0D5
:1035C0000E94B22440E050E0BA018CE190E00E94F9
:1035D000C42460E080E290E00E94B22440E050E029
:1035E000BA0188E190E00E94C4240C940B050C946D
:1035F000991A682F8EE090E00C94B224FC01329668
:1036000080911A01882331F080914A0287FF02C01D
:103610009EE101C096E080E0915028F021912223A4
:10362000D9F38F5FF9CF0895662351F120911A01E4
:103630002223E9F020914A0227FF19C0462F469520
:10364000469546954E31E0F4677021E030E002C0C7
:10365000220F331F6A95E2F7FC01E40FF11D82810E
:1036600090E02823392381E0232B69F409C0FC0171
:10367000329608962191621729F0E817F907D1F7D9
:1036800080E0089581E008959C01FC0132969FEF4F
:1036900080E04191461789F09F3F19F4411101C024
:1036A000982F8F5F8630A9F79F3F39F0F901E90F16
:1036B000F11D97FDFA956283089508959C012A5F94
:1036C0003F4FFC014281461301C0128201968217CE
:1036D0009307B9F70895262F2695269526952E311E
:1036E00068F4FC01E20FF11D677021E030E001C0D9
:1036F000220F6A95EAF78281282B22830895262FCC
:103700002695269526952E3170F4FC01E20FF11DC9
:10371000677021E030E001C0220F6A95EAF720953A
:10372000828128232283089520911A01222329F0DF
:1037300020914A0227FD0C946B1B0C94441B209192
:103740001A01222329F020914A0227FD0C947F1BA5
:103750000C945E1B20911A01FC013296222331F059
:1037600080914A0287FF02C08EE101C086E0DF013E
:103770001D928A95E9F7089508950C94BC1BCF9388
:103780000E94F3030E94A7090E94BD1BC0E08C2F7A
:103790000E948D09811104C0CF5FCE30C1F701C0F6
:1037A00081E0CF9108950C94BC1B0C94D31B8091A5
:1037B0005002843049F10E94D51B80E00E94BC0772
:1037C0001092FD0120E488E190E00FB6F894A895EE
:1037D000809360000FBE2093600083B7817F846078
:1037E00083BF83B7816083BF7894889583B78E7FCA
:1037F00083BF0FB6F894A89580916000886180938C
:103800006000109260000FBE08950C94BC1B0E94D3
:1038100059140E94870F0E94BC070C94051C1F922C
:103820000F920FB60F9211248F939F93AF93BF9374
:103830008091FD01811113C0809146029091470251
:10384000A0914802B09149024196A11DB11D8093FB
:10385000460290934702A0934802B0934902BF9159
:10386000AF919F918F910F900FBE0F901F90189561
:1038700082E084BD93E095BD9AEF97BD80936E0082
:1038800008952FB7F8948091460290914702A09135
:103890004802B09149022FBF08952FB7F894609164
:1038A00046027091470280914802909149022FBFD1
:1038B00008959C014FB7F894809146029091470279
:1038C000A0914802B09149024FBF821B930B08950B
:1038D00078941F920F920FB60F9211248F939F939B
:1038E000AF93BF938091460290914702A091480206
:1038F000B09149020196A11DB11D8093460290939B
:103900004702A0934802B0934902BF91AF919F91A3
:103910008F910F900FBE0F901F901895F89481E033
:103920008093E00080E28093D800E9ECF0E0108220
:103930008FE19EE40197F1F700C000001DBA1092DC
:1039400068001CBC10BE1FBA10927A0010926E0064
:1039500010926F0010927100109272001082ECEBC6
:10396000F0E0108214B817B81AB81DB810BA108257
:1039700015B818B81BB81EB811BA0C94003F0895BA
:1039800090931D0180931C0108950E94531A811188
:1039900002C00E94F71A0E945E1A8093FC010E94E6
:1039A000661A90934B0280934A020E94621A682F13
:1039B00070E080E090E00E94D2176091CF0170919A
:1039C000D0018091D1019091D2010C940A1880917C
:1039D0001E02089508950895CF93DF9320911A0150
:1039E000222339F020914A0227FF03C060E222E03F
:1039F00002C068E021E02093E9002FEF3091E80059
:103A0000215035FD06C035ED3A95F1F70000211142
:103A1000F5CF2091E80025FF1DC0EC0180911A012F
:103A2000811105C040E050E068E070E003C070E044
:103A300040E050E0CE010E94C51E8091E8008E77E4
:103A40008093E80080E2FE01AEEFB1E001900D92BC
:103A50008A95E1F7DF91CF910895089580914F0203
:103A6000811109C00E9456200E94B3208091E2007B
:103A700084608093E200089510924F0208950895A3
:103A80000895089542E061EC81E00E94CF1F42E278
:103A900061EC82E00C94CF1F80915202833009F4D4
:103AA00060C030F4813071F0823009F499C008951B
:103AB0008A3009F485C08B3009F46BC0893009F075
:103AC000A7C020C080915102813A09F0A1C0809125
:103AD000E800877F8093E80080915502909156021C
:103AE000892B21F460E28EEF91E003C060E080E07A
:103AF00090E070E00E94101F8091E8008B77809327
:103B0000E800089580915102813209F081C08091CE
:103B1000550290915602029708F07AC08091E80011
:103B2000877F8093E8008091E80082FD05C0809146
:103B300050028111F8CF6CC02091F3008091F20007
:103B400090E0922B029729F48091F1008B7F8130D5
:103B500021F48091F10080931E028091E8008B7720
:103B600053C080915102813A09F052C080915502B0
:103B700090915602892B09F04BC08091E800877F15
:103B80008093E8008091E80080FFFCCF80911A01CB
:103B900036C0809151028132D9F5809155029091C1
:103BA0005602892BA9F58091E800877F8093E80071
:103BB0000E9404208091530280931A010C9459149E
:103BC00080915102813221F58091E800877F8093B6
:103BD000E8000E9404208091540280931F020895FF
:103BE00080915102813AA1F48091E800877F80930F
:103BF000E8008091E80080FFFCCF80911F02809355
:103C0000F1008091E8008E778093E8000C94042006
:103C1000089584B7877F84BF0FB6F894A8958091E4
:103C20006000886180936000109260000FBE90E099
:103C300080E80FB6F89480936100909361000FBE06
:103C40000E9411100E9456200E94B3208091E20031
:103C500084608093E20078940E9448230E941B10A5
:103C600080E191E00E94820F809150028530A9F49A
:103C700080915002853079F40E94D71B80914E02CA
:103C80008823B1F30E94BF1B882391F30E94AF1ECB
:103C90000E945914EDCF0E94071C0E9423100E941D
:103CA00005100E940410E0CF0C94561E292F3327D4
:103CB00023303105C9F060F42130310581F0223024
:103CC000310509F044C08BE390E027ED34E043C0B8
:103CD00021323105E1F02232310549F138C082E16B
:103CE00090E022E135E037C099278130910549F015
:103CF00028F0029761F5E1E9F4E005C0E3EDF4E0B6
:103D000002C0E9EAF4E0849190E09F0124C06115CB
:103D1000710541F061307105D1F489E090E022E055
:103D200035E019C089E090E029EE34E014C0611557
:103D3000710541F06130710551F48BE390E024E2AC
:103D400035E009C080E490E02FE535E004C080E074
:103D500090E020E030E0FA0131832083089580E193
:103D600089BD82E189BD09B400FEFDCF8091D800F4
:103D70008F7D8093D8008091E00082608093E00086
:103D80008091E00081FDFCCF0895CF92DF92EF9209
:103D9000FF920F931F93CF93DF93EC018B017A0176
:103DA0000E942320811133C0E114F10439F0F7019E
:103DB00080819181081B190BC80FD91FC12CD12CF0
:103DC0000115110519F18091E80085FD16C080915B
:103DD000E8008E778093E800E114F10449F0F701E0
:103DE00080819181C80ED91ED182C08285E00FC02A
:103DF0000E942320882321F30AC089918093F10037
:103E000001501109FFEFCF1ADF0ADACF80E0DF910E
:103E1000CF911F910F91FF90EF90DF90CF90089579
:103E200020915702309158022617370748F0611544
:103E3000710539F42091E8002E772093E80001C045
:103E4000B901FC0120E06115710579F18091500202
:103E50008823F1F18530F1F18091E80083FD3CC0C9
:103E60008091E80082FD2EC08091E80080FFEBCFBA
:103E70002091F3008091F20090E0922B6115710582
:103E800051F08830910538F421912093F100615070
:103E900071090196F3CF21E0089709F020E08091A5
:103EA000E8008E778093E800CECF2111CFCF0AC0F3
:103EB00080915002882361F0853061F08091E800A4
:103EC00083FD0AC08091E80082FFF2CF80E0089570
:103ED00082E0089583E0089581E0089520915702DB
:103EE000309158022617370748F06115710539F4EB
:103EF0002091E8002E772093E80001C0B901FC0171
:103F000020E06115710591F180915002882309F438
:103F100040C0853009F43FC08091E80083FD3DC07A
:103F20008091E80082FD2FC08091E80080FFE9CFFA
:103F30002091F3008091F20090E0922B61157105C1
:103F400059F08830910540F424912093F100319686
:103F5000615071090196F2CF21E0089709F020E045
:103F60008091E8008E778093E800CBCF2111CCCFF1
:103F70000AC080915002882361F0853061F0809101
:103F8000E80083FD0AC08091E80082FFF2CF80E064
:103F9000089582E0089583E0089581E00895982FC0
:103FA000973068F59093E900981739F07091EC001C
:103FB0002091ED005091F00003C0242F762F50E0A7
:103FC00021FD02C09F5FECCF3091EB003E7F30932C
:103FD000EB003091ED003D7F3093ED003091EB0030
:103FE00031603093EB007093EC002093ED00509320
:103FF000F0002091EE0027FDE5CF80E008958F705E
:104000008093E90081E008958091510287FF11C0FB
:104010008091E80082FD05C0809150028111F8CFA7
:1040200011C08091E8008B770BC0809150028823EB
:1040300049F08091E80080FFF8CF8091E8008E770A
:104040008093E80008952091E4003091E50095E622
:104050004091EC00842F817040FF23C08091E800E4
:1040600080FD1DC080915002882399F0853099F021
:104070008091EB0085FD11C04091E4005091E50076
:104080002417350729F3915011F09A01E1CF84E00C
:10409000089582E0089583E0089581E0089580E026
:1040A00008954091E80042FFDDCF08950E94C420AA
:1040B0000E94CC20E0EEF0E0808181608083E8ED1A
:1040C000F0E080818F77808319BCA7EDB0E08C9100
:1040D0008E7F8C9380818F7E808310924F02089513
:1040E0000F931F93CF93DF930E94C4200E94CC2094
:1040F000C8EDD0E088818F77888388818068888345
:1041000088818F7D888319BC1092500210924C02D6
:1041100010924E0210924D0200EE10E0F8018081E4
:104120008B7F808388818160888342E060E080E0CB
:104130000E94CF1FE1EEF0E080818E7F8083E2EE6F
:10414000F0E0808181608083808188608083F801D5
:1041500080818E7F8083888180618883DF91CF9189
:104160001F910F910895E8EDF0E080818F7E8083AC
:10417000E7EDF0E080818160808384E082BF81E0B0
:1041800080934F020C947020E8EDF0E080818E7FE8
:1041900080831092E20008951092DA001092E100FC
:1041A00008951F920F920FB60F9211242F933F93F1
:1041B0004F935F936F937F938F939F93AF93BF932F
:1041C000EF93FF938091E10082FF0BC08091E200AA
:1041D00082FF07C08091E1008B7F8093E1000E9405
:1041E00047238091DA0080FF1FC08091D80080FFB4
:1041F0001BC08091DA008E7F8093DA008091D90015
:1042000080FF0DC080E189BD82E189BD09B400FE57
:10421000FDCF81E0809350020E942E1D05C019BC85
:10422000109250020E943C1D8091E10080FF19C055
:104230008091E20080FF15C08091E2008E7F809324
:10424000E2008091E20080618093E2008091D800DA
:1042500080628093D80019BC85E0809350020E9450
:10426000401D8091E10084FF30C08091E20084FF16
:104270002CC080E189BD82E189BD09B400FEFDCF7B
:104280008091D8008F7D8093D8008091E1008F7E4F
:104290008093E1008091E2008F7E8093E200809124
:1042A000E20081608093E20080914C02882311F04B
:1042B00084E007C08091E30087FD02C081E001C077
:1042C00083E0809350020E94411D8091E10083FFB2
:1042D00029C08091E20083FF25C08091E100877FA3
:1042E0008093E10082E08093500210924C02809112
:1042F000E1008E7F8093E1008091E2008E7F8093C9
:10430000E2008091E20080618093E20042E060E0A0
:1043100080E00E94CF1F8091F00088608093F000C1
:104320000E943F1DFF91EF91BF91AF919F918F919F
:104330007F916F915F914F913F912F910F900FBEA1
:104340000F901F9018951F920F920FB60F92112485
:104350002F933F934F935F936F937F938F939F938D
:10436000AF93BF93CF93DF93EF93FF93C091E90097
:10437000CF708091EC00D82FD17080FDD0E81092E2
:10438000E9008091F000877F8093F00078940E948C
:10439000E7211092E9008091F00088608093F0009E
:1043A000CD2BCF70C093E900FF91EF91DF91CF91BA
:1043B000BF91AF919F918F917F916F915F914F913D
:1043C0003F912F910F900FBE0F901F9018951F9344
:1043D000CF93DF93CDB7DEB7AA970FB6F894DEBFC1
:1043E0000FBECDBFE1E5F2E08091F100819322E0C4
:1043F000E935F207C9F70E944C1D8091E80083FF60
:104400002EC18091510290915202492F50E04A30C2
:10441000510508F024C1FA01E958FF4F0C947723A5
:10442000803821F0823809F01AC108C080914D020D
:1044300090914E02992389F082600FC080915502BD
:104440008F70873008F00BC18093E9008091EB00FA
:1044500085FB882780F91092E9009091E800977F0A
:104460009093E8008093F1001092F100D1C0282FC2
:104470002D7F09F0F4C0882319F0823061F0EFC07D
:1044800080915302813009F0EAC0933009F080E056
:1044900080934E022EC08091530281112AC08091D8
:1044A00055028F702FEF280F263008F0D8C0809368
:1044B000E9002091EB0020FF1CC0933021F4809193
:1044C000EB00806214C09091EB0090619093EB0040
:1044D00021E030E0A90102C0440F551F8A95E2F7A0
:1044E0004093EA001092EA008091EB00886080938C
:1044F000EB001092E9008091E800877F8093E8004C
:104500000E940420ACC08111AAC0109153021F77F1
:104510008091E3008078812B8093E3008091E80014
:10452000877F8093E8000E9404208091E80080FF4C
:10453000FCCF8091E30080688093E300111102C0FA
:1045400082E001C083E08093500289C080588230AD
:1045500008F085C080915302909154028C3D53E045
:10456000950779F583E08A838AE289834FB7F894C7
:10457000DE01139620E03EE051E2E32FF0E050939D
:104580005700E49120FF03C0E295EF703F5FEF70AA
:104590008E2F90E0EA3010F0C79601C0C0968D9340
:1045A0009D932F5F243149F74FBF8091E800877FAB
:1045B0008093E8006AE270E0CE0101960E94101F2D
:1045C00016C06091550270915602AE014F5F5F4F69
:1045D0000E94541EBC01892B09F441C09091E8004F
:1045E000977F9093E80089819A810E946E1F809145
:1045F000E8008B778093E80032C0803881F58091A5
:10460000E800877F8093E80080914C028093F1005E
:104610008091E8008E7772CF811121C08091530282
:104620009091540299270297D4F48091E800877FF3
:104630008093E8008091530280934C020E940420F2
:1046400080914C02811106C08091E30087FD02C079
:1046500081E001C084E0809350020E94421D80915D
:10466000E80083FF0AC08091E800877F8093E8001C
:104670008091EB0080628093EB00AA960FB6F894CD
:10468000DEBF0FBECDBFDF91CF911F91089508957A
:10469000CF93809150028823A1F0C091E900CF70A0
:1046A0009091EC00892F817090FD80E8C82B1092CA
:1046B000E9008091E80083FD0E94E721CF70C0935C
:1046C000E900CF910895AA1BBB1B51E107C0AA1FA7
:1046D000BB1FA617B70710F0A61BB70B881F991FA3
:1046E0005A95A9F780959095BC01CD010895EE0FDC
:1046F000FF1F0590F491E02D09940F931F93CF9322
:10470000DF938230910510F482E090E0E0915B024B
:10471000F0915C0220E030E0A0E0B0E0309719F1C9
:10472000408151810281138148175907C8F08417CD
:10473000950769F4109731F012960C93129713961F
:104740001C9327C000935B0210935C0222C02115CA
:10475000310519F04217530718F49A01BD01EF0112
:10476000DF01F801DBCF21153105F9F0281B390BEA
:104770002430310580F48A819B816115710521F017
:10478000FB019383828304C090935C0280935B025D
:10479000FE01329644C0FE01E20FF31F8193919314
:1047A00022503109398328833AC02091590230912F
:1047B0005A02232B41F420910201309103013093DE
:1047C0005A022093590220910001309101012115D4
:1047D000310541F42DB73EB74091040150910501D8
:1047E000241B350BE0915902F0915A02E217F307AE
:1047F000A0F42E1B3F0B2817390778F0AC014E5F51
:104800005F4F2417350748F04E0F5F1F50935A0231
:10481000409359028193919302C0E0E0F0E0CF0110
:10482000DF91CF911F910F910895CF93DF93009760
:1048300009F481C0FC01329713821282A0915B02BD
:10484000B0915C02109781F420813181820F931F17
:104850002091590230915A022817390751F5F093E7
:104860005A02E093590267C0ED0120E030E0CE1714
:10487000DF0740F44A815B819E0141155105F1F04B
:10488000EA01F5CFD383C28340815181840F951F04
:10489000C817D90759F488819981840F951F02960A
:1048A000918380838A819B81938382832115310543
:1048B00029F4F0935C02E0935B023DC0E901FB83C5
:1048C000EA8349915991C40FD51FEC17FD0761F494
:1048D00080819181840F951F0296E90199838883D5
:1048E000828193819B838A83E0E0F0E012968D9130
:1048F0009C911397009719F0FD01DC01F7CF8D9182
:104900009C9111979D012E5F3F4F820F931F209125
:10491000590230915A022817390769F4309729F45F
:1049200010925C0210925B0202C013821282B0935A
:104930005A02A0935902DF91CF910895F999FECFC1
:1049400092BD81BDF89A992780B50895A6E1B0E09F
:1049500044E050E00C94D824A8E1B0E042E050E0FC
:104960000C94D824262FF999FECF92BD81BDF89AD8
:10497000019700B4021639F01FBA20BD0FB6F894A3
:10498000FA9AF99A0FBE08950396272F0E94B3242E
:104990000E94B224252F0E94B324242F0C94B32408
:1049A0000196272F0E94B3240C94B224DC01CB0182
:1049B000FC01F999FECF06C0F2BDE1BDF89A31962F
:1049C00000B40D9241505040B8F70895F894FFCFCD
:1049D00000005D0220002000DB0339000001D90146
:0C49E000E71CEC1CEA1C2D1DEB1C010068
:00000001FF
